:020000040800F2
:100000005006002001010008F70E0008D10D00087D
:10001000F30E000811090008DB1D000800000000B5
:10002000000000000000000000000000E5150008CE
:100030003D0C000800000000F11300080D17000837
:100040001B0100081B0100081B0100081B01000820
:100050001B0100081B0100081B0100081B01000810
:100060001B0100081B0100081B0100081B01000800
:100070001B0100081B0100081B0100081B010008F0
:100080001B0100081B0100081B0100081B010008E0
:100090001B0100081B0100081B0100081B010008D0
:1000A0001B0100081B0100081B0100081B010008C0
:1000B0001B010008711700081B0100081B01000844
:1000C0001B0100081B0100081B0100081B010008A0
:1000D0001B0100081B010008951B00081B010008FC
:1000E0001B0100081B0100081B010008DFF80CD0F1
:1000F00000F0A0FA00480047F93F00085006002031
:100100000648804706480047FEE7FEE7FEE7FEE7B1
:10011000FEE7FEE7FEE7FEE7FEE7FEE71117000851
:10012000ED00000840EA01039B0703D009E008C97D
:10013000121F08C0042AFAD203E011F8013B00F8AC
:10014000013B521EF9D27047D2B201E000F8012BF8
:10015000491EFBD270470022F6E710B513460A4647
:1001600004461946FFF7F0FF204610BDF0B480EAC0
:100170000102D40F4200B2EB410F02D20246084600
:1001800011464A0042D0C30DDDB2C1F3C752AD1AC9
:10019000202D35DAC1F3160141F4000204B15242B8
:1001A000C5F1200602FA06F12A411044B3EBD05FF4
:1001B00023D0C4B1012DA0EBC35009DCF0BC4FF03B
:1001C000004202EAC352DBB200F5000000F0A6B91B
:1001D000400000F1807000EBC350A0F1807040EA55
:1001E000D170490009E0490841EAC071A0EBC35051
:1001F00000F50000400800EBC350F0BC00F085B9EA
:100200006142012202EB4101001BF6E7F0BC70479E
:1002100081F00041AAE780F00040A7E780EA0102F0
:1002200010B502F00043400022D04A001FD0010E5A
:1002300001EB1261C0F35600C2F3560240F4000015
:1002400042F40002A0FB022000047F39140400D015
:10025000401C50EA124001D44000491EC2B20C06B4
:1002600004EBD010401C4008802A02D003E000209C
:1002700010BD20F00100002900DA0020184310BD55
:1002800030B480EA010202F0004530F0004221F073
:10029000004013D090B1C30DD40DC2F31601C0F3CA
:1002A0001600E41A41F4000140F400027D3491424A
:1002B00001D3641C00E04900002C02DA30BC0020AD
:1002C00070474FF400000023914201D3891A034381
:1002D00040084FEA4101F7D151B1914202D14FF0AC
:1002E000004105E002D24FF0010101E06FF0010191
:1002F00003EBC450284430BC00F007B92DE9FE4F91
:1003000081EA030404F0004421F0004100944FF01E
:10031000000B23F0004350EA01045ED052EA0304CC
:100320005BD0C3F30A54C1F30A552C44A4F2F3344E
:100330000194A0FB0254C1F3130141F48011C3F3F3
:10034000130343F4801301FB024400FB034E840AB1
:10035000970A44EA815447EA8357A4FB0768029549
:100360008D0A05FB07854FEA932C04FB0C542705E7
:10037000029D4FEA065847EA1637B5EB08056EEBC3
:10038000070C870E920E47EA811742EA8312A7FBF9
:100390000201B6EB0B0164EB00042B0D43EA0C33B6
:1003A0005E1844EB1C50DA465146E7FB0201C5F3E8
:1003B00013044FEA0B3343EA14534FEA0432019C0F
:1003C00043EA0603A4F10C040294009CCDE900B4B6
:1003D00000F0E1F803B0BDE8F08F00200146F9E736
:1003E000C10F80EAE0700844CA079623002100F09C
:1003F00095B896230022114600F090B820F00040F6
:10040000C10DC0F3160040F400007F2901DA00207E
:100410007047962903DCC1F19601C84070479639B0
:100420008840704770B5C1F30A5201F000450024BE
:10043000C1F3130140F2FF3341F480119A4201DA13
:10044000002070BD40F233439A42A2F2334203DCF3
:10045000524200F04AF800E090402C43F1D0404274
:1004600070BD00F0004230F000400AD0C10D01F52F
:100470006071C0F3160042EA0151C20840071143FF
:1004800070470020014670472DE9F05F05460020C7
:1004900092469B4688460646814640241BE02846F5
:1004A00041464746224600F020F853465A46C01AB5
:1004B000914110D311461846224600F0CDF82D1A6E
:1004C00067EB01084F4622460120002100F0C4F8E6
:1004D00017EB00094E41201EA4F10104DFDC484661
:1004E00031462A464346BDE8F09F202A04DB203AE5
:1004F00021FA02F00021704721FA02F3D040C2F144
:10050000200291400843194670470029A8BF704750
:10051000401C490008BF20F00100704710B4B0FA39
:1005200080FC00FA0CF050EA010404BF10BC7047D4
:1005300049B1CCF1200421FA04F411FA0CF118BFEE
:10054000012121430843A3EB0C01CB1D4FEA0061BD
:100550004FEA102042BF002010BC704700EBC35090
:1005600010440029A4BF10BC7047401C490008BFBC
:1005700020F0010010BC704710B5141E73F1000488
:1005800008DA401C41F1000192185B411A4301D185
:1005900020F0010010BD2DE9F04D92469B4611B1AF
:1005A000B1FA81F202E0B0FA80F22032904600F017
:1005B00053F804460F4640EA0A0041EA0B0153464D
:1005C0005A46084313D0114653EA010019D0C8F126
:1005D00040025046FFF789FF05460E4650465946F1
:1005E000424600F039F8084305D0012004E02046D7
:1005F0003946BDE8F08D0020054346EAE0762C43FD
:1006000037430A986305E40AA0EB08000022FD0ABC
:1006100044EA47540A3002D500200146E9E70105C3
:1006200010196941DDE9084500196941BDE8F04D3F
:10063000A2E70000064C074D06E0E06840F0010329
:1006400094E8070098471034AC42F6D3FFF752FD08
:100650000062000820620008202A04DB203A00FA29
:1006600002F1002070479140C2F1200320FA03F309
:1006700019439040704721B1826842F001028260C4
:1006800003E0826822F001028260704721B1826833
:1006900042F48072826003E0826822F48072826099
:1006A0007047014600208A6802F004020AB1012066
:1006B00000E000207047014600208A6802F008022E
:1006C0000AB1012000E000207047000030B502466A
:1006D0000020002350680F4C20400D790C6844EA3C
:1006E00005242043506090680B4C2040D1E902540F
:1006F0002C434D7944EA450420439060D06A20F4AD
:1007000070000C7C641EE4B2234340EA0350D062C4
:1007100030BD0000FFFEF0FFFDF7F1FFF0B504462D
:100720000D4600200021092D11DDE068A5F10A0623
:1007300006EB4607072606FA07F18843A5F10A06E5
:1007400006EB460603FA06F10843E0600CE0206978
:1007500005EB4507072606FA07F1884305EB450632
:1007600003FA06F108432061072A0FDA606B561E70
:1007700006EB86071F2606FA07F18843561E06EB8E
:10078000860605FA06F10843606322E00D2A0FDAB7
:10079000206BD61F06EB86071F2606FA07F1884353
:1007A000D61F06EB860605FA06F10843206310E023
:1007B000E06AA2F10D0606EB86071F2606FA07F18E
:1007C0008843A2F10D0606EB860605FA06F10843FA
:1007D000E062F0BD816841F008018160704721B19D
:1007E000826842F4A002826003E0826822F4A002E0
:1007F00082607047816841F00401816070470000A9
:1008000000B591B00121480200F072FE01210420E0
:1008100000F06EFE0121084600F04AFE4FF4004051
:1008200000F03AFE00208DF84300C020ADF84000F3
:1008300003208DF8420010A9314800F023FA052367
:10084000012206212F48FFF769FF05230222072115
:100850002C48FFF763FF00200B900E9001208DF8CD
:1008600031004FF460200D9001208DF830000220FF
:100870008DF83C000BA92348FFF728FF21484C3096
:10088000009080150690002004901F4801904FF4BE
:100890008060079080200590002002900220039045
:1008A0002020089000200A904FF48050099069465B
:1008B000164800F06FF80121144800F05FF801219C
:1008C0001048FFF7E3FE01210E48FFF7D4FE0D4864
:1008D000FFF780FF00BF0B48FFF7EDFE0128FAD0BD
:1008E0000848FFF787FF00BF0648FFF7DAFE012838
:1008F000FAD001210348FFF772FF11B000BD0000DC
:1009000000080140002401401800002008000240B7
:1009100000BFFEE708B50121042000F0E9FD10202A
:100920008DF80300ADF8000003208DF80200694641
:10093000024800F0A7F900F003F808BD00080140E4
:1009400010B51021014800F03CFA10BD000801402C
:1009500010B51021014800F032FA10BD0008014026
:1009600010B51021044800F021FA10B9FFF7E8FF94
:1009700001E0FFF7EDFF10BD0008014021B1026862
:1009800042F00102026004E002684FF6FE731A4072
:100990000260704710B50022026847F6F0739A4370
:1009A0000C6A8B6823430C6923434C6923438C698D
:1009B0002343CC6923434C6A23438C6A23431A4361
:1009C0000260CB6843600B6883604B68C36010BDF6
:1009D00010B50024002000F08BF804E0601CC4B2C5
:1009E000012000F038F901210E4800F0D6F908B1D5
:1009F000C82CF3DBC82C01DB012010BD002404E06F
:100A0000601CC4B2012000F026F90121054800F065
:100A1000C4F908B9F02CF3DBF02C01DB0120ECE782
:100A20000020EAE7000C01402DE9F84F00F0CAF879
:100A300000F0B2F8FFF7CCFFCC2000F0CFF8BE20DA
:100A400000F0CCF800F096F8834600F093F80446E6
:100A5000072C08DDE043C4B26FEA0B0000F0FF0B87
:100A60004FF0000A01E04FF0010AA1464FEA0920C9
:100A70000FFA80F909EB0B000FFA80F94846FFF7EF
:100A8000AFFC0090FFF7EDFC07460022084BFFF794
:100A900035FC0546FFF7C6FC0FFA80F9BAF1000FE6
:100AA00002D04846BDE8F88FC9F1000000B2F9E76E
:100AB0000000E43F08B50121082000F019FD1020D6
:100AC0008DF803000120ADF8000003208DF802002E
:100AD0006946064800F0D6F80121044800F071F993
:100AE00000F05AF8FFF774FF08BD0000000C014049
:100AF00038B504460121082000F0FAFC4CB1102062
:100B00008DF803000120ADF8000003208DF80200ED
:100B100005E004208DF803000120ADF800006946CF
:100B2000014800F0AFF838BD000C014010B50120BD
:100B3000FFF7DEFF01210E4800F041F9022000F02E
:100B40008AF801210A4800F03CF90020FFF7D0FFA5
:100B50000C2000F080F80121054800F01EF908B1D2
:100B6000012400E00024322000F075F8204610BD7A
:100B7000000C014070B50026002508E0FFF7D6FF05
:100B80000446E00140EA6600C6B2681CC5B2082D02
:100B9000F4DB304670BD000010B50120FFF7A8FF60
:100BA0000121074800F00BF940F2EE2000F053F865
:100BB0000121034800F005F90F2000F04CF810BDAA
:100BC000000C014010B5FFF7E7FFFFF701FFCC2055
:100BD00000F004F8442000F001F810BD70B50446A0
:100BE0000120FFF785FF002522E004F001066410D4
:100BF00076B10121104800F0E2F8022000F02BF855
:100C000001210D4800F0DDF83C2000F024F80DE053
:100C10000121094800F0D3F83C2000F01CF8012124
:100C2000054800F0CEF8022000F015F8681CC5B2A7
:100C3000082DDADB70BD0000000C0140704700B5E4
:100C4000034603E04FF47A7000F005F8181EA3F194
:100C50000103F7D100BD00EBC001C9004FF0E02255
:100C60005161002191610521116100BF4FF0E02128
:100C7000096901F480310029F8D004214FF0E02205
:100C8000116170472DE9F041024600250026002041
:100C900000230024002791F803C00CF00F0591F801
:100CA00003C00CF0100CBCF1000F03D091F802C08F
:100CB0004CEA050591F800C0BCF1000F31D0146872
:100CC00000202BE04FF0010C0CFA00F3B1F800C04B
:100CD0000CEA03069E4220D183004FF00F0C0CFA61
:100CE00003F7BC4305FA03FC4CEA040491F803C083
:100CF000BCF1280F06D14FF0010C0CFA00FCC2F831
:100D000014C00AE091F803C0BCF1480F05D14FF0C0
:100D1000010C0CFA00FCC2F810C0401C0828D1D30A
:100D20001460B1F800C0BCF1FF0F34DD546800203E
:100D30002EE000F1080C4FF0010808FA0CF3B1F8AE
:100D400000C00CEA03069E4221D183004FF00F0C35
:100D50000CFA03F7BC4305FA03FC4CEA040491F8CF
:100D600003C0BCF1280F05D100F1080C08FA0CF8FB
:100D7000C2F8148091F803C0BCF1480F07D100F10C
:100D8000080C4FF0010808FA0CF8C2F81080401C5B
:100D90000828CED35460BDE8F08102460020936855
:100DA0000B400BB1012000E00020704702460020FC
:100DB000D3680B400BB1012000E000207047416177
:100DC0007047016170470AB1016100E041617047FD
:100DD00000BFFEE710B500244FF400511448FFF7A0
:100DE000DCFF70B91420FFF72AFF00BF4FF4005159
:100DF0000F48FFF7D2FF0028F8D01420FFF71FFF9D
:100E000003244FF480410A48FFF7C7FF70B914204C
:100E1000FFF715FF00BF4FF480410548FFF7BDFF06
:100E20000028F8D01420FFF70AFF0424204610BD44
:100E3000000C014008B50121082000F059FB4820B2
:100E40008DF803004FF4E040ADF8000003208DF86A
:100E5000020069460148FFF715FF08BD000C01407C
:100E600070B5002500244FF480511C48FFF795FF12
:100E700088BB1420FFF7E3FE4FF480511748FFF7BB
:100E80008CFF40BB01F06CFC044617E01420FFF718
:100E9000D6FE01F065FC001B40F6B83188420DD348
:100EA00002E01420FFF7CBFE4FF480510B48FFF710
:100EB00074FF0028F5D00225284670BD4FF48051FC
:100EC0000648FFF76AFF0028E0D001F049FC001B4C
:100ED000322800D301252846EFE70000000C01402E
:100EE00010B50446642C00DD6424204600F076FA38
:100EF00010BD00BFFEE7704770B5002100230F2230
:100F0000C47804B3154C246804F4E064C4F5E064C8
:100F1000210AC1F10403CA40447804FA03F1847839
:100F20001440214309010E4C0678A155047804F0C1
:100F30001F050124AC4005786D11AD0005F1E025D9
:100F4000C5F8004109E0047804F01F050124AC4015
:100F5000044D0678761145F8264070BD0CED00E092
:100F600000E400E080E100E002490143024A116030
:100F7000704700000000FA050CED00E070B5002499
:100F80000EE00021204600F0F0F8002504E00020EB
:100F900000F07CF9681CC5B2802DF8DB601CC4B27F
:100FA000082CEEDB70BD000008B50121082000F020
:100FB0009FFA14208DF8030003208DF802004FF4EF
:100FC0008070ADF8000069460A48FFF75BFE4FF4F9
:100FD0000070ADF8000069460648FFF753FE012295
:100FE00011020448FFF7EFFE012251020148FFF70A
:100FF000EAFE08BD000C014070B50546002415E06E
:101000008020204100EA05024FF400710E48FFF7EE
:10101000DAFE012211020C48FFF7D5FE00224FF440
:1010200080710948FFF7CFFE601CC4B2082CE7DBD3
:10103000012211020448FFF7C6FE00224FF480711E
:101040000148FFF7C0FE70BD000C014010B5012241
:1010500051020A48FFF7B7FE012211020748FFF7C5
:10106000B2FE00224FF400710448FFF7ACFE0022EC
:101070004FF480710148FFF7A6FE10BD000C01403F
:1010800010B500224FF400710648FFF79CFE0122C4
:1010900011020448FFF797FE012251020148FFF7B1
:1010A00092FE10BD000C014070B5002406E0002542
:1010B00000E06D1CB5F57A7FFBD3641CB4F57A7F34
:1010C000F5D3FFF771FFAE2000F0D0F8D52000F087
:1010D000CDF8802000F0CAF8A82000F0C7F83F2023
:1010E00000F0C4F8D32000F0C1F8002000F0BEF8F2
:1010F000402000F0BBF8A12000F0B8F8C82000F0B4
:10110000B5F8DA2000F0B2F8122000F0AFF8812034
:1011100000F0ACF8CF2000F0A9F8D92000F0A6F834
:10112000F12000F0A3F8DB2000F0A0F8302000F060
:101130009DF8A42000F09AF8A62000F097F88D20E2
:1011400000F094F8142000F091F8AF2000F08EF831
:10115000FFF714FF70BD10B50246012000E05043B8
:101160000B1EA1F10101FAD110BD70B505460C4668
:1011700045F0B00000F07AF8102141EA141000F0B8
:1011800075F804F00F0000F071F870BD2DE9F04122
:1011900005460E461746721ED206110E6A1E5206EC
:1011A000100EFFF7E2FF002409E0A7F12001134A27
:1011B00002EB0111085D00F069F8601CC4B2082C54
:1011C000F3DB721ED206110E6A1E012303EB4202EC
:1011D000D0B2FFF7CAFF00240BE0A7F12001074AB5
:1011E00002EB011204F10801505C00F04FF8601CA2
:1011F000C4B2082CF1DBBDE8F08100009045000886
:101200002DE9F04780460E4617461D46002415E09E
:10121000281B411E0A20FFF79EFFB7FBF0F00A21B2
:10122000B0FBF1F201FB120000F130093019C1B23C
:101230004A464046FFF7AAFF601CC4B2AC42E7DB57
:10124000BDE8F0872DE9F04107460E46154600241B
:1012500007E02A5D3019C1B23846FFF797FF601CDE
:10126000C4B2285D0028F4D1BDE8F08110B5044671
:10127000FFF7ECFE7820FFF7BFFE0020FFF7BCFE73
:101280002046FFF7B9FEFFF7FBFE10BD10B5044680
:10129000FFF7DCFE7820FFF7AFFE4020FFF7ACFE43
:1012A0002046FFF7A9FEFFF7EBFE10BD00B589B0A1
:1012B0000121084600F00CF90121042000F018F982
:1012C00018208DF8230003208DF822000120ADF8AE
:1012D000200008A93A48FFF7D5FC4FF0804000F005
:1012E00083FA0020ADF81A00ADF8160044F61F602E
:1012F000ADF818004720ADF8140000208DF81C0050
:1013000005A94FF0804000F021FB01A800F010FB80
:101310006020ADF804000020ADF80C000120ADF80D
:1013200006000020ADF80A0001A94FF0804000F04F
:1013300061FA0121880700F031FA0121042000F050
:10134000C7F80121082000F0D3F818208DF82300F9
:1013500003208DF822008020ADF8200008A919484C
:10136000FFF790FC184800F03FFA0020ADF81A0093
:10137000ADF816006320ADF818004720ADF8140052
:1013800000208DF81C0005A90F4800F0DFFA01A825
:1013900000F0CEFA6020ADF804000020ADF80C009B
:1013A0000120ADF806000020ADF80A0001A90648AA
:1013B00000F06CFA0121044800F0F0F909B000BD1A
:1013C00000080140000C01400008004010B5044630
:1013D00021464FF0804000F0B5FA10BD10B504462C
:1013E0002146024800F0B0FA10BD0000000800409D
:1013F0007047000070B50024002607E00D484088C3
:1014000004440520FFF71BFC701CC6B2142EF5DB4C
:101410001420B4FBF0F408480088201A64214843E3
:1014200006490988044A1288891AB0FBF1F085B28E
:10143000284670BD1800002014000020160000206F
:1014400008B50121082000F053F810208DF80300A2
:101450008001ADF8000003208DF8020069460348C2
:10146000FFF710FC00F004F808BD0000000C01407C
:1014700010B54FF480610248FFF7A1FC10BD0000D9
:10148000000C014010B54FF480610248FFF799FC51
:1014900010BD0000000C014001460020034A5068C6
:1014A00020F44040084350607047000000100240A4
:1014B00029B1064A52690243044B5A6104E0034AC7
:1014C00052698243014B5A6170470000001002408C
:1014D00029B1064AD2690243044BDA6104E0034AA7
:1014E000D2698243014BDA6170470000001002406C
:1014F00029B1064A92690243044B9A6104E0034A07
:1015000092698243014B9A617047000000100240CB
:1015100030B500210022002400232D4D6D6805F018
:101520000C0121B1042905D0082923D105E0294D5A
:10153000056022E0274D05601FE0254D6D6805F42C
:101540007012234D6D6805F48034022505EB92423C
:101550001CB9214D554305600BE01D4D6D6805F428
:1015600000351DB11C4D5543056002E0194D554332
:10157000056002E0174D056000BF00BF144D6D68A7
:1015800005F0F0010909154D6B5C0568DD4045600B
:101590000F4D6D6805F4E061090A104D6B5C4568FC
:1015A000DD4085600A4D6D6805F46051C90A0B4D38
:1015B0006B5C4568DD40C560054D6D6805F44041D4
:1015C000890B074D6B5CC568B5FBF3F5056130BD54
:1015D0000010024000127A0000093D0000000020C7
:1015E00010000020704700002DE9F04104460A4930
:1015F0002046FEF745FE80460849FEF70FFE0746E7
:101600000749FEF7B3FD0646FEF7F8FE85B2284609
:10161000FFF7DCFEBDE8F081000034430000FA442F
:101620000000FA4310B500F001F810BD0CB5002021
:10163000019000903348006840F4803031490860E0
:1016400000BF3048006800F4003000900198401C52
:101650000190009818B90198B0F5A06FF1D1294810
:10166000006800F4003010B10120009001E000207B
:1016700000900098012843D12348006840F01000F2
:10168000214908600846006820F003000860084609
:10169000006840F0020008601A4840681949486034
:1016A0000846406848600846406840F480604860EA
:1016B0000846406820F47C1048600846406840F4C2
:1016C000E81048600846006840F08070086000BF7D
:1016D0000C48006800F000700028F9D00948406804
:1016E00020F00300074948600846406840F00200C7
:1016F000486000BF0348406800F00C000828F9D19A
:101700000CBD0000001002400020024070470000A5
:1017100010B51348006840F0010011490860084600
:101720004068104908400E494860084600680E4964
:1017300008400B4908600846006820F480200860D3
:101740000846406820F4FE0048604FF41F0088609F
:10175000FFF768FF4FF000600449086010BD00000B
:10176000001002400000FFF8FFFFF6FE08ED00E069
:1017700010B50121054800F01DF828B101210348EA
:1017800000F009F802F058F810BD00000004004015
:10179000CA4302827047CA430282704721B102885D
:1017A00042F00102028004E002884FF6FE731A4004
:1017B0000280704730B50246002000230024158ABD
:1017C00005EA0103958905EA010413B10CB1012072
:1017D00000E0002030BD1AB183890B43838102E011
:1017E00083898B438381704701894FF6F8721140DA
:1017F0000181704770B5002400220023058C4FF64C
:10180000FE7635400584028C8388048B4FF68F75F5
:101810002C40B51E2C400D882C43751E2A400D8986
:101820002A434D882A43144DA8420BD0134DA84299
:1018300008D0134DA84205D0124DA84202D0124D37
:10184000A84213D14FF6F7752A404D892A434FF627
:10185000FB752A408D882A434FF6FF652B404FF6D3
:10186000FF552B408D892B43CD892B4383800483E7
:10187000CD888586028470BD002C01400034014073
:1018800000400140004401400048014070B5002480
:1018900000220023058C4FF6EF7635400584028C3C
:1018A0008388048B48F6FF752C404FF6FF452C408B
:1018B0000D884FF6FF7606EA05252C434FF6DF75B7
:1018C0002A400D8906EA05152A434D8806EA0515C2
:1018D0002A43154DA84202D0144DA8421DD14FF6FF
:1018E0007F752A404D894FF6FF7606EA05152A4393
:1018F0004FF6BF752A408D8806EA05152A434FF634
:10190000FF352B404FF2FF752B408D8906EA850588
:101910002B43CD8906EA85052B4383800483CD883C
:101920000587028470BD0000002C01400034014096
:101930000021018041808180C180018141818181BC
:10194000C1817047818670470187704700220288F5
:101950001D4B98420ED01D4B98420BD0B0F1804FDA
:1019600008D01B4B984205D01A4B984202D01A4B14
:10197000984204D14FF68F731A404B881A43174B85
:10198000984207D0164B984204D04FF6FF431A40B6
:10199000CB881A4302808B8883850B8803850A4B8A
:1019A00098420BD0094B984208D00E4B984205D074
:1019B0000D4B984202D00D4B984201D10B7A038611
:1019C0000123838270470000002C01400034014055
:1019D0000004004000080040000C004000100040DF
:1019E0000014004000400140004401400048014014
:1019F0007FB505460C464FF4A060FFF7B5FA1D20F1
:101A00008DF80C0001208DF80F0000208DF80D00DE
:101A100003208DF80E0003A8FFF76EFA01210220C3
:101A2000FFF756FD0020ADF80600ADF80200ADF856
:101A30000450ADF800408DF8080069460848FFF7EB
:101A400085FF01210648FFF7A3FE01221146044845
:101A5000FFF7C1FE01210248FFF7A0FE7FBD000095
:101A60000004004000B585B001218803FFF740FD68
:101A700001210420FFF73CFD18208DF813004FF4DE
:101A80000070ADF8100003208DF8120004A915486D
:101A9000FFF7F8F804208DF813000002ADF81000ED
:101AA00003208DF8120004A90E48FFF7EBF84FF45D
:101AB000E13000900020ADF80C000C20ADF80A00D9
:101AC0000020ADF80800ADF80600ADF80400694646
:101AD000054800F00DF90121034800F0A0F805B019
:101AE00000BD0000000801400038014000B587B08B
:101AF00001210420FFF7FCFC18208DF81B000420B6
:101B0000ADF8180003208DF81A0006A91F48FFF74A
:101B1000B9F804208DF81B000820ADF8180006A9BC
:101B20001A48FFF7AFF826208DF8140001208DF831
:101B3000170000208DF8150002208DF8160005A86A
:101B4000FFF7DAF901214804FFF7C2FC4FF4165001
:101B500001900020ADF810000C20ADF80E00002020
:101B6000ADF80C00ADF80A00ADF8080001A908486E
:101B700000F0BEF8012240F22551054800F092F82D
:101B80000121034800F04BF807B000BD00080140F8
:101B90000044004008B540F22551124800F058F8C2
:101BA000F8B140F225510F4800F02AF80D4800F036
:101BB0000BF9C0B200900C480078401C0A4908702C
:101BC000084600780A2190FBF1F201FB120020B9CF
:101BD0009DF8001005A000F029F90121684601F0E8
:101BE00077FD08BD00440040230000205B455350B2
:101BF0002D3E52585D20253032580D0A000000005D
:101C000010B50022002340F66A14A14200D100BFA3
:101C10000A1201249440A3B2DC43048010BD21B118
:101C2000828942F40052828104E082894DF6FF737A
:101C30001A408281704702460020B1F5007F00D132
:101C400000BF13880B400BB1012000E0002070475B
:101C500070B50246002400230025002040F66A16D5
:101C6000B14200D100BFC1F3421501F01F030126AC
:101C700006FA03F3012D02D19689334006E0022DC6
:101C800002D1168A334001E0968A33400C120126B5
:101C900006FA04F41688344013B10CB1012000E0B8
:101CA000002070BDF0B5034600240026002500206A
:101CB00040F66A17B94200D100BF1846C1F342147A
:101CC00001F01F06012707FA06F5012C01D10C309F
:101CD00004E0022C01D1103000E014301AB1076882
:101CE0002F43076002E00768AF430760F0BD0000C4
:101CF0002DE9F04786B005460E460024A24600BFF7
:101D0000A1460027B08900B100BF2F462C8A4CF6AF
:101D1000FF700440F08804432C82AC894EF6F31027
:101D20000440B08831890843718908430443AC8179
:101D3000AC8A4FF6FF400440B0890443AC8201A84E
:101D4000FFF7E6FB1F48874202D1DDF810A001E053
:101D5000DDF80CA0A88900F4004040B10AEBCA00ED
:101D600000EB0A1031684900B0FBF1F807E00AEB1C
:101D7000CA0000EB0A1031688900B0FBF1F864205A
:101D8000B8FBF0F004012009642101FB1089A88947
:101D900000F4004040B1322000EBC900B0FBF1F08C
:101DA00000F00700044308E0322000EB0910642132
:101DB000B0FBF1F000F00F0004432C8106B0BDE849
:101DC000F08700000038014001468888C0F3080011
:101DD0007047C1F308028280704700BFFEE7000031
:101DE00070B50024002607E00D4800880444052053
:101DF000FEF725FF701CC6B20A2EF5DB0A20B4FBE5
:101E0000F0F408480088201A6421484306490988EC
:101E1000044A1288891AB0FBF1F085B2284670BDD9
:101E20001800002014000020160000200FB4054BFD
:101E300010B503A9044A029800F018F810BC5DF828
:101E400014FB0000052300084C00002002E008C835
:101E5000121F08C1002AFAD170477047002001E024
:101E600001C1121F002AFBD1704700002DE9FF4F6E
:101E70008DB00F460546002606E025280BD0DDE98B
:101E80000F1290476D1C761C28780028F5D111B0F0
:101E90003046BDE8F08F0024A246A1460122EC495D
:101EA00000E0044315F8013F203B02FA03F008422A
:101EB000F7D128782A2810D06FF02F022878A0F1C7
:101EC0003001092914D80AEB8A0102EB410144F0E0
:101ED000020400EB010A6D1CF0E701CF5FEA000A83
:101EE00003D544F40054CAF1000A44F002046D1C06
:101EF00028782E2817D115F8010F44F004042A2859
:101F00000ED06FF02F022878A0F1300109290AD8ED
:101F100009EB890102EB410100EB01096D1CF2E7BD
:101F200057F8049B6D1C28786C280FD006DC4C28D1
:101F300017D068280DD06A2814D104E0742810D076
:101F40007A280FD10DE044F400140AE044F4801420
:101F500001E044F440146978814202D104F5801410
:101F60006D1C6D1C2A786E2A1FD00CDC632A31D0C0
:101F700004DC002A8BD0582A11D1A3E0642A68D04F
:101F8000692A0CD165E0732A2ED004DC6F2A73D045
:101F9000702A04D19BE0752A6FD0782A6ED0104643
:101FA000DDE90F129047761C50E1C4F3025002287D
:101FB00006D0032809D0042801CF09D0066045E1E6
:101FC00001CFF117C0E9006140E101CF06803DE19A
:101FD00006703BE117F8040B8DF8000000208DF827
:101FE0000100EB46012003E057F804BB4FF0FF303F
:101FF00061074FF0000102D40DE008F101018846AD
:1020000049450FDA8045F8DB1BF808100029F4D1A8
:1020100008E008F1010188468142FADB1BF808104C
:102020000029F6D1DDE90F23AAEB080081462146FD
:1020300000F036F9304400EB080604E0DDE90F1249
:102040001BF8010B9047B8F10108F7D2214648462A
:10205000F7E00A21C4F302534FF0000B0891022B62
:1020600004D001CFC117032B09D00AE0FF1D27F0D0
:102070000707F7E8020108E032E01FE020E000B2C5
:10208000C117042B01D140B2C117031E71F1000327
:1020900007DA4FF0000CD0EB0C006CEB01012D23A4
:1020A00002E0230504D52B238DF82430012303E01F
:1020B000E30701D02023F7E7984658E00A2110E013
:1020C00010210EE010204FF0000B08900CE01021C2
:1020D0004FF0000B44F004044FF00809089103E0AE
:1020E00008214FF0000B0891C4F30253022B04D0D7
:1020F00001CF0021032B06D006E0FF1D27F00707C4
:10210000F7E8020103E080B2042B00D1C0B24FF027
:10211000000823072BD5702A07D0DDF820C08CF0EB
:10212000100C5CEA0B0C05D00EE040238DF8243037
:10213000012308E050EA010306D030238DF8243053
:102140008DF8252002239846DDF820C08CF0080C7D
:102150005CEA0B0C0BD150EA010301D1630706D5F1
:1021600030238DF824304FF00108A9F10109582AD5
:1021700004D038A20B9208AA0A920BE03AA2F9E71F
:102180005B46089AFEF780F90B9B9B5C0A9A521EED
:102190000A92137050EA0102F2D10A98ADEB0000E6
:1021A00000F1200B600702D524F4803401E04FF0E9
:1021B0000109D94502DDA9EB0B0000E0002000EB8E
:1021C0000B0141440890AAEB010AE00306D4DDE9C3
:1021D0000F232146504600F063F806444FF00009F3
:1021E00008E009A911F80900DDE90F12904709F18B
:1021F0000109761CC145F4DBE0030CD5DDE90F23B2
:102200002146504600F04CF8064404E0DDE90F1288
:1022100030209047761C0899481E08900029F5DC6C
:1022200008E00A980A990078491C0A91DDE90F1222
:102230009047761CBBF10001ABF1010BF1DC2146AC
:102240005046DDE90F2300F019F806446D1C1BE62B
:10225000092801003031323334353637383961627C
:102260006364656600000000303132333435363740
:102270003839414243444546000000002DE9F04111
:10228000044600251E461746880404D405E0394656
:102290002020B0476D1C641EF9D52846BDE8F081AA
:1022A0002DE9F041044600251E469046C80301D59D
:1022B000302700E02027880404D505E04146384651
:1022C000B0476D1C641EF9D52846BDE8F08101B504
:1022D00081B000200090694601AA507808701078FB
:1022E0004870BDF800000CBD0146080601F47F42AD
:1022F00040EA022001F47F0240EA122040EA116025
:102300007047000070B504460D46E1B20548FFF77E
:1023100060FD00BF0348008800F080000028F9D06D
:10232000204670BD0038014010B5002821D0114B67
:102330000022001F196803E0814203D80A46496859
:102340000029F9D152B11368841A9C4204D1006863
:1023500018441060104602E0506000E0186039B187
:1023600002680B1A934203D10B681A440260496851
:10237000416010BD50000020024612B102F007007B
:1023800028B9082901D8002070470120FCE702F095
:102390000700C0F10800884201D30020F4E70120C3
:1023A000F2E730B502460B460021002400250AB9A9
:1023B000481E30BD002108E0545C581A401E155CD0
:1023C0005554581A401E1454491CB1EB530FF3D303
:1023D0000020EEE72DE9F04104460D4600260027D7
:1023E00004B135B933A0FFF721FD4FF0FF30BDE850
:1023F000F08100F0B5F907462878217888420CD0A2
:1024000036A0FFF713FD3B4890F8020120F00100D1
:10241000401C384981F802010126687861788842B9
:102420000CD035A0FFF702FD324890F8020120F0F1
:102430000200801C2F4981F802010126D5F8020014
:10244000D4F80210884213D030480068381A41F29C
:10245000707188420CD32EA0FFF7E8FC254890F855
:10246000020120F00400001D224981F8020101262A
:10247000D5F80600D4F80610884213D02348006827
:10248000381A41F2707188420CD326A0FFF7CEFCB7
:10249000184890F8020120F008000830154981F82A
:1024A00002010126012E03D100F05AF917490860F4
:1024B00030469CE767697A436865636B5265706F65
:1024C0007274204572726F72202C20496C6C6567A3
:1024D000616C20506172616D0A00000076616C755C
:1024E0006562757A7A6572204368616E6765640A11
:1024F000000000006000002076616C75656C65640A
:10250000204368616E6765640A0000003C0000209B
:1025100076616C756574656D70204368616E676582
:10252000640A000076616C756577617465725F6C32
:102530006576656C204368616E6765640A0000001B
:102540002DE9FC4706460F4690464FF0000900254E
:102550000024002000903B4890F802018DF8000014
:10256000641C06B137B938A0FFF760FC4FF0FF30AC
:10257000BDE8FC87334890F8020100F0010038B153
:1025800033780DEB04020121284601F05DF96D1C42
:102590002C4890F80201C0F3400038B173780DEB7D
:1025A00004020121284601F04FF96D1C15B94FF0C6
:1025B000000908E005F0070010B94FEAD50902E06C
:1025C000012000EBD509B9F1010F04D90DEB04008E
:1025D0004946FFF7E6FE4C441A4890F80201C0F362
:1025E000800068B1D6F802200021012001F06AF9CC
:1025F000C0B28DF805009DF805100DF80410641C9C
:10260000104890F80201C0F3C00068B1D6F8062067
:102610000021012001F056F9C0B28DF806009DF8A6
:1026200006100DF80410641C0648002180F8021101
:10263000C8F8004069463846D8F80020FDF772FD1A
:10264000002095E76000002067697A44617461505A
:102650006F696E7473325265706F72744461746125
:10266000204572726F72202C20496C6C6567616C1A
:1026700020506172616D0A0070B5044600F070F878
:102680000546002626492046FFF7A4FE012818D15A
:1026900024A0FFF7CBFB224A0E3A511F2046FFF73A
:1026A0004FFF38B9254800F20311D0F80821142053
:1026B00001F048F81A482168016061684160218989
:1026C00001811F48B5FBF0F100FB115020BB1D48F4
:1026D0000068A84220D01CA0FFF7A8FBFF22012120
:1026E0000F481438FDF730FD0D4A0E3A511F2046B1
:1026F000FFF726FF38B9114800F20311D0F808217E
:10270000142001F01FF806482168016061684160EB
:10271000218901810B4805603046FFF705FE70BD39
:10272000760100206368616E6765642C20726570B5
:102730006F727420646174610A0000006000002000
:10274000C027090040000020496E666F3A203630ED
:102750003053207265706F727420646174610A0076
:1027600001480068704700003800002010B5174885
:1027700090F87D00012827D1144890F87C000228A9
:102780001DDAFFF7EDFF1149D1F8B610401AC8283D
:102790001AD9FFF7E5FF04460C4890F87C30D0F8D2
:1027A000B62021460AA0FFF741FB00F0E9FE0748EA
:1027B00090F87C00401C054981F87C0004E03E2133
:1027C00002487C30FDF7C7FC10BD0000600000200F
:1027D0005761726E696E673A67697A50726F746F8B
:1027E000636F6C526573656E644461746120256427
:1027F0002025642025640A003EB50446002524B93E
:1028000013A0FFF713FB681E3EBD206800906068B0
:1028100001909DF80400401CC0B28DF80400052012
:10282000FFF755FDADF802000921684600F0E6FE0D
:102830008DF808000921684601F05AFE0546002D72
:1028400003DA29460DA0FFF7F1FA2846DCE700007D
:102850004552523A2067697A50726F746F636F6C99
:10286000436F6D6D6F6E41636B20646174612069AD
:102870007320656D707479200A0000004552523A49
:102880002075617274207772697465206572726F49
:1028900072202564200A0000FEB504460E4600257D
:1028A00024B914A0FFF7C2FA681EFEBD684600F006
:1028B00001FA12208DF8040060798DF805000620D9
:1028C000FFF705FDADF802008DF808600A216846A3
:1028D00000F094FE8DF809000A21684601F008FE18
:1028E0000546002D03DA29460DA0FFF79FFA28467A
:1028F000DBE7000067697A50726F746F636F6C4535
:1029000072726F72436D64204572726F72202C2058
:10291000496C6C6567616C20506172616D0A0000E2
:102920004552523A2075617274207772697465203D
:102930006572726F72202564200A000030B59DB068
:10294000044600252CB92BA0FFF770FA681E1DB0B5
:1029500030BD684600F0AEF902208DF804006079C1
:102960008DF805002FA103C9CDE9020130A103C9EB
:10297000CDE9040131A103C9CDE9080132A103C9A0
:10298000CDE90601202233A10AA8FDF7CBFB2022C6
:1029900039A10DF15200FDF7C5FB0020CDF84A002A
:1029A000CDF84E009DF851008DF851009DF8510072
:1029B00040F002018DF851100020FFF788FCADF8BF
:1029C00048006F20FFF783FCADF8020073216846D2
:1029D00000F014FE8DF872007321684601F088FD46
:1029E0000546002D03DA29462CA0FFF71FFA2846DA
:1029F000ADE7000067697A50726F746F636F6C4760
:102A00006574446576696365496E666F20457272C8
:102A10006F72202C20496C6C6567616C205061726C
:102A2000616D0A003030303030303034000000004A
:102A3000303030303030303200000000303330334E
:102A40003030303000000000303330313031303041
:102A500000000000313331346664326134626165F4
:102A6000346164306261343333643431356331331B
:102A700064663137000000006338363865633135ED
:102A800036373761346539376136636665383933CF
:102A90003331313939373662000000004552523A3D
:102AA0002075617274207772697465206572726F27
:102AB00072202564200A00002DE9FE4F80460E4654
:102AC00017464FF0000B00200290814682460025F9
:102AD00034460090B8F1000F01D006B137B955A0C7
:102AE000FFF7A4F94FF0FF30BDE8FE8F404601F03C
:102AF00023FC1FFA80FABAF1000F02D14FF0FF3029
:102B0000F2E74FF0000969E0012201A9404601F017
:102B100050FC8346BBF1000F5ED052480078FF287E
:102B20001FD19DF80400FF281BD14F48007848B9F9
:102B3000FF202070607002204C49088001204A4923
:102B4000087040E04948008804283CDD4748008878
:102B5000A84238D0FF2020706070022043490880CE
:102B600031E040480078FF2803D19DF80400552843
:102B700029D03D480078012825D19DF804003B4923
:102B80000988605439480088401C38490880084644
:102B90000088042817DD0094009C6088FFF797FBED
:102BA000001D85B2362D01D2042D07DC00202E49F0
:102BB00008702E4908802EA0FFF738F92B480088AE
:102BC000A84200D10CE09DF804002649087038485E
:102BD0000078401C3649087009F10109D14593DBA2
:102BE00000BF22480088042822DD20480088A8422F
:102BF0001ED11E480188204600F000FD02901B48AF
:102C00000088401E215C029881420AD13D8000204C
:102C10001549087015490880254908701149087040
:102C200062E700201049087010490880801E5BE7A9
:102C3000012059E767697A50726F746F636F6C4750
:102C400065744F6E655061636B6574204572726F79
:102C500072202C20496C6C6567616C205061726138
:102C60006D0A0000480000204400002046000020BB
:102C70004552523A7468652064617461206C656ED7
:102C800067746820697320746F6F206C6F6E6720A3
:102C90006F7220746F6F20736D616C6C2C2077697C
:102CA0006C6C206162616E646F6E200A000000002F
:102CB0004900002010B504462CB907A0FFF7B6F86C
:102CC0004FF0FF3010BD002020606060FF202070BA
:102CD00060700020F6E700004552523A2067697A9A
:102CE00050726F746F636F6C48656164496E69748C
:102CF000206865616420697320656D707479200AAD
:102D0000000000002DE9F04F9DB006468B461746A7
:102D1000994600201C9082468046002501ACBBF1FC
:102D2000000F06D131A0FFF781F8681E1DB0BDE885
:102D3000F08FB9F1010F06D196F8088008F106006E
:102D4000384485B201E0781D85B22B4642463946AB
:102D50002CA0FFF76BF8FF2004F8010B04F8010B1F
:102D6000281204F8010B04F8015B3079401C04F8C8
:102D7000010B707904F8010B002004F8010B04F832
:102D8000019B4FF0080AB9F1010F0DD104F8018B36
:102D90000AF1010A01A901EB0A00424606F1090104
:102DA000FDF7C0F9C244444437B101A901EB0A0060
:102DB0003A465946FDF7B6F9291D01A800F01EFC58
:102DC0000146E81C01AA1154291D01A801F090FB3D
:102DD0001C901C98002806DA14A01C99FFF726F80E
:102DE0006FF00100A2E70020A0E700005B4552520F
:102DF0005D202064617461204973204E756C6C20E5
:102E00000A0000006C656E203D202564202C207394
:102E10004469644C656E203D202564202C646174F7
:102E2000615F6C656E203D2025640A0075617274D7
:102E3000207772697465206572726F722025642034
:102E40000A0000002DE9F04780460C4617461D4653
:102E5000089E94F800900CB105B136B930A0FEF789
:102E6000E5FF4FF0FF30BDE8F087B8F1000F54D117
:102E700012213748FDF76FF9B9F1050F2CD0B9F1E0
:102E8000110F03D0B9F1120F45D103E00025002046
:102E9000306041E02FA0FEF7C9FF2D48BA386178B5
:102EA00080F8021100F58472511F00F58B70FFF756
:102EB00047FB68B92648BA3800F20311D0F8082158
:102EC000681CFDF72FF9132028700520306002E000
:102ED0004FF0FF30C7E71FE07A1E611C1C488338A3
:102EE000FDF720F9781E1A49BA39086710211848E9
:102EF000BA3890F8BA20BB308154BB3890F8BA0089
:102F0000401C1349BA3981F8BA0003200870002523
:102F10000020306000E000BF00BF0020A3E70000F9
:102F200067697A50726F746F636F6C4973737565FC
:102F30006450726F63657373204572726F72202CD8
:102F400020496C6C6567616C20506172616D0A008C
:102F50001A010020414354494F4E5F454C4F4E47A4
:102F60004154455F524541445F4445565F53544187
:102F7000545553200A00000070B5044625462CB96C
:102F80000EA0FEF753FF4FF0FF3070BD412205F158
:102F900008010E48FDF7C6F80F210D4890F8F02003
:102FA000F1308154F13890F8F000401C084981F864
:102FB000F000052008700020E7E700004E54502084
:102FC000697320656D707479200A000090010020FB
:102FD0006000002010B504462CB9CAA0FEF726FFF9
:102FE0004FF0FF3010BD2089FFF771F92081D148E3
:102FF0000078C0F38000217AC1F38001884256D066
:10300000207AC0F38000002829D0207A00F0010047
:1030100078B10021C84890F8CC20CD308154CD380B
:1030200090F8CC00401CC44981F8CC00C3A0FEF746
:10303000FDFE207AC0F34000002838D00121BE48B0
:1030400090F8CC20CD308154CD3890F8CC00401C85
:10305000B94981F8CC00C1A0FEF7E8FE27E0207A4C
:1030600000F0010078B10021B34890F8CC20CD30B9
:103070008154CD3890F8CC00401CAF4981F8CC0089
:10308000AEA0FEF7D3FE207AC0F3400078B1022153
:10309000A94890F8CC20CD308154CD3890F8CC00A0
:1030A000401CA54981F8CC00B3A0FEF7BFFEA148A3
:1030B0000078C0F3C000217AC1F3C00188422CD04F
:1030C000207AC1089B48007861F3C30099490870D1
:1030D000207AC0F3C00080B10321974890F8CC203B
:1030E000CD308154CD3890F8CC00401C924981F805
:1030F000CC00A8A0FEF79AFE0FE004218E4890F8BD
:10310000CC20CD308154CD3890F8CC00401C8A4979
:1031100081F8CC00A7A0FEF789FE86480078C0F3AE
:103120000010217AC1F3001188422CD0207A0109C5
:103130008048007861F304107E490870207AC0F35B
:10314000001080B105217C4890F8CC20CD3081540E
:10315000CD3890F8CC00401C774981F8CC009DA078
:10316000FEF764FE0FE00621734890F8CC20CD30C6
:103170008154CD3890F8CC00401C6F4981F8CC00C8
:103180009CA0FEF753FE6B480078C0F34010217AF4
:10319000C1F3401188422CD0207A4109654800785B
:1031A00061F3451063490870207AC0F3401080B184
:1031B0000721614890F8CC20CD308154CD3890F86B
:1031C000CC00401C5C4981F8CC0093A0FEF72EFE99
:1031D0000FE00821584890F8CC20CD308154CD38EC
:1031E00090F8CC00401C544981F8CC0091A0FEF727
:1031F0001DFE50484078C0F3C001607AC0F3C000A3
:1032000081422CD0607AC1084A48407861F3C300FB
:1032100048494870607AC0F3C00080B10B2146482D
:1032200090F8CC20CD308154CD3890F8CC00401CA3
:10323000414981F8CC0087A0FEF7F8FD0FE00C2192
:103240003D4890F8CC20CD308154CD3890F8CC005A
:10325000401C394981F8CC0085A0FEF7E7FD3548D0
:103260004078C0F30011607AC0F3001081422CD086
:10327000607A01092F48407861F304102D494870A5
:10328000607AC0F3001080B109212B4890F8CC205F
:10329000CD308154CD3890F8CC00401C264981F8BF
:1032A000CC007BA0FEF7C2FD0FE00A21224890F877
:1032B000CC20CD308154CD3890F8CC00401C1E4934
:1032C00081F8CC0079A0FEF7B1FD0D211A4890F8E5
:1032D000CC20CD308154CD3890F8CC00401C16491C
:1032E00081F8CC00607A00F0070081F820010846E0
:1032F00090F8201174A0FEF799FD02200E49087085
:1033000000206FE667697A50726F746F636F6C4D5F
:103310006F64756C65537461747573204572726F58
:1033200072202C20496C6C6567616C205061726161
:103330006D0A00004A000020600000204F6E426FBE
:10334000617264696E673A20536F66744150206FF2
:103350007220576562206D6F64650A004F6E426F80
:10336000617264696E673A204169724C696E6B20C4
:103370006D6F64650A0000004F6E426F6172646990
:103380006E673A2053746174696F6E206D6F646567
:103390000A00000057694669207374617475733AB6
:1033A00020696E2062696E64696E67206D6F646566
:1033B0000A00000057694669207374617475733A96
:1033C000206F75742062696E64696E67206D6F642A
:1033D000650A000057694669207374617475733A11
:1033E00020636F6E6E656374656420726F757465BB
:1033F000720A000057694669207374617475733AE4
:1034000020646973636F6E6E656374656420726FA8
:10341000757465720A00000057694669207374610B
:103420007475733A20636F6E6E6563746564206DA6
:10343000326D0A0057694669207374617475733A76
:1034400020646973636F6E6E6563746564206D32AA
:103450006D0A000057694669207374617475733A88
:103460002061707020636F6E6E6563740A000000E7
:1034700057694669207374617475733A206E6F20C2
:1034800061707020636F6E6E6563740A00000000E7
:1034900057694669207374617475733A20696E20A8
:1034A00074657374206D6F64650A0000576946691E
:1034B000207374617475733A206F7574207465732A
:1034C00074206D6F64650A0052535349206973205C
:1034D0002564200A0000000070B5044625462CB97A
:1034E00019A0FEF7A3FC4FF0FF3070BD1B48A96880
:1034F0004162A9890185A97B80F82A10A0F5807016
:10350000D5F80F10C0F82C110146B1F82401FEF7D0
:10351000DEFE1349A1F82401D1F82C01FEF7E4FEE8
:103520000F49C1F82C010E210D4890F8DE20DF3044
:103530008154DF3890F8DE00401C094981F8DE0034
:10354000042008700020D0E74552523A204E5450D3
:1035500020697320656D707479200A006001002075
:103560006000002010B5FFF7FBF8044600BFFFF72E
:10357000F7F8001BB0F5167FF9D900F0C5FE10BDB5
:1035800010B500240E4890F87D0000B910BD0DA0C4
:10359000FEF74CFC0A48B0F8B4107E3000F0A8FFEB
:1035A00004460748B0F8B400A04202D00DA0FEF7D0
:1035B0003DFCFFF7D5F80249C1F8B60000BFE5E7CA
:1035C000600000205761726E696E673A2074696D01
:1035D000656F75742C20726573656E642064617408
:1035E00061200A004552523A20726573656E64206C
:1035F00064617461206572726F720A0010B50246D0
:103600000024002302B109B9002010BD022303E009
:10361000D05C2044C4B25B1C481E9842F8D82046B7
:10362000F3E7000070B504460D462CB90FA0FEF775
:10363000FDFB4FF0FF3070BD3E211248FCF78BFDC3
:103640002A4621460F48801CFCF76CFD0D487C384B
:10365000A0F8B450012180F87D10FFF781F80949E6
:103660007C39C1F8B6000020E5E700004552523A27
:10367000206461746120697320656D707479200A1B
:1036800000000000DC00002070B50446094D2CB994
:1036900009A0FEF7CBFB4FF0FF3070BD2879401C2E
:1036A0002179884204D13E210248801EFCF753FD57
:1036B0000020F2E7DE0000204552523A2064617497
:1036C0006120697320656D707479200A0000000024
:1036D00070B504460D46002624B90AA0FEF7A6FBE5
:1036E000701E70BD2A4621460E4800F0B3FE064605
:1036F000AE4205D00CA0FEF799FB4FF0FF30F0E78B
:103700003046EEE74552523A2067697A5075744464
:103710006174612062756620697320656D707479CB
:10372000200A0000D40100204552523A2046616927
:103730006C656420746F2072625772697465200A28
:10374000000000002DE9F0438FB006460F4690467A
:103750004FF0000901AC08F1060085B23FB924A082
:10376000FEF764FB4FF0FF300FB0BDE8F083FF20A1
:1037700004F8010B04F8010B281204F8010B04F8FB
:10378000015B052004F8010B234890F87410406F8A
:10379000401C214A506704F8011B002004F8010B6B
:1037A00004F8010B04F8016B424639460DF10D0097
:1037B000FCF7B8FC291D01A8FFF720FF0146E81C13
:1037C00001AA1154291D01A800F092FE8146B9F109
:1037D000000F06DA494611A0FEF728FB6FF0010042
:1037E000C2E7291D01A8FFF71DFF0020BCE700006C
:1037F00067697A5265706F727444617461204572B2
:10380000726F72202C20496C6C6567616C2050616E
:1038100072616D0A00000000600000204552523ABB
:103820002075617274207772697465206572726F99
:1038300072202564200A000002480068401C0149EB
:1038400008607047380000202DE9F047054688469B
:1038500014461E464FF00009CA460027002314B93B
:10386000581EBDE8F087EB0841462846FEF784FD68
:1038700007463FB9E05C05F0070106FA01F108438D
:10388000E0541DE0012F1BD1F0B205F00701C1F19A
:10389000080140FA01F905F00700C0F10801FF2016
:1038A000084100EA060A581C205C40EA0900591C3D
:1038B0006054E05C05F007010AFA01F10843E054A6
:1038C0000020CEE710B503460020541AB4FBF3F0F5
:1038D00010BD00002DE9FF5F06460D469346002708
:1038E000A846A9462C46AA4606B125B94FF0FF3096
:1038F00004B0BDE8F09F00273EE0701CC05D1128B9
:1039000036D2DFE800F0090A0B35350C0D0E0F3505
:10391000353535101A2916002BE02AE029E028E079
:1039200027E026E025E099F8001016A0FEF77EFAC1
:103930001FE017A0FEF77AFA1BE0A17962792379DC
:10394000A068CDE90032CDE90210E378A2782188A1
:1039500014A0FEF76BFA0CE01DA0FEF767FA21A099
:10396000FEF764FA9AF8001022A0FEF75FFA00E072
:1039700000BF00BF781CC7B23078B842BDDC002061
:10398000B6E70000525353492025640A00000000A6
:103990005452414E53504152454E545F444154415C
:1039A000200A0000574946495F4E5450203A205B98
:1039B00025642D25642D256420253032643A253078
:1039C00032643A253032645D5B25645D200A000074
:1039D0004D4F44554C4520494E464F202E2E2E0A21
:1039E00000000000574946204D4F44554C45202EBD
:1039F0002E2E0A006D6F64756C6554797065203ADF
:103A0000205B25645D200A002DE9F0419EB005464B
:103A1000002600200290019000248046002735B93E
:103A200082A0FEF703FA601E1EB0BDE8F081FEF72B
:103A30009DFE02AA87498848FFF73EF80646002EF9
:103A400071D186A0FEF7F2F9824C20790F284FD071
:103A50000ADC0E2873D2DFE800F07216721A727256
:103A6000433872724472453C182852D006DC112843
:103A700047D0142846D0162861D134E0222854D0EB
:103A80002A285CD130E02046FEF758FF5FE0E2795B
:103A9000A17977A0FEF7CAF901A8009007F1090003
:103AA000BDF808301A1A6B480830C11903AB4046FC
:103AB000FFF7C8F940B9E37903A92046019AFFF757
:103AC00021F96FA0FEF7B2F941E02046FEF794FE1F
:103AD0003DE02046FEF790FE2046FFF77BFA36E0F9
:103AE00000BF00BF00BF00BF2046FFF7CDFD2EE0A6
:103AF0002046FEF781FE65A0FEF798F9FFF732FD3C
:103B000025E024E02046FFF7BFFD65A0FEF78EF913
:103B10001DE02046FFF7B8FD2046FFF7DDFC68A05A
:103B2000FEF784F913E013E009E02046FFF7ACFD4F
:103B30002046FFF721FA68A0FEF778F907E0022196
:103B40002046FEF7A9FE6BA0FEF770F900BF0DE05E
:103B500016F1020F0AD13F4C01212046FEF79CFED0
:103B60006AA0FEF763F96FF001005DE73948401E77
:103B70000078062853D2DFE800F0520314253041C4
:103B800000203449491E08700A2201F58671A1F10E
:103B90005200FFF79FFE12212E48B930FCF7DBFAE6
:103BA0003EE000202B49491E0870012201F590716A
:103BB000A1F15400FFF78EFE12212648CB30FCF70E
:103BC000CAFA2DE000202349491E08700846373103
:103BD000026FBA30FFF77EFE22E000201D49491E29
:103BE00008700C2201F59271A1F14600FFF772FEF8
:103BF00012211848DD30FCF7AEFA11E0002015491B
:103C0000491E0870412201F59871A1F14000FFF7AB
:103C100061FE41210F48EF30FCF79DFA00E000BF44
:103C200000BF2846FEF728FD0020FDE647697A77A9
:103C300069747348616E646C65204572726F72209E
:103C40002C20496C6C6567616C20506172616D0A53
:103C50000000000061000020D401002047657420AE
:103C60004F6E65205061636B6574210A000000008F
:103C7000666C6167202578202578200A0000000006
:103C800041636B44617461203A200A007265706F71
:103C900072743A4D4355207265626F6F74210A0049
:103CA00041636B2050524F44554354494F4E5F4D32
:103CB0004F44452073756363657373200A000000E9
:103CC00041636B204745545F5554542073756363BB
:103CD000657373200A00000041636B204745545F01
:103CE0004D6F64756C652073756363657373200A2B
:103CF000000000004552523A20636D6420636F64F7
:103D000065206572726F72210A0000004552523AB6
:103D100020636865636B2073756D206572726F72C6
:103D2000210A000010B56C200A4908600A48C860E2
:103D3000084600F033FB18B908A0FEF777F802E058
:103D40000BA0FEF773F84FF4BA710E48FCF703FAB4
:103D500010BD0000D4010020E40100207262437213
:103D6000656174652053756363657373200A000091
:103D70007262437265617465204661696C64200AF1
:103D8000000000006000002030B587B00546002428
:103D9000062D7CD2DFE805F0032E5B8AB5E001A892
:103DA000FEF788FF0B208DF80800854890F8741006
:103DB000406F401C824A5067C8B28DF80900052048
:103DC000FEF785FAADF80600092101A8FFF716FCF9
:103DD0008DF80C00092101A800F08AFB0446002C94
:103DE00003DA214677A0FEF721F8092101A8FFF7A1
:103DF00019FCE0E004A8FEF75DFF09208DF814002F
:103E00006F4890F87410406F401C6D4A5067C8B2FC
:103E10008DF815008DF818500620FEF758FAADF809
:103E200012000A2104A8FFF7E9FB8DF819000A2106
:103E300004A800F05DFB0446002C03DA214661A0D3
:103E4000FDF7F4FF0A2104A8FFF7ECFBB3E004A898
:103E5000FEF730FF09208DF81400594890F87410CF
:103E6000406F401C564A5067C8B28DF815008DF857
:103E700018500620FEF72BFAADF812000A2104A80C
:103E8000FFF7BCFB8DF819000A2104A800E08EE0C2
:103E900000F02EFB0446002C03DA214649A0FDF772
:103EA000C5FF0A2104A8FFF7BDFB84E001A8FEF7C7
:103EB00001FF13208DF80800414890F87410406FFE
:103EC000401C3F4A5067C8B28DF809000520FEF734
:103ED000FEF9ADF80600092101A8FFF78FFB8DF868
:103EE0000C00092101A800F003FB0446002C03DAB2
:103EF000214634A0FDF79AFF092101A8FFF792FBA4
:103F000059E001A8FEF7D6FE15208DF808002C48D0
:103F100090F87410406F401C294A5067C8B28DF861
:103F200009000520FEF7D3F9ADF80600092101A824
:103F3000FFF764FB8DF80C00092101A800F0D8FA06
:103F40000446002C03DA21461EA0FDF76FFF09216D
:103F500001A8FFF767FB2EE001A8FEF7ABFE2920C2
:103F60008DF80800164890F87410406F401C144AF1
:103F70005067C8B28DF809000520FEF7A8F9ADF822
:103F80000600092101A8FFF739FB8DF80C00092173
:103F900001A800F0ADFA0446002C03DA214609A07E
:103FA000FDF744FF092101A8FFF73CFB03E00CA04B
:103FB000FDF73CFF00BF00BF204607B030BD00004A
:103FC000600000204552523A207561727420777269
:103FD000697465206572726F72202564200A000082
:103FE0004552523A204366674D6F64652065727290
:103FF0006F72210A00000000FDF756F8FDF756F930
:10400000FCF7FEFBFCF756FDFCF714FFFCF782FC07
:10401000FDF716FAFDF726FDFDF768FD472140F292
:10402000E730FDF7E5FC8AA0FDF700FF8FA2012134
:104030000846FDF707F98FA209210120FDF702F9D3
:104040008DA201210220FDF7FDF88AA2092102209C
:10405000FDF7F8F88AA201210320FDF7F3F88AA200
:1040600001210420FDF7EEF84FF4FA70FCF7E7FDAC
:1040700000F07EFAFFF756FE4FF4FA70FCF7DFFD12
:10408000E5E0FDF7ADFE82490880084600888149D9
:104090000988884205DA7E4800887F490988884275
:1040A00002DCFCF75DFC01E0FCF74AFC02237848E7
:1040B000028807210120FDF7A3F8FDF79BF9774956
:1040C00008800878FCF70CFF022374480288072157
:1040D0001846FDF795F8FCF75FFDFCF779FC28B171
:1040E0006FA20C210120FDF7ADF804E06DA20C21B8
:1040F0000120FDF7A7F8FCF797FC6B4908800846FC
:10410000B0F9000000280BDA2D2207210320FDF76B
:104110003DF865480088404200B26349088004E0E9
:104120002B2207210320FDF731F85F48B0F900008A
:104130000A2190FBF1F40223224608210320FDF717
:104140005FF82E220A210320FDF720F85648B0F927
:1041500000000A2190FBF1F201FB12040123224628
:104160000B210320FDF74CF8FCF734FE4F49088083
:1041700008460088032814D14D4800881E304C4959
:10418000088008460088B42801DD002008804848DF
:104190000088FCF72EF90446FDF726FA0A20FCF702
:1041A0004EFD03234248028807210420FDF728F82A
:1041B0003E480088042822D13E480088401C3D49E2
:1041C0000880088800EBD0714910A0EB410101295B
:1041D00006D1FDF757F938A20E210220FDF732F87B
:1041E0003449088800EBD0714910A0EB410131B986
:1041F000FDF73EF931A20E210220FDF723F8FCF76E
:104200002FFE2F4908800846008801280BD12DA0D9
:10421000FDF70CFE0120FFF7B7FD31A20E210420AF
:10422000FDF710F80EE02648008802280AD12DA0DC
:10423000FDF7FCFD0020FFF7A7FD31A20E210420B1
:10424000FDF700F800F080F92E48FFF7DDFB18E7D6
:104250003D3D3D2073797374656D20696E697420EE
:104260006F6B203D3D3D200D0A0000004C657665DA
:104270006C3A00002500000050686F746F3A00002F
:1042800074656D70203A0000616E676C653A0000DD
:104290002400002034000020320000202C000020E8
:1042A0002D2D2D002020200030000020280000208F
:1042B000260000202E0000204F4E20004F464600D2
:1042C0002A00002073686F72742070726573732007
:1042D0002D3E20736F6674206D6F64650D0A0000BB
:1042E000530000006C6F6E67207072657373202D31
:1042F0003E207265736574206D6F64650D0A000061
:104300005200000054000020012080F3138800BFF9
:1043100000BF0748006800F4E06006490843001D3C
:1043200003490860BFF34F8F00BF00BFFEE70000E6
:104330000CED00E00000FA0500B5024612B94FF09E
:10434000FF3000BD50689168884201D10020F8E735
:1043500050689168884203D290685168401AF0E72B
:10436000104600F014F851689368C91A401AE8E73B
:1043700030B5044614B94FF0FF3030BD204600F090
:1043800006F805462046FFF7D7FF281AF5E701464D
:1043900011B94FF0FF3070470868FCE7014611B9CA
:1043A0004FF0FF307047C8684860C86888600020D8
:1043B000F8E72DE9F04104460F461646002514B9EA
:1043C000681EBDE8F08117B94FF0FF30F9E760686B
:1043D000A168884214D22046FFF7AEFFB04201D94F
:1043E000304602E02046FFF7A7FF054661682A46EF
:1043F0003846FBF797FE6068284460602846E0E78F
:104400002046FFF7C4FF6168E268891A401AB0428B
:104410000AD9354661682A463846FBF783FE60684C
:10442000284460602846CCE72046FFF7B0FF61686B
:10443000E268891A451A61682A463846FBF772FE17
:10444000E0686060721B79192046FFF7B2FF0544EF
:104450002846B6E72DE9F04104460F4615460026EA
:1044600004B11FB94FF0FF30BDE8F0812046FFF7DF
:104470007FFFA84202D86FF00100F5E76068A168ED
:1044800088422AD82046FFF782FFA168E268891A8D
:10449000461AB54213D8A0682A463946FBF742FEB1
:1044A000A0682844A0602046FFF771FFE168084437
:1044B000A168884201D1E068A0602846D4E7A068DE
:1044C00032463946FBF72EFEE068A060AA1BB919F8
:1044D0002046FFF7BFFF3044C6E7A0682A463946AA
:1044E000FBF720FEA0682844A0602846BCE7000037
:1044F00070B505460E4600240DB9601E70BD00243F
:104500001BE0295D0F48FDF764FC00BF80210D48CA
:10451000FDF791FB0028F9D0022C0DD3285DFF2870
:104520000AD155210748FDF754FC00BF80210548FA
:10453000FDF781FB0028F9D0641CB442E1D330467A
:10454000DCE7000000440040002006490870487085
:104550000548B0F90000C1F8020004480088C1F81D
:104560000600704754000020300000202400002086
:104570000648002101604160018100200349087064
:104580004870C1F80200C1F80600704754000020CE
:10459000000000000000000000000000000000001B
:1045A000000000F8000000000000003330000000B0
:1045B00000100C06100C06000000000000000000B7
:1045C00040C07840C0784000043F04043F04040029
:1045D000007088FC08300000001820FF211E000039
:1045E000F008F000E018000000211C031E211E004E
:1045F00000F00888700000001E21232419272110D4
:1046000010160E0000000000000000000000000076
:10461000000000E01804020000000007182040001D
:1046200000020418E000000000402018070000000D
:10463000404080F0804040000202010F0102020071
:10464000000000F0000000000101011F0101010055
:10465000000000000000000080B0700000000000BA
:104660000000000000000000000101010101010143
:1046700000000000000000000030300000000000DA
:1046800000000000806018040060180601000000AF
:1046900000E010080810E000000F102020100F00AC
:1046A000001010F8000000000020203F2020000033
:1046B000007008080888700000302824222130008B
:1046C00000300888884830000018202020110E0093
:1046D0000000C02010F8000000070424243F24003C
:1046E00000F80888880808000019212020110E0011
:1046F00000E0108888180000000F112020110E0023
:1047000000380808C83808000000003F000000001A
:104710000070880808887000001C222121221C00DB
:1047200000E010080810E0000000312222110F0004
:10473000000000C0C0000000000000303000000099
:104740000000008000000000000080600000000009
:104750000000804020100800000102040810200022
:10476000404040404040400004040404040404006D
:104770000008102040800000002010080402010002
:10478000007048080808F000000000303601000002
:10479000C030C828E810E0000718272423140B00B5
:1047A0000000C038E0000000203C2302022738202F
:1047B00008F8888888700000203F202020110E0013
:1047C000C03008080808380007182020201008000A
:1047D00008F808080810E000203F202020100F00F3
:1047E00008F88888E8081000203F202023201800BF
:1047F00008F88888E8081000203F20000300000027
:10480000C03008080838000007182020221E0200C7
:1048100008F808000008F808203F210101213F2086
:10482000000808F8080800000020203F20200000B1
:1048300000000808F8080800C08080807F000000A1
:1048400008F888C028180800203F200126382000DA
:1048500008F8080000000000203F20202020300041
:1048600008F8F800F8F80800203F003F003F20005B
:1048700008F830C00008F808203F200007183F0063
:10488000E01008080810E0000F10202020100F0092
:1048900008F808080808F000203F21010101000085
:1048A000E01008080810E0000F18242438504F00CA
:1048B00008F8888888887000203F2000030C30208A
:1048C00000708808080838000038202121221C00C8
:1048D000180808F8080818000000203F2000000011
:1048E00008F808000008F808001F202020201F00FA
:1048F0000878880000C83808000007380E0100005A
:10490000F80800F80008F800033C0700073C030023
:10491000081868808068180820302C03032C302089
:104920000838C800C83808000000203F20000000F8
:1049300010080808C8380800203826212020180050
:10494000000000FE020202000000007F4040400024
:10495000000C30C000000000000000010638C0005C
:1049600000020202FE000000004040407F00000004
:104970000000040202020400000000000000000029
:104980000000000000000000808080808080808027
:10499000000202040000000000000000000000000F
:1049A00000008080808000000019242222223F2005
:1049B00008F8008080000000003F112020110E0048
:1049C0000000008080800000000E112020201100D7
:1049D000000000808088F800000E112020103F2089
:1049E0000000808080800000001F2222222213000D
:1049F000008080F0888888180020203F2020000058
:104A00000000808080808000006B9494949360000C
:104A100008F8008080800000203F210000203F2017
:104A200000809898000000000020203F2020000017
:104A3000000000809898000000C08080807F000007
:104A400008F8000080808000203F24022D302000E4
:104A5000000808F8000000000020203F202000008F
:104A60008080808080808000203F20003F20003FA9
:104A70008080008080800000203F210000203F20B7
:104A80000000808080800000001F202020201F0068
:104A9000808000808000000080FFA12020110E0097
:104AA0000000008080808000000E112020A0FF8088
:104AB000808080008080800020203F212000010035
:104AC000000080808080800000332424242419008A
:104AD000008080E0808000000000001F2020000097
:104AE0008080000000808000001F202020103F20D8
:104AF000808080000080808000010E300806010068
:104B000080800080008080800F300C030C300F000C
:104B100000808000808080000020312E0E31200037
:104B2000808080000080808080818E701806010067
:104B300000808080808080000021302C2221300085
:104B400000000000807C020200000000003F4040A6
:104B500000000000FF00000000000000FF00000057
:104B60000002027C800000000040403F0000000086
:104B70000006010102020404000000000000000021
:104B8000109453321E325210007E4242427E000088
:104B90000000000000000000000000000000000015
:104BA000000000FF49494949494949FF0000000008
:104BB00000000000000000000000000000000000F5
:104BC00008CC4A49484ACC18007F88888482E00093
:104BD00000000000000000000000000000000000D5
:104BE00000FF121252927F00007E88888482E000CB
:104BF00000000000000000000000000000000000B5
:104C0000100CC4544C64D54644444C54C4140C0099
:104C10000000000000000000000000000000000094
:104C20000000FF404462554955434040FF000000EA
:104C30000000000000000000000000000000000074
:104C4000100C4424140405C60404142444140C0059
:104C50000000000000000000000000000000000054
:104C600000003F01010101FF010111211F000000AF
:104C70000000000000000000000000000000000034
:104C80004040424458C0407F40C0504846404000E9
:104C90000000000000000000000000000000000014
:104CA0008080402018070000003F404040407800CE
:104CB00000000000000000000000000000000000F4
:104CC00000FE424242FE0042A29E82A2C2BE0000FC
:104CD00000000000000000000000000000000000D4
:104CE000806F080828CF00002FC8080828CF0000D0
:104CF00000000000000000000000000000000000B4
:104D000002E222223E00809E9292F292929E8000C7
:104D10000000000000000000000000000000000093
:104D2000004382423E40474444447F444454E700A9
:104D30000000000000000000000000000000000073
:104D40000000FC242424FC252624FC242424040024
:104D50000000000000000000000000000000000053
:104D600040308F80844C55252525554C808080000F
:104D70000000000000000000000000000000000033
:104D80001010D0FF9014E4AFA4A4A4AFE40400007A
:104D90000000000000000000000000000000000013
:104DA000040300FF00894B2A1A0E1A2A4B88800040
:104DB00000000000000000000000000000000000F3
:104DC000101090909090901010FF1010111610007D
:104DD00000000000000000000000000000000000D3
:104DE000002060203F10101000030C102040F8003D
:104DF00000000000000000000000000000000000B3
:104E0000100CC4544C64D54644444C54C4140C0097
:104E10000000000000000000000000000000000092
:104E20000000FF404462554955434040FF000000E8
:104E30000000000000000000000000000000000072
:104E4000100C4424140405C60404142444140C0057
:104E50000000000000000000000000000000000052
:104E600000003F01010101FF010111211F000000AD
:104E70000000000000000000000000000000000032
:104E800080828282FE8282828282FE828282800090
:104E90000000000000000000000000000000000012
:104EA000008040300F0000000000FF000000000004
:104EB00000000000000000000000000000000000F2
:104EC000000000FC4444444546444444447C000003
:104ED00000000000000000000000000000000000D2
:104EE0004020180700FC44444444444444FC00006F
:104EF00000000000000000000000000000000000B2
:104F000000001011161010F0101014131000000003
:104F10000000000000000000000000000000000091
:104F20008181414121110D030D11214141818100F8
:104F30000000000000000000000000000000000071
:104F400000F80122202222A2FA22222202FE0000E0
:104F50000000000000000000000000000000000051
:104F600000FF0008040211201F000040807F0000A5
:104F70000000000000000000000000000000000031
:104F8000000000F8888C8A89888888F80000000072
:104F90000000000000000000000000000000000011
:104FA000000000FF44444444444444FF0000000027
:104FB00000000000000000000000000000000000F1
:104FC0004044C4444444401010FF101010F000004E
:104FD00000000000000000000000000000000000D1
:104FE000103C131014B840300E014080403F0000C8
:104FF00000000000000000000000000000000000B1
:1050000000002424242424FC222222232200000045
:105010000000000000000000000000000000000090
:10502000020202020242827F020202020202020025
:105030000000000000000000000000000000000070
:105040004044C4444444401010FF101010F00000CD
:105050000000000000000000000000000000000050
:10506000103C131014B840300E014080403F000047
:105070000000000000000000000000000000000030
:10508000404042CC002022E22222E22222200000E4
:105090000000000000000000000000000000000010
:1050A0000080403F40A0988780809FA0A0BC8000E7
:1050B00000000000000000000000000000000000F0
:1050C0002424A4FE2322003E22222222223E00008B
:1050D00000000000000000000000000000000000D0
:1050E000080601FF0106404949497F4949494100F5
:1050F00000000000000000000000000000000000B0
:1051000000202020A06000FF6080402018000000E8
:10511000000000000000000000000000000000008F
:10512000201008060140807F0001020408101000D2
:10513000000000000000000000000000000000006F
:10514000000000FE929292FE929292FE00000000F9
:10515000000000000000000000000000000000004F
:1051600044442425140C04FF040C14252444440056
:10517000000000000000000000000000000000002F
:1051800040402020908884838488902020404000E4
:10519000000000000000000000000000000000000F
:1051A000000000003F404040444847404078000035
:1051B00000000000000000000000000000000000EF
:1051C0000000FC2424A4643DA624242424240400F8
:1051D00000000000000000000000000000000000CF
:1051E00040300F1013121212FF1212121210100080
:1051F00000000000000000000000000000000000AF
:105200001060028C0000FE9292929292FE000000CA
:10521000000000000000000000000000000000008E
:1052200004047E01407E42427E427E42427E400035
:10523000000000000000000000000000000000006E
:105240001060028C00FE929292929292FE000000F8
:10525000000000000000000000000000000000004E
:1052600004047E014448507F40407F504844400041
:10527000000000000000000000000000000000002E
:105280000000FC242424FC252624FC2424240400DF
:10529000000000000000000000000000000000000E
:1052A00040308F80844C55252525554C80808000CA
:1052B00000000000000000000000000000000000EE
:1052C0000000FE021222C202C23202FE00000000F2
:1052D00000000000000000000000000000000000CE
:1052E00080601F0020100C030C30000F3040F800CD
:1052F00000000000000000000000000000000000AE
:105300000000FC242424252624242424243C0000FA
:10531000000000000000000000000000000000008D
:1053200040300F211549817F00211549817F000000
:10533000000000000000000000000000000000006D
:1053400080828282FE8282828282FE8282828000CB
:10535000000000000000000000000000000000004D
:10536000008040300F0000000000FF00000000003F
:10537000000000000000000000000000000000002D
:1053800000001011161010F010101413100000007F
:10539000000000000000000000000000000000000D
:1053A0008181414121110D030D1121414181810074
:1053B00000000000000000000000000000000000ED
:1053C000101010FF109000FE82828292A29E0000B8
:1053D00000000000000000000000000000000000CD
:1053E0000444827F010000FF80432C102C43800086
:1053F00000000000000000000000000000000000AD
:1054000012EAAFAAEA0FFA02888C5724548C84005F
:10541000000000000000000000000000000000008C
:105420000202EAAAAAABAAABAAAAAAAAEA020200A4
:10543000000000000000000000000000000000006C
:10544000807000FF1008FE424242FA424242FE00D3
:10545000000000000000000000000000000000004C
:10546000806018070810FF50484641424C40FF003A
:10547000000000000000000000000000000000002C
:10548000100C055555D5057F0555555505140C00CF
:10549000000000000000000000000000000000000C
:1054A0001010108AA96B352525ABE90810101000E3
:1054B00000000000000000000000000000000000EC
:1054C0001060028C201808C838CF080828980000FF
:1054D00000000000000000000000000000000000CC
:1054E00004047E01040201FF4021060A112040004D
:1054F00000000000000000000000000000000000AC
:105500000000FC242424FC252624FC24242404005C
:10551000000000000000000000000000000000008B
:1055200040308F80844C55252525554C8080800047
:10553000000000000000000000000000000000006B
:1055400000202020A06000FF6080402018000000A4
:10555000000000000000000000000000000000004B
:10556000201008060140807F00010204081010008E
:10557000000000000000000000000000000000002B
:10558000008060F80710901011161010D010000065
:10559000000000000000000000000000000000000B
:1055A000010000FF4040415E4040704E41404000DD
:1055B00000000000000000000000000000000000EB
:1055C000001088844320100C1020418284080000C1
:1055D00000000000000000000000000000000000CB
:1055E000010100FE42424242424242FE00010100ED
:1055F00000000000000000000000000000000000AB
:10560000403C10FF101020108F7808F808F80000B8
:10561000000000000000000000000000000000008A
:10562000020602FF0101044221184681403F0000AA
:10563000000000000000000000000000000000006A
:10564000040484E41C0724242424A4642404040003
:10565000000000000000000000000000000000004A
:10566000020100FF00020242827F020202020200E7
:10567000000000000000000000000000000000002A
:105680008060F8878498002024A47F243428240094
:10569000000000000000000000000000000000000A
:1056A0000000FF00007F241201FF494949FF00006C
:1056B00000000000000000000000000000000000EA
:1056C0001010D0FF905020504C434C5020404000D0
:1056D00000000000000000000000000000000000CA
:1056E000040300FF00414458414E605847404000C9
:1056F00000000000000000000000000000000000AA
:105700001060028C00FE02F202FE00F800FF0000B2
:105710000000000000000000000000000000000089
:1057200004047E018047300F10270047807F00006F
:105730000000000000000000000000000000000069
:10574000000022322AA6A262211109810100000074
:105750000000000000000000000000000000000049
:10576000004222130B42827E02020A1223460000EC
:105770000000000000000000000000000000000029
:105780002030AC63300088C8A8998E88A8C88800EB
:105790000000000000000000000000000000000009
:1057A00022672212128040300F00003F40407100FB
:1057B00000000000000000000000000000000000E9
:1057C000404042CC002022E22222E222222000009D
:1057D00000000000000000000000000000000000C9
:1057E0000080403F40A0988780809FA0A0BC8000A0
:1057F00000000000000000000000000000000000A9
:105800002424A4FE2322003E22222222223E000043
:105810000000000000000000000000000000000088
:10582000080601FF0106404949497F4949494100AD
:105830000000000000000000000000000000000068
:10584000000000F8888C8A89888888F800000000A9
:105850000000000000000000000000000000000048
:10586000000000FF44444444444444FF000000005E
:105870000000000000000000000000000000000028
:105880004044C4444444401010FF101010F0000085
:105890000000000000000000000000000000000008
:1058A000103C131014B840300E014080403F0000FF
:1058B00000000000000000000000000000000000E8
:1058C0004040424458C0407F40C05048464040009D
:1058D00000000000000000000000000000000000C8
:1058E0008080402018070000003F40404040780082
:1058F00000000000000000000000000000000000A8
:1059000002E222223E00809E9292F292929E8000BB
:105910000000000000000000000000000000000087
:10592000004382423E40474444447F444454E7009D
:105930000000000000000000000000000000000067
:10594000100CC4544C64D54644444C54C4140C004C
:105950000000000000000000000000000000000047
:105960000000FF404462554955434040FF0000009D
:105970000000000000000000000000000000000027
:10598000000000F80808090E08080808F8000000E0
:105990000000000000000000000000000000000007
:1059A0000080601F010101010101010103000000ED
:1059B00000000000000000000000000000000000E7
:1059C0004042CC0000829292F29E9292F28280003B
:1059D00000000000000000000000000000000000C7
:1059E00000007F201000FC4444444444FC000000BC
:1059F00000000000000000000000000000000000A7
:105A00004040444454644546446454444440400047
:105A10000000000000000000000000000000000086
:105A2000000000FF49494949494949FF0000000079
:105A30000000000000000000000000000000000066
:105A40001010D0FF9014E4AFA4A4A4AFE4040000AD
:105A50000000000000000000000000000000000046
:105A6000040300FF00894B2A1A0E1A2A4B88800073
:105A70000000000000000000000000000000000026
:105A8000807000FF1008FE424242FA424242FE008D
:105A90000000000000000000000000000000000006
:105AA000806018070810FF50484641424C40FF00F4
:105AB00000000000000000000000000000000000E6
:105AC000100C055555D5057F0555555505140C0089
:105AD00000000000000000000000000000000000C6
