:020000040800F2
:10000000704E002099010008F91E00084D1B0008E1
:10001000F51E0008310A0008DB310008000000006E
:1000200000000000000000000000000001010008C6
:100030005D0D000800000000450100085928000877
:10004000B3010008B3010008B3010008B3010008C0
:10005000B3010008B3010008B3010008B3010008B0
:10006000B3010008B3010008B3010008B3010008A0
:10007000B3010008B3010008B3010008B301000890
:10008000B3010008B3010008B3010008B301000880
:10009000B3010008B3010008B3010008B301000870
:1000A000B3010008B3010008B3010008B301000860
:1000B000B3010008FD280008B3010008B3010008DF
:1000C000B3010008B3010008B3010008B301000840
:1000D000B3010008B3010008D12F0008B3010008E4
:1000E000B3010008B3010008B3010008DFF80CD029
:1000F00000F000FB00480047955B0008704E0020B0
:10010000224B19680868B0E8F00F80F30988BFF344
:100110006F8F4FF0000080F311884EF00D0E704786
:100120000000000006480068006880F3088862B696
:1001300061B6BFF34F8FBFF36F8F00DF00BF00BF0B
:1001400008ED00E0EFF30980BFF36F8F0F4B1A68E3
:1001500020E9F00F106008B54FF0BF0080F3118860
:10016000BFF34F8FBFF36F8F06F05EFA4FF00000C2
:1001700080F31188BDE8084019680868B0E8F00FFE
:1001800080F30988BFF36F8F704700BFF80000202D
:10019000EFF3058070470000064880470648004797
:1001A000FEE7FEE7FEE7FEE7FEE7FEE7FEE7FEE727
:1001B000FEE7FEE769280008ED00000840EA0103B9
:1001C0009B0703D009E008C9121F08C0042AFAD20D
:1001D00003E011F8013B00F8013B521EF9D27047D1
:1001E000D2B201E000F8012B491EFBD27047002279
:1001F000F6E710B513460A4604461946FFF7F0FF26
:10020000204610BDF0B480EA0102D40F4200B2EBE8
:10021000410F02D20246084611464A0042D0C30DA1
:10022000DDB2C1F3C752AD1A202D35DAC1F3160184
:1002300041F4000204B15242C5F1200602FA06F16F
:100240002A411044B3EBD05F23D0C4B1012DA0EB01
:10025000C35009DCF0BC4FF0004202EAC352DBB2EB
:1002600000F5000000F0BAB9400000F1807000EB2A
:10027000C350A0F1807040EAD170490009E04908FC
:1002800041EAC071A0EBC35000F50000400800EB4C
:10029000C350F0BC00F099B96142012202EB410168
:1002A000001BF6E7F0BC704781F00041AAE780F040
:1002B0000040A7E780EA010210B502F000434000C9
:1002C00022D04A001FD0010E01EB1261C0F356008C
:1002D000C2F3560240F4000042F40002A0FB0220E8
:1002E00000047F39140400D0401C50EA124001D4AD
:1002F0004000491EC2B20C0604EBD010401C40085E
:10030000802A02D003E0002010BD20F00100002967
:1003100000DA0020184310BD30B480EA010202F078
:10032000004530F0004221F0004013D090B1C30DE1
:10033000D40DC2F31601C0F31600E41A41F4000113
:1003400040F400027D34914201D3641C00E0490076
:10035000002C02DA30BC002070474FF4000000236C
:10036000914201D3891A034340084FEA4101F7D172
:1003700051B1914202D14FF0004105E002D24FF05D
:10038000010101E06FF0010103EBC450284430BCCF
:1003900000F01BB92DE9FE4F81EA030404F000448C
:1003A00021F0004100944FF0000B23F0004350EA8D
:1003B00001045ED052EA03045BD0C3F30A54C1F3D4
:1003C0000A552C44A4F2F3340194A0FB0254C1F367
:1003D000130141F48011C3F3130343F4801301FBB1
:1003E000024400FB034E840A970A44EA815447EA18
:1003F0008357A4FB076802958D0A05FB07854FEA22
:10040000932C04FB0C542705029D4FEA065847EA3B
:100410001637B5EB08056EEB070C870E920E47EA10
:10042000811742EA8312A7FB0201B6EB0B0164EBD2
:1004300000042B0D43EA0C335E1844EB1C50DA46E3
:100440005146E7FB0201C5F313044FEA0B3343EABD
:1004500014534FEA0432019C43EA0603A4F10C044E
:100460000294009CCDE900B400F0F5F803B0BDE8BB
:10047000F08F00200146F9E7C10F80EAE0700844E0
:10048000CA079623002100F0A9B89623002211463E
:1004900000F0A4B820F00040C10DC0F3160040F4F5
:1004A00000007F2901DA00207047962903DCC1F1A2
:1004B0009601C840704796398840704770B5C1F3BF
:1004C0000A5201F000450024C1F3130140F2FF334A
:1004D00041F480119A4201DA002070BD40F23343AA
:1004E0009A42A2F2334203DC524200F05EF800E08E
:1004F00090402C43F1D0404270BD00F0004230F0FB
:1005000000400AD0C10D01F56071C0F3160042EA47
:100510000151C2084007114370470020014670474F
:10052000002801DBC0F10040002901DBC1F10041DE
:1005300081427047002801DBC0F10040002901DB47
:10054000C1F10041884270472DE9F05F0546002067
:1005500092469B4688460646814640241BE0284634
:1005600041464746224600F020F853465A46C01AF4
:10057000914110D311461846224600F0CDF82D1AAD
:1005800067EB01084F4622460120002100F0C4F825
:1005900017EB00094E41201EA4F10104DFDC4846A0
:1005A00031462A464346BDE8F09F202A04DB203A24
:1005B00021FA02F00021704721FA02F3D040C2F183
:1005C000200291400843194670470029A8BF704790
:1005D000401C490008BF20F00100704710B4B0FA79
:1005E00080FC00FA0CF050EA010404BF10BC704714
:1005F00049B1CCF1200421FA04F411FA0CF118BF2E
:10060000012121430843A3EB0C01CB1D4FEA0061FC
:100610004FEA102042BF002010BC704700EBC350CF
:1006200010440029A4BF10BC7047401C490008BFFB
:1006300020F0010010BC704710B5141E73F10004C7
:1006400008DA401C41F1000192185B411A4301D1C4
:1006500020F0010010BD2DE9F04D92469B4611B1EE
:10066000B1FA81F202E0B0FA80F22032904600F056
:1006700053F804460F4640EA0A0041EA0B0153468C
:100680005A46084313D0114653EA010019D0C8F165
:1006900040025046FFF789FF05460E465046594630
:1006A000424600F039F8084305D0012004E0204616
:1006B0003946BDE8F08D0020054346EAE0762C433C
:1006C00037430A986305E40AA0EB08000022FD0AFC
:1006D00044EA47540A3002D500200146E9E7010503
:1006E00010196941DDE9084500196941BDE8F04D7F
:1006F000A2E70000064C074D06E0E06840F0010369
:1007000094E8070098471034AC42F6D3FFF7F2FCA8
:10071000C4870008E4870008202A04DB203A00FA96
:1007200002F1002070479140C2F1200320FA03F348
:1007300019439040704770B58C1810F8015B15F0A4
:10074000070301D110F8013B2A1106D110F8012B43
:1007500003E010F8016B01F8016B5B1EF9D12B0768
:1007600005D40023521E0DD401F8013BFAE710F81E
:10077000013BCB1A921C03E013F8015B01F8015B0B
:10078000521EF9D5A142D8D3002070BD21B1826894
:1007900042F00102826003E0826822F0010282607E
:1007A000704721B1826842F48072826003E08268FF
:1007B00022F4807282607047014600208A6802F04D
:1007C00004020AB1012000E0002070470146002029
:1007D0008A6802F008020AB1012000E00020704798
:1007E00030B502460020002350680F4C20400D79A0
:1007F0000C6844EA05242043506090680B4C20406C
:10080000D1E902542C434D7944EA450420439060D9
:10081000D06A20F470000C7C641EE4B2234340EAEA
:100820000350D06230BD0000FFFEF0FFFDF7F1FF86
:10083000F0B504460D4600200021092D11DDE068C9
:10084000A5F10A0606EB4607072606FA07F18843D4
:10085000A5F10A0606EB460603FA06F10843E06036
:100860000CE0206905EB4507072606FA07F18843E7
:1008700005EB450603FA06F108432061072A0FDA63
:10088000606B561E06EB86071F2606FA07F18843A3
:10089000561E06EB860605FA06F10843606322E061
:1008A0000D2A0FDA206BD61F06EB86071F2606FAE5
:1008B00007F18843D61F06EB860605FA06F10843C2
:1008C000206310E0E06AA2F10D0606EB86071F2602
:1008D00006FA07F18843A2F10D0606EB860605FA33
:1008E00006F10843E062F0BD816841F008018160D3
:1008F000704721B1826842F4A002826003E08268FE
:1009000022F4A00282607047816841F00401816096
:100910007047000000B591B00121480201F06AFE65
:100920000121042001F066FE0121084601F042FE8B
:100930004FF4004001F032FE00208DF84300E0202B
:10094000ADF8400003208DF8420010A9344801F0B2
:100950004BF80523012219463248FFF769FF0523AA
:10096000022206212F48FFF763FF052303220721F8
:100970002C48FFF75DFF00200B900E9001208DF8B2
:1009800031004FF460200D9001208DF830000320DD
:100990008DF83C000BA92348FFF722FF21484C307B
:1009A000009080150690002004901F4801904FF49D
:1009B0008060079080200590002002900320039023
:1009C0002020089000200A904FF48050099069463A
:1009D000164800F06FF80121144800F05FF801217B
:1009E0001048FFF7DEFE01210E48FFF7CFFE0D484D
:1009F000FFF77AFF00BF0B48FFF7E8FE0128FAD0A7
:100A00000848FFF781FF00BF0648FFF7D5FE012821
:100A1000FAD001210348FFF76CFF11B000BD0000C0
:100A20000008014000240140180000200800024096
:100A300000BFFEE708B50121042001F0DBFD102016
:100A40008DF80300ADF8000003208DF80200694620
:100A5000024800F0C9FF00F003F808BD000801409B
:100A600010B51021014801F05EF810BD00080140EA
:100A700010B51021014801F054F810BD00080140E4
:100A800010B51021044801F043F810B9FFF7E8FF52
:100A900001E0FFF7EDFF10BD0008014021B1026841
:100AA00042F00102026004E002684FF6FE731A4051
:100AB0000260704710B50022026847F6F0739A434F
:100AC0000C6A8B6823430C6923434C6923438C696C
:100AD0002343CC6923434C6A23438C6A23431A4340
:100AE0000260CB6843600B6883604B68C36010BDD5
:100AF00010B50024002000F08BF804E0601CC4B2A4
:100B0000012001F0E1FE01210E4800F0F8FF08B1DC
:100B1000C82CF3DBC82C01DB012010BD002404E04D
:100B2000601CC4B2012001F0CFFE0121054800F095
:100B3000E6FF08B9F02CF3DBF02C01DB0120ECE739
:100B40000020EAE7000C01402DE9F84F00F0CAF858
:100B500000F0B2F8FFF7CCFFCC2000F0CFF8BE20B9
:100B600000F0CCF800F096F8834600F093F80446C5
:100B7000072C08DDE043C4B26FEA0B0000F0FF0B66
:100B80004FF0000A01E04FF0010AA1464FEA0920A8
:100B90000FFA80F909EB0B000FFA80F94846FFF7CE
:100BA0006BFC0090FFF7A9FC07460022084BFFF7FB
:100BB000F1FB0546FFF782FC0FFA80F9BAF1000F4E
:100BC00002D04846BDE8F88FC9F1000000B2F9E74D
:100BD0000000E43F08B50121082001F00BFD1020C2
:100BE0008DF803000120ADF8000003208DF802000D
:100BF0006946064800F0F8FE0121044800F093FF22
:100C000000F05AF8FFF774FF08BD0000000C014027
:100C100038B504460121082001F0ECFC4CB110204D
:100C20008DF803000120ADF8000003208DF80200CC
:100C300005E004208DF803000120ADF800006946AE
:100C4000014800F0D1FE38BD000C014010B5012074
:100C5000FFF7DEFF01210E4800F063FF022001F0E4
:100C600033FE01210A4800F05EFF0020FFF7D0FFAD
:100C70000C2001F029FE0121054800F040FF08B1D9
:100C8000012400E00024322001F01EFE204610BDA9
:100C9000000C014070B50026002508E0FFF7D6FFE4
:100CA0000446E00140EA6600C6B2681CC5B2082DE1
:100CB000F4DB304670BD000010B50120FFF7A8FF3F
:100CC0000121074800F02DFF40F2EE2001F0FCFD6D
:100CD0000121034800F027FF0F2001F0F5FD10BDB2
:100CE000000C014010B5FFF7E7FFFFF701FFCC2034
:100CF00000F004F8442000F001F810BD70B504467F
:100D00000120FFF785FF002522E004F001066410B2
:100D100076B10121104800F004FF022001F0D4FD5B
:100D200001210D4800F0FFFE3C2001F0CDFD0DE05B
:100D30000121094800F0F5FE3C2001F0C5FD01212C
:100D4000054800F0F0FE022001F0BEFD681CC5B2AF
:100D5000082DDADB70BD0000000C01407047000078
:100D600092E1CA48007830B1012876D0022875D0C7
:100D7000032874D171E10020C5490870C549087085
:100D8000C5490870C5480078012825D1C4480088A5
:100D9000401CC3490880088800EBD0714910A0EBC3
:100DA0004101012910D1BF480078012806D101F086
:100DB000B3FB0020BB490870BB49088001F0E4FB8D
:100DC0000120BA49087004E001F0D4FB0020B749C3
:100DD00008700020B1490870B5480078012825D175
:100DE000B1480088401CB0490880088800EBD071E9
:100DF0004910A0EB4101012910D1AC48007801282D
:100E000006D101F0B7FB0020A8490870A44908806A
:100E100001F08CFB0120A349087004E001F07CFB89
:100E20000020A04908700020A1490870A14800785E
:100E300001281DD1A0480088401C9F4908800888CF
:100E400000EBD0714910A0EB4101012908D101F05C
:100E50008DFA01209949087007E02BE0A8E0FDE039
:100E600001F07CFA00209549087000209149087033
:100E70009348007801281CD192480088401C914971
:100E80000880088800EBD0714910A0EB41010129CE
:100E900006D18D4801F04EFC01208C49087005E018
:100EA000002001F047FC0020884908700020844998
:100EB0000870D3E00020824908707E4908707C49A0
:100EC0000870764908707249087072490870724952
:100ED00008707F4800887F490978884211DA714894
:100EE0000078E8B971480078012804D101F042FB8C
:100EF00000206E49087001F019FB01206949087053
:100F00000EE0754800780A3871490988884207DC84
:100F10006448007820B101F0FFFA002061490870B0
:100F20006E48007800EB80006D49B1F90010B1EB1C
:100F3000400F07DA6148007820B901F017FA012064
:100F40005E4908706748007800EB80006449B1F999
:100F50000010B1EB400F07DD5848007820B101F0D8
:100F6000FDF90020554908705F480088C0F1640011
:100F70005E490978884205DA5B490988C8B200F001
:100F8000B0FF01E000F0A8FF5948008859490978EE
:100F9000884206DD584801F0CDFB01204B4908701E
:100FA00005E0002001F0C6FB00204849087055E02C
:100FB0003C48007808B101F0AFFA3C48007808B12D
:100FC00001F0D8FA3D48007808B101F0C7F93F4870
:100FD000007810B1002001F0ADFB00203B49087003
:100FE00036490870314908702E4908703549088023
:100FF000314908802A4908802B4908803049087007
:101000002B490870254908702A4908702048007843
:10101000012808D1022004F079FC0120374908702A
:1010200000201B4908701B480078012807D104F0F4
:101030006DFC0220314908700020164908701648DE
:101040000078012808D1002004F060FC03202B491F
:10105000087000201049087000E000BF00BF1C4865
:1010600000881D490978884205DA1948008819491D
:101070000978884202DCFFF703FD01E0FFF7F0FC8E
:101080004FF4FA7005F078FA6BE60000DC000020FF
:10109000D8000020D9000020DA000020D60000206F
:1010A000BE000020D2000020C0000020D10000209F
:1010B000D5000020D7000020BC000020D300002075
:1010C000D4000020C200002000007042D0000020A8
:1010D000B6000020C5000020C4000020C70000208A
:1010E000BA000020C6000020B8000020C800002080
:1010F000B4000020C90000200000F042DB00002006
:1011000070B50546002D60D000F03AFF102208218E
:10111000012001F077F811220821022001F072F875
:1011200008221146032001F06DF80922082104204D
:1011300001F068F827220121084601F063F828220F
:101140000221012001F05EF841A20521012001F0F9
:10115000B1F840A20921012001F0ACF825220121BB
:10116000022001F04FF826220221084601F04AF839
:1011700037A20521022001F09DF836A209210220A4
:1011800001F098F804220121032001F03BF8052228
:101190000221032001F036F82DA20521032001F0E1
:1011A00089F82CA20921032001F084F81A220121D8
:1011B000042001F027F81C220221042001F022F86B
:1011C00023A20521042001F075F803232248028898
:1011D0000621012001F04CF8032320480288062153
:1011E000022001F045F81E480088C0F16402032384
:1011F0000621184601F03CF81A48B0F90040002CCE
:1012000007DA2D220621042000F0C2FF604204B25A
:1012100004E02B220621042000F0BAFF0A2094FBF0
:10122000F0F6022332460721042001F021F82E2295
:101230000921042000F0ACFF0A2094FBF0F100FB30
:101240001146012332460146042001F011F870BD19
:101250003A00000025000000B6000020B400002085
:10126000B8000020BA00002010B50446002C51D070
:1012700000F086FE12220821012000F0C3FF132295
:101280000821022000F0BEFF08221146032000F0D2
:10129000B9FF09220821042000F0B4FF50220121E7
:1012A000084600F0AFFF51220221012000F0AAFF02
:1012B0002FA20521012000F0FDFF52220121022072
:1012C00000F0A0FF53220221084600F09BFF28A255
:1012D0000521022000F0EEFF56220121032000F03C
:1012E00091FF57220221032000F08CFF20A205214C
:1012F000032000F0DFFF4E220121042000F082FFD6
:101300004F220221042000F07DFF19A205210420B4
:1013100000F0D0FF1748007808B117A000E017A030
:1013200002460621012000F0C5FF1548007808B1EB
:1013300011A000E011A002460621022000F0BAFF31
:101340001048007808B10CA000E00CA0024606216D
:10135000032000F0AFFF0C48007808B106A000E0C1
:1013600006A002460621042000F0A4FF10BD0000E4
:101370003A000000D10000204F4E20004F464600AA
:10138000D2000020D3000020D00000203EB505464A
:101390002DB300F0F5FD08220121084600F032FFD0
:1013A00009220221012000F02DFF19A205210120B0
:1013B00000F080FF174AD2E900109268CDE90102DF
:1013C0000091002408E05DF82420A11CC8B203218C
:1013D00000F070FF601C44B2032CF4DB00BF00245B
:1013E00012E00D480078844206D1A11CC8B20BA2BD
:1013F000012100F05FFF05E0A11CC8B208A2012195
:1014000000F058FF601C44B2032CEADB3EBD000034
:101410003A0000005C870008DE0000203E0000006B
:101420002000000070B50546002D3DD000F0A8FD5D
:1014300014220121084600F0E5FE152202210120B8
:1014400000F0E0FE08220321012000F0DBFE09226B
:101450000421012000F0D6FE3EA20121022000F06E
:1014600029FF3EA20121032000F024FF3DA2082114
:10147000032000F01FFF3CA20A21032000F01AFF06
:1014800038A21021032000F015FF38A2012104200A
:1014900000F010FF33A20821042000F00BFF35A25A
:1014A0000A21042000F006FF0323344802880521A6
:1014B000184600F0DDFE0323314802880D2118464E
:1014C00000F0D6FE2F480088C0F1640203230521F6
:1014D000042000F0CDFE2C48B0F90040002C07DAC3
:1014E0002D220E21042000F053FE604204B204E0DD
:1014F0002B220E21042000F04BFE0A2094FBF0F674
:10150000022332460F21042000F0B2FE1F4800786B
:10151000012805D11EA20721022000F0CBFE17E012
:101520001A480078022804D11BA2072100F0C2FE4D
:101530000EE016480078032805D119A207210220E1
:1015400000F0B8FE04E018A20721022000F0B2FE6D
:1015500070BD00004D6F64653A0000006C65763A1E
:10156000000000002500000074733A0070686F3AB4
:101570000000000074656D3A00000000B600002015
:10158000B4000020B8000020BA000020DB000020DA
:101590004169724C696E6B00536F66744150200054
:1015A00052657365742020004E6F6E652020200008
:1015B00070B505462DB92D4800782D490978884227
:1015C0000FD000F0DDFC2BA20121084600F072FED6
:1015D0002CA20121022000F06DFE2548007823494D
:1015E0000870002622480078062810D2DFE800F0B4
:1015F000030507090B0D284E0AE0284E08E0284E87
:1016000006E0284E04E0284E02E0284E00E070BDBF
:1016100000BF27481649097850F8212001210320EE
:1016200000F048FE23A20C21032000F043FE327894
:1016300003230E21184600F01BFE05F0D5F80446E2
:101640001D48006858B11C480068201AB0F5FA6FB0
:1016500005D21AA20121042000F02CFE04E01CA2F5
:101660000121042000F026FE00BFD0E76800002022
:10167000DF000020536574205468726573686F6CD6
:10168000647300002D2D2D2D2D2D2D2D2D2D2D2D67
:101690002D2D2D2D00000000C5000020C4000020CD
:1016A000C7000020C6000020C8000020C90000209C
:1016B000500000203A000000CC0000205361766505
:1016C0006421202020202020202020200000000055
:1016D0004C6F6E6720504231353A53617665202059
:1016E0000000000000243DE01F4800781F490978F1
:1016F000884208D11C48007878B91D4800781D49F7
:101700000978884209D001241748007817490870E1
:10171000174800781749087000E000241248007844
:10172000D0B91348007830B1012808D002280AD077
:10173000032810D10BE02046FFF796FD0BE0204672
:10174000FFF7DEFC07E02046FFF76CFE03E02046D3
:10175000FFF72EFF00BF02E02046FFF717FE6420D0
:1017600004F00AFFC0E70000DD000020E0000020D8
:10177000DC000020E100002030B5044604254FF4D1
:10178000302000F06FF80546042D17D10C48006991
:1017900040F002000A49086108464461006940F0CF
:1017A000400008614FF4302000F05CF80546044822
:1017B000006941F6FD71084001490861284630BDC5
:1017C0000020024004200B49C96801F0010109B161
:1017D00001200EE00749C96801F0040109B10220A7
:1017E00007E00449C96801F0100109B1032000E0D5
:1017F00004207047002002400348006940F0800048
:1018000001490861704700000020024070B504469D
:101810000D460426F00200F025F80646042E11D1EC
:101820000948006940F00100074908612580F0027D
:1018300000F018F806460448006941F6FE710840B9
:1018400001490861304670BD00200240024803494A
:101850004860034848607047230167450020024004
:10186000AB89EFCD00B502460423FFF7ABFF03467B
:1018700003E0FFF7A7FF0346521E012B01D1002A08
:10188000F7D102B90523184600BD00002DE9F04745
:1018900007460D464FF0000905F10108404604F0E7
:1018A000AFF904461A4804F069F910B1DFF8609006
:1018B0000CE0184804F062F910B1DFF8589005E028
:1018C000204601F085FF0020BDE8F087002004E0FD
:1018D00019F800102154411CC8B2691C8842F7DB7A
:1018E0002946204601F0F9FE0646615DB14204D06A
:1018F000204601F06DFF0020E6E72A4621463846E3
:10190000FEF75CFC204601F063FF0120DCE70000ED
:1019100000FC000800F800082DE9F84F06460C46C8
:101920000027B846601C0090009804F069F905464D
:101930002B4804F023F918B1294FDFF8A8800DE0F7
:10194000284804F01BF918B1264FDFF8948005E011
:10195000234801F007FF224FDFF8888021463046F8
:1019600001F0BBFE8146224631462846FEF726FCA2
:1019700005F804904FF0010A002008E0395C2A5C69
:10198000914202D04FF0000A04E0411CC8B2611C31
:101990008842F3DB00BFBAF1000F05D0284601F002
:1019A00017FF0120BDE8F88F404601F0DBFE601C08
:1019B000C2B22946404604F067FE08F2FE3BFFF73C
:1019C00045FF4AF2A5515846FFF720FFFFF714FFE5
:1019D000384601F0C7FE284601F0FAFE0120E1E793
:1019E00000FC000800F800082DE9F041024600253F
:1019F0000026002000230024002791F803C00CF0EB
:101A00000F0591F803C00CF0100CBCF1000F03D0CF
:101A100091F802C04CEA050591F800C0BCF1000F36
:101A200031D0146800202BE04FF0010C0CFA00F3C9
:101A3000B1F800C00CEA03069E4220D183004FF0AB
:101A40000F0C0CFA03F7BC4305FA03FC4CEA040440
:101A500091F803C0BCF1280F06D14FF0010C0CFA2D
:101A600000FCC2F814C00AE091F803C0BCF1480FB2
:101A700005D14FF0010C0CFA00FCC2F810C0401C5C
:101A80000828D1D31460B1F800C0BCF1FF0F34DDD9
:101A9000546800202EE000F1080C4FF0010808FA0D
:101AA0000CF3B1F800C00CEA03069E4221D183007A
:101AB0004FF00F0C0CFA03F7BC4305FA03FC4CEA99
:101AC000040491F803C0BCF1280F05D100F1080C03
:101AD00008FA0CF8C2F8148091F803C0BCF1480F62
:101AE00007D100F1080C4FF0010808FA0CF8C2F811
:101AF0001080401C0828CED35460BDE8F081024617
:101B0000002093680B400BB1012000E000207047DB
:101B100002460020D3680B400BB1012000E00020FA
:101B2000704741617047016170470AB1016100E08F
:101B30004161704707E004F053FC034803F024FDC3
:101B4000C82004F019FDF6E76401002000BFFEE79D
:101B500070B5002408E0204600F020F805460DB1DD
:101B6000284670BD601CC4B2042CF4DB0020F8E7EA
:101B700008B50121082000F03DFD48208DF8030044
:101B80004FF47040ADF8000003208DF80200694664
:101B90000148FFF729FF08BD000C01402DE9F04185
:101BA000044602F063FA0646324830F81410324810
:101BB000FFF7A5FF05463148075D07F10A0000F071
:101BC000FF0804EB44002E4911F82000A84232D04F
:101BD0008DB904EB440001EB80004660002004EB6B
:101BE0004401274A02EB8101487204EB440102EBF5
:101BF000810108721AE004EB4400214901EB8000E6
:101C0000407A98B904EB44000A4602EB8000406831
:101C1000311A142909D3B1F57A7F06D204EB4400B6
:101C200002F820503846BDE8F08100BF04EB4400C4
:101C3000134901F82050D5B904EB4400104901EBD9
:101C40008000407A98B904EB44000A4602EB800019
:101C50004068311AB1F57A7F08D3012004EB4402C1
:101C6000074B03EB820250724046DCE700BF0020C6
:101C7000D9E70000E06A0008000C0140E86A0008AB
:101C800020000020642004F077FC09E1FFF760FFEA
:101C90000446002C72D00B2C11D18248007850B928
:101CA0000120804908708048007880490870002031
:101CB0007F490870E0E000207D490870DCE0012CDD
:101CC00015D17848007870B97748007818B90120A4
:101CD00078490870D0E0744800780228EAD10120E1
:101CE00075490870C8E0002071490870C4E0022CF2
:101CF00026D16C48007801280AD16C48007810B9C8
:101D000003206A49087069480078401E67490870D6
:101D100065480078032803D1002000F09DFFABE068
:101D200061480078022803D1012064490870A3E0CB
:101D30005C4800780028BDD10120614908709BE013
:101D40000C2C26D15748007868B9574800780128EC
:101D500009D103205449087000205A4908700846E8
:101D6000007801F00FF8504800780328A2D15548B8
:101D7000007820B90520534908707DE08CE0514877
:101D80000078401E4F4908700846007800F0FAFFBE
:101D900072E0032C1FD14348007801280BD143483F
:101DA0000078401C4149087008460078022863DD2D
:101DB0000020087060E03C480078032803D101202F
:101DC00000F04AFF58E037480078002854D101203D
:101DD0003D49087050E00D2C1AD133480078022894
:101DE00002D10120394908702F480078032843D1D7
:101DF00034480078401C33490870084600780628AB
:101E000001DB002008702F48007800F0BBFF33E0B2
:101E1000042C31D123480078012807D123480078C9
:101E20002149087000201F49087025E01E480078ED
:101E3000022810D100202049087020490870234949
:101E400008701B4908700120164908701648007870
:101E50001649087010E014480078032806D10120C4
:101E60001149087000200F49087005E00D480078FE
:101E700010B90120164908700E2C0DD10A480078BF
:101E8000032809D104F024FB00F052FF04F032FBD8
:101E900004F0AAFC0F490860142004F06DFB00BF99
:101EA000F4E60000DD000020DC000020DE00002061
:101EB000DB000020D6000020D8000020D900002040
:101EC000D5000020DF000020D7000020DA0000202D
:101ED000D4000020CC00002010B5002000F0E6FA6D
:101EE00010BD10B50446642C00DD6424204600F0CB
:101EF000DDFA10BD00BFFEE77047000070B500219D
:101F000000230F22C47804B3154C246804F4E06461
:101F1000C4F5E064210AC1F10403CA40447804FA1C
:101F200003F184781440214309010E4C0678A15531
:101F3000047804F01F050124AC4005786D11AD0054
:101F400005F1E025C5F8004109E0047804F01F051B
:101F50000124AC40044D0678761145F8264070BD4A
:101F60000CED00E000E400E080E100E00249014304
:101F7000024A1160704700000000FA050CED00E015
:101F800070B500240EE00021204600F0F0F8002596
:101F900004E0002000F0B6F9681CC5B2802DF8DB23
:101FA000601CC4B2082CEEDB70BD000008B5012136
:101FB000082000F01FFB14208DF8030003208DF88B
:101FC00002004FF48070ADF8000069460A48FFF740
:101FD0000BFD4FF40070ADF8000069460648FFF7AE
:101FE00003FD012211020448FFF79FFD0122510267
:101FF0000148FFF79AFD08BD000C014070B5054689
:10200000002415E08020204100EA05024FF4007111
:102010000E48FFF78AFD012211020C48FFF785FDEB
:1020200000224FF480710948FFF77FFD601CC4B2A5
:10203000082CE7DB012211020448FFF776FD00229D
:102040004FF480710148FFF770FD70BD000C014036
:1020500010B5012251020A48FFF767FD0122110263
:102060000748FFF762FD00224FF400710448FFF7B4
:102070005CFD00224FF480710148FFF756FD10BD52
:10208000000C014010B500224FF400710648FFF724
:102090004CFD012211020448FFF747FD01225102C5
:1020A0000148FFF742FD10BD000C014070B500244F
:1020B00006E0002500E06D1CB5F57A7FFBD3641CBB
:1020C000B4F57A7FF5D3FFF771FFAE2000F006F983
:1020D000D52000F003F9802000F000F9A82000F0DE
:1020E000FDF83F2000F0FAF8D32000F0F7F80020C8
:1020F00000F0F4F8402000F0F1F8A12000F0EEF834
:10210000C82000F0EBF8DA2000F0E8F8122000F028
:10211000E5F8812000F0E2F8CF2000F0DFF8D920C8
:1021200000F0DCF8F12000F0D9F8DB2000F0D6F860
:10213000302000F0D3F8A42000F0D0F8A62000F062
:10214000CDF88D2000F0CAF8142000F0C7F8AF20B9
:1021500000F0C4F8FFF714FF70BD10B5024601206F
:1021600000E050430B1EA1F10101FAD110BD70B582
:1021700005460C4645F0B00000F0B0F8102141EAE9
:10218000141000F0ABF804F00F0000F0A7F870BDD9
:102190002DE9F04105460E461746721ED206110E75
:1021A0006A1E5206100EFFF7E2FF002409E0A7F1B5
:1021B0002001134A02EB0111085D00F0A3F8601C36
:1021C000C4B2082CF3DB721ED206110E6A1E012364
:1021D00003EB4202D0B2FFF7CAFF00240BE0A7F1E5
:1021E0002001074A02EB011204F10801505C00F0E3
:1021F00089F8601CC4B2082CF1DBBDE8F081000056
:10220000EC6A00082DE9F04105460E461746721E9D
:102210001207110E6A1E5206100EFFF7A8FF0024C7
:1022200007E0124A02EB8711085D00F06BF8601CB2
:10223000C4B2102CF5DB721E1207110E6A1E0123A8
:1022400003EB4202D0B2FFF792FF002409E07900CD
:10225000491C064A02EB4111085D00F053F8601C6E
:10226000C4B2102CF3DBBDE8F0810000DC70000884
:102270002DE9F04780460E4617461D46002415E01E
:10228000281B411E0A20FFF768FFB7FBF0F00A2168
:10229000B0FBF1F201FB120000F130093019C1B2BC
:1022A0004A464046FFF774FF601CC4B2AC42E7DB0D
:1022B000BDE8F0872DE9F04107460E46154600249B
:1022C00007E02A5D3019C1B23846FFF761FF601C94
:1022D000C4B2285D0028F4D1BDE8F08110B50446F1
:1022E00004F0F6F8FFF7B4FE7820FFF787FE002031
:1022F000FFF784FE2046FFF781FEFFF7C3FE04F0E0
:10230000F9F810BD10B5044604F0E2F8FFF7A0FE9E
:102310007820FFF773FE4020FFF770FE2046FFF79E
:102320006DFEFFF7AFFE04F0E5F810BD08B5012122
:10233000082000F05FF910208DF803000220ADF8AE
:10234000000003208DF8020069460348FFF74CFBAC
:1023500000F004F808BD0000000C014010B5022197
:102360000148FFF7DEFB10BD000C014010B5022153
:102370000148FFF7D8FB10BD000C014000B589B043
:102380000121084600F026F90121042000F032F96D
:1023900018208DF8230003208DF822000120ADF8CD
:1023A000200008A93A48FFF71FFB4FF0804000F0DB
:1023B000E1FA0020ADF81A00ADF8160044F61F60EF
:1023C000ADF818004720ADF8140000208DF81C006F
:1023D00005A94FF0804000F07FFB01A800F06EFBE4
:1023E0006020ADF804000020ADF80C000120ADF82D
:1023F00006000020ADF80A0001A94FF0804000F06F
:10240000BFFA0121880700F08FFA0121042000F0B3
:10241000E1F80121082000F0EDF818208DF82300E4
:1024200003208DF822008020ADF8200008A919486B
:10243000FFF7DAFA184800F09DFA0020ADF81A000C
:10244000ADF816006320ADF818004720ADF8140071
:1024500000208DF81C0005A90F4800F03DFB01A8E5
:1024600000F02CFB6020ADF804000020ADF80C005B
:102470000120ADF806000020ADF80A0001A90648C9
:1024800000F0CAFA0121044800F04EFA09B000BD7C
:1024900000080140000C01400008004010B504464F
:1024A00021464FF0804000F013FB10BD10B50446EC
:1024B0002146024800F00EFB10BD0000000800405D
:1024C00038B5002100230DE0104CA48821440024DD
:1024D000009402E0009C641C0094009CC82CF9D37A
:1024E0005C1CE3B20A2BEFDB0A23B1FBF3F39AB2D5
:1024F000074B1B88D31A64246343064C2488044D7D
:102500002D88641B93FBF4F398B238BD18000020AB
:10251000140000201600002010B54FF4806102481E
:10252000FFF7FFFA10BD0000000C014010B54FF49A
:1025300080610248FFF7F7FA10BD0000000C01406F
:1025400008B50121082000F055F810208DF803008F
:102550004FF44060ADF8000003208DF8020069469A
:102560000348FFF741FAFFF7D7FF00F003F808BD73
:10257000000C014010B54FF400610248FFF7D1FA9A
:1025800010BD0000000C014010B54FF4006102487E
:10259000FFF7C9FA10BD0000000C01400146002001
:1025A000034A506820F440400843506070470000E0
:1025B0000010024029B1064A52690243044B5A6195
:1025C00004E0034A52698243014B5A61704700009C
:1025D0000010024029B1064AD2690243044BDA6175
:1025E00004E0034AD2698243014BDA61704700007C
:1025F0000010024029B1064A92690243044B9A61D5
:1026000004E0034A92698243014B9A6170470000DB
:102610000010024030B500210022002400232D4D7F
:102620006D6805F00C0121B1042905D0082923D1DA
:1026300005E0294D056022E0274D05601FE0254D8E
:102640006D6805F47012234D6D6805F48034022521
:1026500005EB92421CB9214D554305600BE01D4D21
:102660006D6805F400351DB11C4D5543056002E051
:10267000194D5543056002E0174D056000BF00BFCE
:10268000144D6D6805F0F0010909154D6B5C056886
:10269000DD4045600F4D6D6805F4E061090A104D9D
:1026A0006B5C4568DD4085600A4D6D6805F46051DE
:1026B000C90A0B4D6B5C4568DD40C560054D6D6812
:1026C00005F44041890B074D6B5CC568B5FBF3F51C
:1026D000056130BD0010024000127A0000093D0083
:1026E00000000020100000201BE000F047FA0D4918
:1026F000088000F075FD0C490880FFF7E1FE0B49EA
:10270000088003F0E5FEFEF7D7FAFEF7F1F918B9F5
:10271000FEF71AFA0649088003F0ECFEC82003F021
:102720002BFFE2E7B4000020B6000020B800002034
:10273000BA0000202DE9F04104460A492046FDF781
:10274000EBFD80460849FDF7B5FD07460749FDF753
:1027500059FD0646FDF79EFE85B22846FFF79EFE10
:10276000BDE8F081000034430000FA440000FA4361
:1027700010B500F001F810BD0CB5002001900090DC
:102780003348006840F480303149086000BF304869
:10279000006800F4003000900198401C01900098FF
:1027A00018B90198B0F5A06FF1D12948006800F47C
:1027B000003010B10120009001E00020009000984E
:1027C000012843D12348006840F0100021490860E7
:1027D0000846006820F0030008600846006840F0E2
:1027E000020008601A484068194948600846406875
:1027F00048600846406840F4806048600846406889
:1028000020F47C1048600846406840F4E8104860B6
:102810000846006840F08070086000BF0C480068FF
:1028200000F000700028F9D00948406820F003004B
:10283000074948600846406840F00200486000BF11
:102840000348406800F00C000828F9D10CBD0000D6
:10285000001002400020024010B503F0B5FF01282F
:1028600001D003F063FF10BD10B51348006840F0BD
:1028700001001149086008464068104908400E49A7
:102880004860084600680E4908400B490860084641
:10289000006820F4802008600846406820F4FE00AC
:1028A00048604FF41F008860FFF762FF4FF0006040
:1028B0000449086010BD0000001002400000FFF84D
:1028C000FFFFF6FE08ED00E002460B4B1888831868
:1028D00099B281420ADA00BF074B1B888342FBDAB8
:1028E00000BF054B1B888B42FBDB04E000BF024BA3
:1028F0001B888B42FBDB7047242C014010B5012163
:10290000054800F01DF828B10121034800F009F83E
:1029100002F03EFC10BD000000040040CA430282E9
:102920007047CA430282704721B1028842F0010217
:10293000028004E002884FF6FE731A40028070475E
:1029400030B50246002000230024158A05EA010361
:10295000958905EA010413B10CB1012000E00020C3
:1029600030BD1AB183890B43838102E083898B4395
:102970008381704701894FF6F872114001817047D9
:1029800070B5002400220023058C4FF6FE763540FA
:102990000584028C8388048B4FF68F752C40B51EFE
:1029A0002C400D882C43751E2A400D892A434D88E2
:1029B0002A43144DA8420BD0134DA84208D0134D02
:1029C000A84205D0124DA84202D0124DA84213D100
:1029D0004FF6F7752A404D892A434FF6FB752A407A
:1029E0008D882A434FF6FF652B404FF6FF552B404D
:1029F0008D892B43CD892B4383800483CD888586A5
:102A0000028470BD002C01400034014000400140B0
:102A1000004401400048014070B50024002200231A
:102A2000058C4FF6EF7635400584028C8388048B45
:102A300048F6FF752C404FF6FF452C400D884FF6A9
:102A4000FF7606EA05252C434FF6DF752A400D89EF
:102A500006EA05152A434D8806EA05152A43154D51
:102A6000A84202D0144DA8421DD14FF67F752A40CE
:102A70004D894FF6FF7606EA05152A434FF6BF75D6
:102A80002A408D8806EA05152A434FF6FF352B406C
:102A90004FF2FF752B408D8906EA85052B43CD89C2
:102AA00006EA85052B4383800483CD88058702844D
:102AB00070BD0000002C0140003401400021018065
:102AC00041808180C180018141818181C1817047C4
:102AD0008186704701877047002202881D4B98420B
:102AE0000ED01D4B98420BD0B0F1804F08D01B4B3D
:102AF000984205D01A4B984202D01A4B984204D102
:102B00004FF68F731A404B881A43174B984207D0E1
:102B1000164B984204D04FF6FF431A40CB881A4315
:102B200002808B8883850B8803850A4B98420BD0E3
:102B3000094B984208D00E4B984205D00D4B984255
:102B400002D00D4B984201D10B7A03860123838278
:102B500070470000002C0140003401400004004098
:102B600000080040000C004000100040001400402D
:102B70000040014000440140004801402DE9F84F69
:102B8000002600200DE02D4909880E440021009107
:102B900002E00099491C00910099C829F9D3411C11
:102BA000C8B20A28EFDB0A20B6FBF0F087B240F685
:102BB000E440784322490988B0FBF1F84046FDF72C
:102BC00064FC82461F49FDF7A7FB04464FF07E5187
:102BD0002046FDF7AFFC01D24FF07E541A49204643
:102BE000FDF79EFC00D2184C21464FF07E50FDF7B9
:102BF0005BFB16490090FDF78FFB83461449FDF7F8
:102C000059FB8246FDF746FC85B2B5F57A6F01DDCA
:102C10004FF47A652846FDF738FC0D490090FDF722
:102C20007BFB83460B49FDF745FB8246FDF732FCF3
:102C30001FFA80F94846BDE8F88F00001800002010
:102C40001600002000404E459A99193E9A99593F26
:102C500000007A450000C84270B506461148124986
:102C6000097800EBC10420680578012E08D161794C
:102C7000A079081AA8420EDBA0792844C5B20AE060
:102C800046B92179A0790844A84204DCA079281A21
:102C9000C5B200E070BD2068057000F07BF800BF91
:102CA000F8E70000700000206C0000201CB5062131
:102CB0006846FEF7EBFDD0B19DF80000164908709C
:102CC0009DF80100154908709DF80200144908702C
:102CD0009DF80300134908709DF80400124908701C
:102CE0009DF805001149087000F054F813E0142015
:102CF000094908705020094908701A2008490870CD
:102D00001C20084908704620074908703C200749E4
:102D1000087000F03FF81CBDC5000020C400002072
:102D2000C7000020C6000020C8000020C900002005
:102D30001CB50E4800788DF800000D4800788DF81D
:102D400001000C4800788DF802000B4800788DF8DF
:102D500003000A4800788DF80400094800788DF8CF
:102D6000050006216846FEF7D7FD1CBDC500002002
:102D7000C4000020C7000020C6000020C8000020BA
:102D8000C9000020062801DA0149087070470000D8
:102D90006C000020114800781149097888420ADB4C
:102DA0000E4800780A300E490870084600786428FA
:102DB00001DD642008700B4800780B4909788842CF
:102DC0000ADB08480078801C07490870084600782C
:102DD000322801DD3220087070470000C500002055
:102DE000C4000020C7000020C60000200EB501214D
:102DF000C802FFF7FFFB0020ADF80600ADF80200A7
:102E00004FF6FF70ADF804004720ADF80000002039
:102E10008DF8080069460448FFF75EFE012102486C
:102E2000FFF782FD0EBD0000002C01407FB5054676
:102E30000C464FF4A060FFF799F81D208DF80C00A8
:102E400001208DF80F0005208DF80D0003208DF86E
:102E50000E0003A8FFF752F801210220FFF7BAFB8A
:102E60000020ADF80600ADF80200ADF80450ADF852
:102E700000408DF8080069460848FFF72DFE012143
:102E80000648FFF74BFD012211460448FFF769FD94
:102E900001210248FFF748FD7FBD0000000400400B
:102EA00000B585B001218803FFF7A4FB01210420B0
:102EB000FFF7A0FB18208DF813004FF40070ADF859
:102EC000100003208DF8120004A91548FEF78CFDB0
:102ED00004208DF813000002ADF8100003208DF8D7
:102EE000120004A90E48FEF77FFD4FF4E130009078
:102EF0000020ADF80C000C20ADF80A000020ADF861
:102F00000800ADF80600ADF804006946054800F079
:102F1000EFF80121034800F082F805B000BD000081
:102F2000000801400038014000B587B001210420AD
:102F3000FFF760FB18208DF81B000420ADF8180087
:102F400003208DF81A0006A91F48FEF74DFD042046
:102F50008DF81B000820ADF8180006A91A48FEF7E6
:102F600043FD26208DF8140001208DF81700052060
:102F70008DF8150002208DF8160005A8FEF7BEFF9B
:102F800001214804FFF726FB4FF416500190002062
:102F9000ADF810000C20ADF80E000020ADF80C00CC
:102FA000ADF80A00ADF8080001A9084800F0A0F843
:102FB000012240F22551054800F074F80121034830
:102FC00000F02DF807B000BD0008014000440040AB
:102FD00008B540F22551094800F03AF868B140F2CE
:102FE0002551064800F00CF8044800F0EDF8C0B296
:102FF00000900121684602F017F808BD0044004027
:1030000010B50022002340F66A14A14200D100BF8F
:103010000A1201249440A3B2DC43048010BD21B104
:10302000828942F40052828104E082894DF6FF7366
:103030001A408281704702460020B1F5007F00D11E
:1030400000BF13880B400BB1012000E00020704747
:1030500070B50246002400230025002040F66A16C1
:10306000B14200D100BFC1F3421501F01F03012698
:1030700006FA03F3012D02D19689334006E0022DB2
:1030800002D1168A334001E0968A33400C120126A1
:1030900006FA04F41688344013B10CB1012000E0A4
:1030A000002070BDF0B50346002400260025002056
:1030B00040F66A17B94200D100BF1846C1F3421466
:1030C00001F01F06012707FA06F5012C01D10C308B
:1030D00004E0022C01D1103000E014301AB107686E
:1030E0002F43076002E00768AF430760F0BD0000B0
:1030F0002DE9F04786B005460E460024A24600BFE3
:10310000A1460027B08900B100BF2F462C8A4CF69B
:10311000FF700440F08804432C82AC894EF6F31013
:103120000440B08831890843718908430443AC8165
:10313000AC8A4FF6FF400440B0890443AC8201A83A
:10314000FFF768FA1F48874202D1DDF810A001E0BE
:10315000DDF80CA0A88900F4004040B10AEBCA00D9
:1031600000EB0A1031684900B0FBF1F807E00AEB08
:10317000CA0000EB0A1031688900B0FBF1F8642046
:10318000B8FBF0F004012009642101FB1089A88933
:1031900000F4004040B1322000EBC900B0FBF1F078
:1031A00000F00700044308E0322000EB091064211E
:1031B000B0FBF1F000F00F0004432C8106B0BDE835
:1031C000F08700000038014001468888C0F30800FD
:1031D0007047C1F308028280704700BFFEE700001D
:1031E00038B5002100230DE0104C648821440024F0
:1031F000009402E0009C641C0094009CC82CF9D34D
:103200005C1CE3B20A2BEFDB0A23B1FBF3F39AB2A7
:10321000074B1B88D31A64246343064C2488044D4F
:103220002D88641B93FBF4F398B238BD180000207E
:1032300014000020160000200FB4054B10B503A9A0
:10324000044A029800F018F810BC5DF814FB000066
:10325000AD3700085801002002E008C8121F08C15D
:10326000002AFAD170477047002001E001C1121F07
:10327000002AFBD1704700002DE9FF4F8DB00F46AB
:103280000546002606E025280BD0DDE90F12904701
:103290006D1C761C28780028F5D111B03046BDE8A9
:1032A000F08F0024A246A1460122EC4900E004432D
:1032B00015F8013F203B02FA03F00842F7D12878C5
:1032C0002A2810D06FF02F022878A0F130010929A8
:1032D00014D80AEB8A0102EB410144F0020400EB2E
:1032E000010A6D1CF0E701CF5FEA000A03D544F440
:1032F0000054CAF1000A44F002046D1C28782E28FC
:1033000017D115F8010F44F004042A280ED06FF0ED
:103310002F022878A0F1300109290AD809EB890188
:1033200002EB410100EB01096D1CF2E757F8049B29
:103330006D1C28786C280FD006DC4C2817D0682824
:103340000DD06A2814D104E0742810D07A280FD147
:103350000DE044F400140AE044F4801401E044F465
:1033600040146978814202D104F580146D1C6D1CF3
:103370002A786E2A1FD00CDC632A31D004DC002AA4
:103380008BD0582A11D1A3E0642A68D0692A0CD1C5
:1033900065E0732A2ED004DC6F2A73D0702A04D122
:1033A0009BE0752A6FD0782A6ED01046DDE90F12A7
:1033B0009047761C50E1C4F30250022806D003283F
:1033C00009D0042801CF09D0066045E101CFF117EB
:1033D000C0E9006140E101CF06803DE106703BE1BC
:1033E00017F8040B8DF8000000208DF80100EB4663
:1033F000012003E057F804BB4FF0FF3061074FF0A6
:10340000000102D40DE008F10101884649450FDAB8
:103410008045F8DB1BF808100029F4D108E008F11A
:10342000010188468142FADB1BF808100029F6D119
:10343000DDE90F23AAEB08008146214600F036F9AA
:10344000304400EB080604E0DDE90F121BF8010B25
:103450009047B8F10108F7D221464846F7E00A2123
:10346000C4F302534FF0000B0891022B04D001CF9C
:10347000C117032B09D00AE0FF1D27F00707F7E863
:10348000020108E032E01FE020E000B2C117042B87
:1034900001D140B2C117031E71F1000307DA4FF0EA
:1034A000000CD0EB0C006CEB01012D2302E0230596
:1034B00004D52B238DF82430012303E0E30701D04A
:1034C0002023F7E7984658E00A2110E010210EE08B
:1034D00010204FF0000B08900CE010214FF0000B73
:1034E00044F004044FF00809089103E008214FF06C
:1034F000000B0891C4F30253022B04D001CF00212A
:10350000032B06D006E0FF1D27F00707F7E80201AE
:1035100003E080B2042B00D1C0B24FF000082307B3
:103520002BD5702A07D0DDF820C08CF0100C5CEA97
:103530000B0C05D00EE040238DF82430012308E069
:1035400050EA010306D030238DF824308DF8252071
:1035500002239846DDF820C08CF0080C5CEA0B0CC6
:103560000BD150EA010301D1630706D530238DF852
:1035700024304FF00108A9F10109582A04D038A2DB
:103580000B9208AA0A920BE03AA2F9E75B46089A66
:10359000FCF7DAFF0B9B9B5C0A9A521E0A9213708F
:1035A00050EA0102F2D10A98ADEB000000F1200BC5
:1035B000600702D524F4803401E04FF00109D945B9
:1035C00002DDA9EB0B0000E0002000EB0B01414401
:1035D0000890AAEB010AE00306D4DDE90F23214697
:1035E000504600F063F806444FF0000908E009A9CE
:1035F00011F80900DDE90F12904709F10109761C65
:10360000C145F4DBE0030CD5DDE90F23214650462C
:1036100000F04CF8064404E0DDE90F12302090473A
:10362000761C0899481E08900029F5DC08E00A98E5
:103630000A990078491C0A91DDE90F129047761C1F
:10364000BBF10001ABF1010BF1DC21465046DDE995
:103650000F2300F019F806446D1C1BE60928010031
:1036600030313233343536373839616263646566F8
:1036700000000000303132333435363738394142BA
:1036800043444546000000002DE9F0410446002572
:103690001E461746880404D405E039462020B0476A
:1036A0006D1C641EF9D52846BDE8F0812DE9F04176
:1036B000044600251E469046C80301D5302700E089
:1036C0002027880404D505E041463846B0476D1CE4
:1036D000641EF9D52846BDE8F08130B502460B4698
:1036E0000020002113E0545C604000240BE000F057
:1036F000800525B1072585EA4005E8B201E04506C9
:10370000280E651CECB2082CF1DB4C1CE1B299428E
:10371000E9DB30BD024600210020137803F00103ED
:1037200003B1491C1378C3F3400303B1491C137858
:10373000C3F3800303B1491C1378C3F3C00303B17F
:10374000491C1378C3F3001303B1491C09B90020C5
:1037500007E001F007030BB9C80802E0012303EBFF
:10376000D100704710B50446FEF770F82046FEF70A
:1037700003F8FEF741F810BD01B581B000200090BC
:10378000694601AA5078087010784870BDF80000AA
:103790000CBD0146080601F47F4240EA022001F414
:1037A0007F0240EA122040EA1160704770B504467B
:1037B0000D46E1B20548FFF70CFD00BF0348008845
:1037C00000F080000028F9D0204670BD003801408C
:1037D00010B5002821D0114B0022001F196803E00A
:1037E000814203D80A4649680029F9D152B11368C9
:1037F000841A9C4204D1006818441060104602E00C
:10380000506000E0186039B102680B1A934203D18E
:103810000B681A4402604968416010BD5C010020D9
:103820001CB5FFF743FA1B48042100238A01CDE9A8
:10383000001019A11C4802F093FF1C48022100232C
:103840008022CDE900101AA11C4802F089FF1C4813
:10385000032100234FF48072CDE9001019A11C4808
:1038600002F07EFF1B48022100230A02CDE900106E
:1038700019A11B4802F074FF1A48012100230A0213
:10388000CDE9001018A11A4802F06AFF02F08EFE7E
:103890001CBD0000A000002053656E736F72446170
:1038A0007461476574000000E9260008A400002048
:1038B0004B65795F7461736B00000000851C000824
:1038C000A8000020446576436F6E746F72616C00CF
:1038D000610D0008AC000020446973706C617900D0
:1038E000E5160008B000002047697A776974730014
:1038F000351B0008024612B102F0070028B908295A
:1039000001D8002070470120FCE702F00700C0F159
:103910000800884201D30020F4E70120F2E730B527
:1039200002460B460021002400250AB9481E30BD7E
:10393000002108E0545C581A401E155C5554581A72
:10394000401E1454491CB1EB530FF3D30020EEE793
:103950002DE9F04104460D460027002604B135B993
:1039600064A0FFF769FC4FF0FF30BDE8F08100F084
:103970007DFB06462878217888420CD067A0FFF7A7
:103980005BFC6C4890F81D0120F00100401C694967
:1039900081F81D0101276878617888420CD066A003
:1039A000FFF74AFC634890F81D0120F00200801CDC
:1039B000604981F81D010127A878A17888420CD0C0
:1039C00064A0FFF739FC5B4890F81D0120F004006B
:1039D000001D584981F81D010127E878E1788842E7
:1039E0000CD063A0FFF728FC524890F81D0120F08E
:1039F000080008304F4981F81D01012728792179F5
:103A000088420CD061A0FFF717FC4A4890F81D01CE
:103A100020F010001030474981F81D010127D5F82A
:103A20000500D4F80510884213D05D480068301AAC
:103A300041F2707188420CD35AA0FFF7FDFB3D485C
:103A400090F81D0120F0200020303A4981F81D0136
:103A50000127D5F80900D4F80910884213D050483E
:103A60000068301A41F2707188420CD354A0FFF7FD
:103A7000E3FB304890F81D0120F0400040302D4914
:103A800081F81D010127D5F80D00D4F80D108842EA
:103A900013D043480068301A41F2707188420CD349
:103AA0004EA0FFF7C9FB234890F81D0120F08000CD
:103AB0008030204981F81D010127D5F81100D4F884
:103AC000111088420ED036480068301A41F27071E9
:103AD000884207D346A0FFF7AFFB0121154880F8C5
:103AE0001E110127012F03D100F0C0FA2C490860F4
:103AF00038463AE767697A436865636B5265706F69
:103B00007274204572726F72202C20496C6C65674C
:103B1000616C20506172616D0A00000076616C7505
:103B200065486561746572204368616E6765640A03
:103B3000000000007C01002076616C7565496E5FB5
:103B4000576174657250756D70204368616E67656A
:103B5000640A000076616C75654F75745F57617417
:103B6000657250756D70204368616E6765640A0008
:103B700076616C756546696C6C5F496E5F4C696710
:103B80006874204368616E6765640A0076616C75CD
:103B900065536572766F204368616E6765640A00DD
:103BA000E800002076616C756554656D7065726122
:103BB00074757265204368616E6765640A00000071
:103BC00076616C756557617465724C6576656C20BD
:103BD0004368616E6765640A0000000076616C7579
:103BE000654C69676874204368616E6765640A00A4
:103BF00076616C7565547572626964697479204385
:103C000068616E6765640A002DE9FC4705460C464D
:103C100016464FF000080027B9460020009001909A
:103C20002888ADF800000DB104B136B94AA0FFF7FD
:103C300003FB4FF0FF30BDE8FC8702216846FFF729
:103C40006EFEB0F1FF3F05D14EA0FFF7F5FA4FF041
:103C5000FF30F0E76846FFF75DFD804608F102009F
:103C600081449DF8000000F0010090B111212278FC
:103C7000601C81542078401C20704346AA1C0121FE
:103C8000384601F0CBFA08B1012000E00020307086
:103C90007F1C9DF80000C0F3400090B112212278F3
:103CA000601C81542078401C20704346AA1C0121CE
:103CB000384601F0B3FA08B1012000E0002070702E
:103CC0007F1C9DF80000C0F3800090B11321227882
:103CD000601C81542078401C20704346AA1C01219E
:103CE000384601F09BFA08B1012000E00020B070D6
:103CF0007F1C9DF80000C0F3C00090B11421227811
:103D0000601C81542078401C20704346AA1C01216D
:103D1000384601F083FA08B1012000E00020F0707D
:103D20007F1C9DF80000C0F3001090B1152122788F
:103D3000601C81542078401C20704346AA1C01213D
:103D4000384601F06BFA08B1012000E00020307124
:103D50007F1C00206FE7000067697A44617461503E
:103D60006F696E74324576656E74204572726F723B
:103D7000202C20496C6C6567616C20506172616D0C
:103D80000A00000067697A427974654F726465724F
:103D900045786368616E6765204572726F720A00CC
:103DA0002DE9FF4705460F4690464FF000090026D3
:103DB00000240020009001906648B0F81D01ADF885
:103DC000000002216846FFF7AAFDA41C05B13FB917
:103DD00061A0FFF731FA4FF0FF3004B0BDE8F08783
:103DE0005C4890F81D0100F0010038B12B780DEB14
:103DF00004020121304601F0D3F9761C554890F8B1
:103E00001D01C0F3400038B16B780DEB04020121B5
:103E1000304601F0C5F9761C4E4890F81D01C0F3FC
:103E2000800038B1AB780DEB04020121304601F07F
:103E3000B7F9761C474890F81D01C0F3C00038B1AF
:103E4000EB780DEB04020121304601F0A9F9761C54
:103E5000404890F81D01C0F3001038B12B790DEBEC
:103E600004020121304601F09BF9761C16B94FF08F
:103E7000000908E006F0070010B94FEAD60902E091
:103E8000012000EBD609B9F1010F04D90DEB0400B4
:103E90004946FFF744FD4C442E4890F81D01C0F3FD
:103EA000401068B1D5F805200021012001F018FA72
:103EB000C0B28DF809009DF809100DF80410641CBB
:103EC000244890F81D01C0F3801068B1D5F809208E
:103ED0000021012001F004FAC0B28DF80A009DF81B
:103EE0000A100DF80410641C1A4890F81D01C0094E
:103EF00068B1D5F80D200021012001F0F1F9C0B220
:103F00008DF80B009DF80B100DF80410641C11487F
:103F100090F81E0100F0010068B1D5F811200021D1
:103F2000012001F0DDF9C0B28DF80C009DF80C10F5
:103F30000DF80410641C07480021A0F81D11C8F8F2
:103F4000004069463846D8F80020FCF737F90020D1
:103F500043E700007C01002067697A446174615086
:103F60006F696E7473325265706F727444617461FC
:103F7000204572726F72202C20496C6C6567616CF1
:103F800020506172616D0A0070B5054600F06EF850
:103F90000446002625492846FFF7DAFC012817D1F8
:103FA00023A0FFF749F9214A193AA2F1090128464D
:103FB000FFF7F6FE38B9244800F21F11D0F8282187
:103FC000142001F06BF8152229461848FCF7F6F882
:103FD0001E48B4FBF0F100FB114018BB1C48006800
:103FE000A0421FD01BA0FFF727F9FF2202210F4894
:103FF0002438FCF7F5F80D4A193AA2F109012846D0
:10400000FFF7CEFE38B9104800F21F11D0F8282172
:10401000142001F043F8152229460448FCF7CEF895
:104020000B4804603046FFF7D3FB70BDBD02002093
:104030006368616E6765642C207265706F727420AE
:10404000646174610A0000007C010020C02709003F
:10405000EC000020496E666F3A20363030532072F3
:1040600065706F727420646174610A0001480068B1
:1040700070470000E400002010B5174890F8810058
:10408000012827D1144890F8800002281DDAFFF794
:10409000EDFF1149D1F8BD10401AC8281AD9FFF711
:1040A000E5FF04460C4890F88030D0F8BD2021464A
:1040B0000AA0FFF7C1F800F00FFF074890F8800052
:1040C000401C054981F8800004E04121024880300D
:1040D000FCF78DF810BD00007C0100205761726E66
:1040E000696E673A67697A50726F746F636F6C526A
:1040F0006573656E644461746120256420256420C5
:1041000025640A003EB50446002524B913A0FFF734
:1041100093F8681E3EBD20680090606801909DF88D
:104120000400401CC0B28DF804000520FFF724FBFA
:10413000ADF802000921684600F00CFF8DF8080078
:104140000921684602F020F90546002D03DA2946C8
:104150000DA0FFF771F82846DCE700004552523AFF
:104160002067697A50726F746F636F6C436F6D6D07
:104170006F6E41636B206461746120697320656DAB
:10418000707479200A0000004552523A207561721D
:1041900074207772697465206572726F722025646D
:1041A000200A0000FEB504460E46002524B914A0DE
:1041B000FFF742F8681EFEBD684600F001FA1220C3
:1041C0008DF8040060798DF805000620FFF7D4FA19
:1041D000ADF802008DF808600A21684600F0BAFECA
:1041E0008DF809000A21684602F0CEF80546002D38
:1041F00003DA29460DA0FFF71FF82846DBE7000089
:1042000067697A50726F746F636F6C4572726F7208
:10421000436D64204572726F72202C20496C6C656E
:1042200067616C20506172616D0A00004552523A1C
:104230002075617274207772697465206572726F7F
:1042400072202564200A000030B59DB00446002588
:104250002CB92BA0FEF7F0FF681E1DB030BD6846DC
:1042600000F0AEF902208DF8040060798DF80500A9
:104270002FA103C9CDE9020130A103C9CDE9040191
:1042800031A103C9CDE9080132A103C9CDE9060175
:10429000202233A10AA8FBF791FF202239A10DF1BA
:1042A0005200FBF78BFF0020CDF84A00CDF84E00FE
:1042B0009DF851008DF851009DF8510040F0020129
:1042C0008DF851100020FFF757FAADF848006F2025
:1042D000FFF752FAADF802007321684600F03AFE8B
:1042E0008DF872007321684602F04EF80546002DE5
:1042F00003DA29462CA0FEF79FFF2846ADE7000011
:1043000067697A50726F746F636F6C476574446548
:1043100076696365496E666F204572726F72202CF4
:1043200020496C6C6567616C20506172616D0A0098
:104330003030303030303034000000003030303039
:104340003030303200000000303330333030303025
:1043500000000000303330313031303000000000D8
:1043600031333134666432613462616534616430A2
:1043700062613433336434313563313364663137E9
:1043800000000000633836386563313536373761F1
:1043900034653937613663666538393333313139DD
:1043A00039373662000000004552523A207561727A
:1043B00074207772697465206572726F722025644B
:1043C000200A00002DE9FE4F80460E4617464FF0AA
:1043D000000B002002908146824600253446009062
:1043E000B8F1000F01D006B137B955A0FEF724FF90
:1043F0004FF0FF30BDE8FE8F404601F0E9FE1FFAA6
:1044000080FABAF1000F02D14FF0FF30F2E74FF01F
:10441000000969E0012201A9404601F016FF834628
:10442000BBF1000F5ED052480078FF281FD19DF8E5
:104430000400FF281BD14F48007848B9FF202070A6
:10444000607002204C49088001204A49087040E011
:104450004948008804283CDD47480088A84238D0F5
:10446000FF202070607002204349088031E04048FE
:104470000078FF2803D19DF80400552829D03D4835
:104480000078012825D19DF804003B490988605433
:1044900039480088401C38490880084600880428AC
:1044A00017DD0094009C6088FFF766F9001D85B257
:1044B000392D01D2042D07DC00202E4908702E4929
:1044C00008802EA0FEF7B8FE2B480088A84200D135
:1044D0000CE09DF804002649087038480078401C1C
:1044E0003649087009F10109D14593DB00BF224824
:1044F0000088042822DD20480088A8421ED11E48DA
:104500000188204600F026FD02901B480088401ECE
:10451000215C029881420AD13D8000201549087033
:1045200015490880254908701149087062E7002084
:104530001049087010490880801E5BE7012059E788
:1045400067697A50726F746F636F6C4765744F6EF2
:10455000655061636B6574204572726F72202C2008
:10456000496C6C6567616C20506172616D0A000076
:10457000F4000020F0000020F20000204552523AE2
:104580007468652064617461206C656E677468206E
:10459000697320746F6F206C6F6E67206F72207468
:1045A0006F6F20736D616C6C2C2077696C6C20616F
:1045B00062616E646F6E200A00000000F50000204A
:1045C00010B504462CB907A0FEF736FE4FF0FF30B9
:1045D00010BD002020606060FF202070607000200F
:1045E000F6E700004552523A2067697A50726F74BC
:1045F0006F636F6C48656164496E697420686561BA
:104600006420697320656D707479200A00000000D1
:104610002DE9F04F9FB006468B461746994600207D
:104620001E9082468046002501ACBBF1000F06D1EA
:1046300031A0FEF701FE681E1FB0BDE8F08FB9F192
:10464000010F06D196F8088008F10600384485B2BB
:1046500001E0781D85B22B46424639462CA0FEF774
:10466000EBFDFF2004F8010B04F8010B281204F8FD
:10467000010B04F8015B3079401C04F8010B7079E0
:1046800004F8010B002004F8010B04F8019B4FF023
:10469000080AB9F1010F0DD104F8018B0AF1010AE2
:1046A00001A901EB0A00424606F10901FBF786FD6C
:1046B000C244444437B101A901EB0A003A465946C5
:1046C000FBF77CFD291D01A800F044FC0146E81C15
:1046D00001AA1154291D01A801F056FE1E901E9832
:1046E000002806DA14A01E99FEF7A6FD6FF001005F
:1046F000A2E70020A0E700005B4552525D20206445
:10470000617461204973204E756C6C200A000000B2
:104710006C656E203D202564202C20734469644C18
:10472000656E203D202564202C646174615F6C659A
:104730006E203D2025640A007561727420777269CD
:104740007465206572726F72202564200A00000073
:104750002DE9F04780460C4617461D46089E94F802
:1047600000900CB105B136B93AA0FEF765FD4FF0E7
:10477000FF30BDE8F087B8F1000F68D1172141483C
:10478000FBF735FDB9F1050F40D0B9F1110F03D09A
:10479000B9F1120F59D110E03BA0FEF74DFD394A97
:1047A0006B323849601CFFF72FFA01203549C139B7
:1047B000087000250020306048E03CA0FEF73CFD7A
:1047C0003048C138B4F80110A0F81D11022100F2E0
:1047D0001D10FFF7A4F82B4A6732A2F1090101F17D
:1047E0002200FFF7DDFA68B92648C13800F21F1130
:1047F000D0F82821681CFBF7E1FC13202870082062
:10480000306002E04FF0FF30B3E71FE07A1E611C1A
:104810001C488738FBF7D2FC781E1A49C139486713
:1048200010211848C13890F8C120C2308154C238D4
:1048300090F8C100401C1349C13981F8C100032020
:10484000087000250020306000E000BF00BF00209D
:104850008FE7000067697A50726F746F636F6C49FD
:10486000737375656450726F6365737320457272FC
:104870006F72202C20496C6C6567616C20506172EE
:10488000616D0A003D020020414354494F4E5F458F
:104890004C4F4E474154455F434F4E54524F4C5F2F
:1048A000444556494345200A00000000414354490D
:1048B0004F4E5F454C4F4E474154455F5245414432
:1048C0005F4445565F535441545553200A0000003D
:1048D00070B5044625462CB90EA0FEF7ADFC4FF08E
:1048E000FF3070BD412205F108010E48FBF766FC60
:1048F0000F210D4890F8062100F2071081540A4854
:1049000090F80601401C084981F80601052008704E
:104910000020E6E74E545020697320656D7074796D
:10492000200A0000E00200207C01002010B50446AF
:104930002CB9CAA0FEF780FC4FF0FF3010BD2089D3
:10494000FEF71AFF2081D1480078C0F38000217A59
:10495000C1F38001884256D0207AC0F3800000283D
:1049600029D0207A00F0010078B10021C84890F8E1
:10497000D820D9308154D93890F8D800401CC44987
:1049800081F8D800C3A0FEF757FC207AC0F340009E
:10499000002838D00121BE4890F8D820D930815461
:1049A000D93890F8D800401CB94981F8D800C1A086
:1049B000FEF742FC27E0207A00F0010078B10021E8
:1049C000B34890F8D820D9308154D93890F8D8001D
:1049D000401CAF4981F8D800AEA0FEF72DFC207A2C
:1049E000C0F3400078B10221A94890F8D820D9300E
:1049F0008154D93890F8D800401CA54981F8D800D6
:104A0000B3A0FEF719FCA1480078C0F3C000217ADA
:104A1000C1F3C00188422CD0207AC1089B4800789D
:104A200061F3C30099490870207AC0F3C00080B1D7
:104A30000321974890F8D820D9308154D93890F87C
:104A4000D800401C924981F8D800A8A0FEF7F4FBDA
:104A50000FE004218E4890F8D820D9308154D938FD
:104A600090F8D800401C8A4981F8D800A7A0FEF72A
:104A7000E3FB86480078C0F30010217AC1F30011EF
:104A800088422CD0207A01098048007861F3041014
:104A90007E490870207AC0F3001080B105217C485F
:104AA00090F8D820D9308154D93890F8D800401CDB
:104AB000774981F8D8009DA0FEF7BEFB0FE00621E4
:104AC000734890F8D820D9308154D93890F8D8005C
:104AD000401C6F4981F8D8009CA0FEF7ADFB6B48E5
:104AE0000078C0F34010217AC1F3401188422CD0E5
:104AF000207A41096548007861F3451063490870E0
:104B0000207AC0F3401080B10721614890F8D82086
:104B1000D9308154D93890F8D800401C5C4981F8CC
:104B2000D80093A0FEF788FB0FE00821584890F8C2
:104B3000D820D9308154D93890F8D800401C544935
:104B400081F8D80091A0FEF777FB50484078C0F379
:104B5000C001607AC0F3C00081422CD0607AC108E5
:104B60004A48407861F3C30048494870607AC0F30E
:104B7000C00080B10B21464890F8D820D93081542C
:104B8000D93890F8D800401C414981F8D80087A056
:104B9000FEF752FB0FE00C213D4890F8D820D930A9
:104BA0008154D93890F8D800401C394981F8D80090
:104BB00085A0FEF741FB35484078C0F30011607ACC
:104BC000C0F3001081422CD0607A01092F48407850
:104BD00061F304102D494870607AC0F3001080B171
:104BE00009212B4890F8D820D9308154D93890F831
:104BF000D800401C264981F8D8007BA0FEF71CFB9A
:104C00000FE00A21224890F8D820D9308154D938B1
:104C100090F8D800401C1E4981F8D80079A0FEF712
:104C20000BFB0D211A4890F8D820D9308154D9387F
:104C300090F8D800401C164981F8D800607A00F03E
:104C4000070081F85601084690F8561174A0FEF747
:104C5000F3FA02200E49087000206FE667697A5067
:104C6000726F746F636F6C4D6F64756C65537461B4
:104C7000747573204572726F72202C20496C6C65BC
:104C800067616C20506172616D0A0000F6000020BF
:104C90007C0100204F6E426F617264696E673A203A
:104CA000536F66744150206F7220576562206D6F9C
:104CB00064650A004F6E426F617264696E673A20E4
:104CC0004169724C696E6B206D6F64650A0000006B
:104CD0004F6E426F617264696E673A2053746174FB
:104CE000696F6E206D6F64650A0000005769466940
:104CF000207374617475733A20696E2062696E6402
:104D0000696E67206D6F64650A0000005769466927
:104D1000207374617475733A206F75742062696EC4
:104D200064696E67206D6F64650A000057694669A3
:104D3000207374617475733A20636F6E6E6563746B
:104D4000656420726F757465720A00005769466960
:104D5000207374617475733A20646973636F6E6E47
:104D6000656374656420726F757465720A00000073
:104D700057694669207374617475733A20636F6E66
:104D80006E6563746564206D326D0A00576946690B
:104D9000207374617475733A20646973636F6E6E07
:104DA0006563746564206D326D0A00005769466959
:104DB000207374617475733A2061707020636F6E34
:104DC0006E6563740A000000576946692073746158
:104DD0007475733A206E6F2061707020636F6E6E11
:104DE0006563740A000000005769466920737461A6
:104DF0007475733A20696E2074657374206D6F64E6
:104E0000650A000057694669207374617475733AC6
:104E1000206F75742074657374206D6F64650A006B
:104E200052535349206973202564200A0000000072
:104E300070B5044625462CB919A0FEF7FDF94FF0D0
:104E4000FF3070BD1B48A9680160A9898180A97BDA
:104E50008171A0F5AC70D5F80F10C0F86011014653
:104E6000B1F85801FEF788FC1349A1F85801D1F8B0
:104E70006001FEF78EFC1049C1F860010E210E485A
:104E800090F8EF20F0308154F03890F8EF00401C9B
:104E9000094981F8EF00042008700020D1E70000E4
:104EA0004552523A204E545020697320656D7074FB
:104EB00079200A00D40200207C01002010B5FFF701
:104EC000D5F8044600BFFFF7D1F8001BB0F5167FF8
:104ED000F9D900F0CBFE10BD10B500240E4890F8B3
:104EE000810000B910BD0DA0FEF7A6F90A48B0F880
:104EF000BB10823001F048FA04460748B0F8BB0006
:104F0000A04202D00DA0FEF797F9FFF7AFF80249D3
:104F1000C1F8BD0000BFE5E77C0100205761726E5B
:104F2000696E673A2074696D656F75742C207265BF
:104F300073656E642064617461200A004552523AC0
:104F400020726573656E642064617461206572729D
:104F50006F720A0010B502460024002302B109B99D
:104F6000002010BD022303E0D05C2044C4B25B1CCF
:104F7000481E9842F8D82046F3E7000070B5044672
:104F80000D462CB90FA0FEF757F94FF0FF3070BD5A
:104F900041211248FBF72BF92A4621460F48801C75
:104FA000FBF70CF90D488038A0F8BB50012180F8C0
:104FB0008110FFF75BF809498039C1F8BD00002076
:104FC000E5E700004552523A20646174612069733C
:104FD00020656D707479200A00000000FC0100203B
:104FE00070B50446094D2CB909A0FEF725F94FF01C
:104FF000FF3070BD2879401C2179884204D14121BD
:105000000248801EFBF7F3F80020F2E7FE010020C3
:105010004552523A206461746120697320656D7055
:105020007479200A0000000070B504460D46002681
:1050300024B90AA0FEF700F9701E70BD2A46214669
:105040000E4801F053F90646AE4205D00CA0FEF71B
:10505000F3F84FF0FF30F0E73046EEE74552523AB2
:105060002067697A507574446174612062756620A6
:10507000697320656D707479200A00002403002094
:105080004552523A204661696C656420746F207203
:10509000625772697465200A000000002DE9F04330
:1050A0008FB006460F4690464FF000096C4608F157
:1050B000060085B23FB924A0FEF7BEF84FF0FF30DE
:1050C0000FB0BDE8F083FF2004F8010B04F8010BDA
:1050D000281204F8010B04F8015B052004F8010B09
:1050E000234890F87810806F401C214A906704F89C
:1050F000011B002004F8010B04F8010B04F8016BFC
:10510000424639460DF10900FBF758F8291D68465B
:10511000FFF720FF0146E81C0DF80010291D684626
:1051200001F032F98146B9F1000F06DA494611A0C3
:10513000FEF782F86FF00100C2E7291D6846FFF70D
:105140001DFF0020BCE7000067697A5265706F722E
:105150007444617461204572726F72202C20496C16
:105160006C6567616C20506172616D0A000000001F
:105170007C0100204552523A20756172742077728A
:10518000697465206572726F72202564200A0000C0
:1051900002480068401C014908607047E400002094
:1051A0002DE9F0470546884614461E464FF0000993
:1051B000CA460027002314B9581EBDE8F087EB0843
:1051C00041462846FEF796FB07463FB9E05C05F0EE
:1051D000070106FA01F10843E0541DE0012F1BD13D
:1051E000F0B205F00701C1F1080140FA01F905F03C
:1051F0000700C0F10801FF20084100EA060A581C18
:10520000205C40EA0900591C6054E05C05F007018D
:105210000AFA01F10843E0540020CEE72DE9F04FEF
:105220008FB004460F4690461D460026B246B14652
:10523000B34600200E90B8F1000F00D025B94FF012
:10524000FF300FB0BDE8F08F4FEAD4092A4641463F
:1052500001A8FAF7B3FF012D09D9294601A8FEF7E5
:105260005EFBB0F1FF3F02D14FF0FF30E9E7394676
:105270002046FEF73FFB8246BAF1000F0CD101A891
:1052800010F8090004F007010841C7F10802FF21E6
:1052900011410840064321E0BAF1010F1ED101A9D6
:1052A00009F10100085C04F00701C1F10801791A55
:1052B000C1F10802FF21114100EA010B01A810F819
:1052C000090004F0070108410E9004F00700C0F146
:1052D00008010BFA01F006430E9806433046B0E78A
:1052E00010B503460020541AB4FBF3F010BD0000C3
:1052F0002DE9FF5F07460E4693464FF000083446FF
:10530000B1463546B24607B126B94FF0FF3004B07A
:10531000BDE8F09F4FF00008A1E0781C10F80800ED
:1053200016286ED2DFE800F068696A95956B6C6E9E
:105330006F95959595707A89760B1D2F415420783D
:105340004A4908700846017849A0FDF775FF4748AB
:105350000078012802D1FDF709F801E0FCF7FEFF13
:1053600078E06078414948700846417846A0FDF7EA
:1053700063FF3E484078012802D1FDF7D7F801E0ED
:10538000FDF7CAF866E0A078384988700846817849
:1053900045A0FDF751FF35488078012802D1FDF77F
:1053A000F3F801E0FDF7E6F854E0E0782F49C87023
:1053B0000846C17844A0FDF73FFF2C48C07801287B
:1053C00003D16420FCF78DFD01E0FCF785FD41E091
:1053D0002079264908710846017943A0FDF72CFF82
:1053E00022480079012803D14548FDF7A3F902E0DE
:1053F0000020FDF79FF92DE02CE02BE02AE029E0CA
:1054000028E026E026E025E099F800103DA0FDF711
:1054100013FF1FE03EA0FDF70FFF1BE0A9796A799B
:105420002B79A868CDE90032CDE90210EB78AA7893
:1054300029883CA0FDF700FF0CE045A0FDF7FCFE2D
:1054400048A0FDF7F9FE9AF800104AA0FDF7F4FE17
:1054500000E000BF00BF08F1010000F0FF0838784D
:1054600040453FF75AAF002051E70000640100209B
:105470004576743A204556454E545F4865617465DB
:1054800072202564200A00004576743A204556456E
:105490004E545F496E5F576174657250756D702030
:1054A0002564200A000000004576743A20455645E0
:1054B0004E545F4F75745F576174657250756D70AF
:1054C000202564200A0000004576743A20455645A0
:1054D0004E545F46696C6C5F496E5F4C69676874D7
:1054E000202564200A0000004576743A2045564580
:1054F0004E545F536572766F202564200A000000C9
:1055000000007042525353492025640A00000000F5
:105510005452414E53504152454E545F44415441C0
:10552000200A0000574946495F4E5450203A205BFC
:1055300025642D25642D256420253032643A2530DC
:1055400032643A253032645D5B25645D200A0000D8
:105550004D4F44554C4520494E464F202E2E2E0A85
:1055600000000000574946204D4F44554C45202E21
:105570002E2E0A006D6F64756C6554797065203A43
:10558000205B25645D200A002DE9F041A0B00546AE
:10559000002600200290019000248046002735B9A3
:1055A00082A0FDF749FE601E20B0BDE8F081FEF745
:1055B00063FD02AA87498848FEF704FF0646002ECD
:1055C00071D186A0FDF738FE824C20790F284FD08C
:1055D0000ADC0E2873D2DFE800F07216721A7272BB
:1055E000433872724472453C182852D006DC1128A8
:1055F00047D0142846D0162861D134E0222854D050
:105600002A285CD130E02046FEF71EFE5FE0E279FA
:10561000A17977A0FDF710FE01A8009007F109001D
:10562000BDF808301A1A6B480830C11903AB404660
:10563000FFF78EF840B9E37903A92046019AFEF7F7
:10564000E7FF6FA0FDF7F8FD41E02046FEF75AFDA9
:105650003DE02046FEF756FD2046FFF767F936E0AD
:1056600000BF00BF00BF00BF2046FFF7B9FC2EE01F
:105670002046FEF747FD65A0FDF7DEFDFFF71EFCA7
:1056800025E024E02046FFF7ABFC65A0FDF7D4FD44
:105690001DE02046FFF7A4FC2046FFF7C9FB68A0E9
:1056A000FDF7CAFD13E013E009E02046FFF798FC80
:1056B0002046FFF70DF968A0FDF7BEFD07E00221C7
:1056C0002046FEF76FFD6BA0FDF7B6FD00BF0DE0B5
:1056D00016F1020F0AD13F4C01212046FEF762FD70
:1056E0006AA0FDF7A9FD6FF001005DE73948401E93
:1056F0000078062852D2DFE800F05103142530412B
:1057000000203449491E0870152201F59671A1F157
:105710006B00FFF7EDFD17212E48C030FAF767FD4B
:105720003DE000202B49491E0870012201F5AB71B4
:10573000A1F17E00FFF7DCFD17212648D730FAF7EC
:1057400056FD2CE000202349491E087008463A31D6
:10575000426FC130FFF7CCFD21E000201D49491EFA
:1057600008700C2201F5AC71A1F16900FFF7C0FDD2
:1057700017211848EE30FAF73AFD10E000201549DD
:10578000491E0870412201F5B271A1F15E00FFF7D8
:10579000AFFD41214348FAF72AFD00E000BF00BFFA
:1057A0002846FEF7F1FB0020FEE6000047697A7705
:1057B00069747348616E646C65204572726F722003
:1057C0002C20496C6C6567616C20506172616D0AB8
:1057D000000000007D0100202403002047657420A4
:1057E0004F6E65205061636B6574210A00000000F4
:1057F000666C6167202578202578200A000000006B
:1058000041636B44617461203A200A007265706FD5
:1058100072743A4D4355207265626F6F74210A00AD
:1058200041636B2050524F44554354494F4E5F4D96
:105830004F44452073756363657373200A0000004D
:1058400041636B204745545F55545420737563631F
:10585000657373200A00000041636B204745545F65
:105860004D6F64756C652073756363657373200A8F
:10587000000000004552523A20636D6420636F645B
:1058800065206572726F72210A0000004552523A1B
:1058900020636865636B2073756D206572726F722B
:1058A000210A00008202002010B572200A49086017
:1058B0000A48C860084600F0BDFC18B908A0FDF70A
:1058C000BBFC02E00BA0FDF7B7FC4FF4D4710E480F
:1058D000FAF78DFC10BD00002403002034030020E3
:1058E0007262437265617465205375636365737397
:1058F000200A000072624372656174652046616926
:105900006C64200A000000007C01002030B587B0E4
:1059100005460024062D7CD2DFE805F0032E5B8AC5
:10592000B5E001A8FEF74CFE0B208DF80800854875
:1059300090F87810806F401C824A9067C8B28DF84A
:1059400009000520FDF718FFADF80600092101A8A0
:10595000FFF700FB8DF80C00092101A800F014FDF1
:105960000446002C03DA214677A0FDF765FC0921E7
:1059700001A8FFF703FBE0E004A8FEF721FE0920E1
:105980008DF814006F4890F87810806F401C6D4AB5
:105990009067C8B28DF815008DF818500620FDF7F5
:1059A000EBFEADF812000A2104A8FFF7D3FA8DF838
:1059B00019000A2104A800F0E7FC0446002C03DAD1
:1059C000214661A0FDF738FC0A2104A8FFF7D6FAAA
:1059D000B3E004A8FEF7F4FD09208DF8140059483F
:1059E00090F87810806F401C564A9067C8B28DF8C6
:1059F00015008DF818500620FDF7BEFEADF8120018
:105A00000A2104A8FFF7A6FA8DF819000A2104A8B4
:105A100000E08EE000F0B8FC0446002C03DA2146DA
:105A200049A0FDF709FC0A2104A8FFF7A7FA84E0C2
:105A300001A8FEF7C5FD13208DF80800414890F835
:105A40007810806F401C3F4A9067C8B28DF80900FB
:105A50000520FDF791FEADF80600092101A8FFF72A
:105A600079FA8DF80C00092101A800F08DFC04469C
:105A7000002C03DA214634A0FDF7DEFB092101A842
:105A8000FFF77CFA59E001A8FEF79AFD15208DF882
:105A900008002C4890F87810806F401C294A9067C5
:105AA000C8B28DF809000520FDF766FEADF80600C6
:105AB000092101A8FFF74EFA8DF80C00092101A871
:105AC00000F062FC0446002C03DA21461EA0FDF71C
:105AD000B3FB092101A8FFF751FA2EE001A8FEF758
