:020000040800F2
:10000000104C002099010008CD1B00083919000888
:10001000C91B0008710C0008CF2C0008000000006C
:1000200000000000000000000000000001010008C6
:100030009D0F000800000000450100081D25000874
:10004000B3010008B3010008B3010008B3010008C0
:10005000B3010008B3010008B3010008B3010008B0
:10006000B3010008B3010008B3010008B3010008A0
:10007000B3010008B3010008B3010008B301000890
:10008000B3010008B3010008B3010008B301000880
:10009000B3010008B3010008B3010008B301000870
:1000A000B3010008B3010008B3010008B301000860
:1000B000B3010008C1250008B3010008B30100081E
:1000C000B3010008B3010008B3010008B301000840
:1000D000B3010008B3010008C52A0008B3010008F5
:1000E000B3010008B3010008B3010008DFF80CD029
:1000F00000F05AFC00480047F5550008104C00205D
:10010000224B19680868B0E8F00F80F30988BFF344
:100110006F8F4FF0000080F311884EF00D0E704786
:100120000000000006480068006880F3088862B696
:1001300061B6BFF34F8FBFF36F8F00DF00BF00BF0B
:1001400008ED00E0EFF30980BFF36F8F0F4B1A68E3
:1001500020E9F00F106008B54FF0BF0080F3118860
:10016000BFF34F8FBFF36F8F05F058FF4FF00000C4
:1001700080F31188BDE8084019680868B0E8F00FFE
:1001800080F30988BFF36F8F704700BF9C00002089
:10019000EFF3058070470000064880470648004797
:1001A000FEE7FEE7FEE7FEE7FEE7FEE7FEE7FEE727
:1001B000FEE7FEE72D250008ED00000840EA0103F8
:1001C0009B0703D009E008C9121F08C0042AFAD20D
:1001D00003E011F8013B00F8013B521EF9D27047D1
:1001E000D2B201E000F8012B491EFBD27047002279
:1001F000F6E710B513460A4604461946FFF7F0FF26
:10020000204610BDF0B480EA0102D40F4200B2EBE8
:10021000410F02D20246084611464A0042D0C30DA1
:10022000DDB2C1F3C752AD1A202D35DAC1F3160184
:1002300041F4000204B15242C5F1200602FA06F16F
:100240002A411044B3EBD05F23D0C4B1012DA0EB01
:10025000C35009DCF0BC4FF0004202EAC352DBB2EB
:1002600000F5000000F015BB400000F1807000EBCD
:10027000C350A0F1807040EAD170490009E04908FC
:1002800041EAC071A0EBC35000F50000400800EB4C
:10029000C350F0BC00F0F4BA6142012202EB41010C
:1002A000001BF6E7F0BC704781F00041AAE780F040
:1002B0000040A7E780EA010210B502F000434000C9
:1002C00022D04A001FD0010E01EB1261C0F356008C
:1002D000C2F3560240F4000042F40002A0FB0220E8
:1002E00000047F39140400D0401C50EA124001D4AD
:1002F0004000491EC2B20C0604EBD010401C40085E
:10030000802A02D003E0002010BD20F00100002967
:1003100000DA0020184310BD30B480EA010202F078
:10032000004530F0004221F0004013D090B1C30DE1
:10033000D40DC2F31601C0F31600E41A41F4000113
:1003400040F400027D34914201D3641C00E0490076
:10035000002C02DA30BC002070474FF4000000236C
:10036000914201D3891A034340084FEA4101F7D172
:1003700051B1914202D14FF0004105E002D24FF05D
:10038000010101E06FF0010103EBC450284430BCCF
:1003900000F076BA2DE9FE4F804681EA0300C00FD7
:1003A0000C46009021F0004123F00045B8EB02001C
:1003B000A94105D24046214690461C460B460246BE
:1003C00023F00040104347D0270DC7F30A00C3F3C2
:1003D0000A510290401A019040286BDAC3F31300CF
:1003E00040F4801B0098924620B10023D2EB030A10
:1003F00063EB0B0B01985946C0F14002504600F0E8
:100400000EFA06460D4650465946019A00F026FA65
:1004100010EB08006141002487EA115284EAE77377
:100420001A4340D0009A62B3019A012A4FEA075258
:1004300015DC001B61EB02014FF0004202EA07529B
:10044000CDE90042001C41F5801132462B4600F0F8
:100450005DFA03B0BDE8F08F40462146F9E7001B86
:1004600061EB0201001C41F5801300185B4120186C
:10047000A2F5001747EB030140EAD570B6196D41AC
:1004800011E06D084FEA360645EAC0754FEA07529B
:10049000001B61EB0201001C41F5801149084FEA85
:1004A00030000019514132462B4603B0BDE8F04FF1
:1004B00000F01DBA0098012240000023D0EB020298
:1004C00063EBE073009821464FEAE074B8EB00005C
:1004D00061EB0401E9E783F000435BE781F0004151
:1004E00058E72DE9FE4F81EA030404F0004421F0AF
:1004F000004100944FF0000B23F0004350EA010448
:100500005ED052EA03045BD0C3F30A54C1F30A5528
:100510002C44A4F2F3340194A0FB0254C1F3130160
:1005200041F48011C3F3130343F4801301FB02442D
:1005300000FB034E840A970A44EA815447EA835732
:10054000A4FB076802958D0A05FB07854FEA932CEB
:1005500004FB0C542705029D4FEA065847EA16375C
:10056000B5EB08056EEB070C870E920E47EA811774
:1005700042EA8312A7FB0201B6EB0B0164EB000415
:100580002B0D43EA0C335E1844EB1C50DA465146FF
:10059000E7FB0201C5F313044FEA0B3343EA14539C
:1005A0004FEA0432019C43EA0603A4F10C040294CE
:1005B000009CCDE900B400F0A9F903B0BDE8F08FCC
:1005C00000200146F9E72DE9F04D81EA030404F02B
:1005D000004B21F0004514464FF0000A23F0004183
:1005E00050EA050220D054EA01021DD0C5F30A5793
:1005F0000246C5F31303C1F31300C1F30A5640F4D6
:10060000801543F48013A7EB0608101BD64608F2AA
:10061000FD3873EB050002D308F1010801E09218E0
:100620005B41B8F1000F03DA00200146BDE8F08D10
:1006300000204FF48011064684460EE0171B73EB32
:10064000050705D3121B63EB050306434CEA010CB7
:1006500049084FEA300092185B4150EA0107EDD19A
:1006600052EA030012D082EA040083EA050108433B
:1006700005D0101BAB4106D20122002306E0002268
:100680004FF0004302E06FF0010253101AEB060036
:100690004CEB085110EB0A0041EB0B01BDE8F04DAB
:1006A00000F025B9C10F80EAE0700844CA0796231C
:1006B000002100F0EEB80EB540F233410291002166
:1006C000CDE900110A460B4600F020F903B000BD49
:1006D00020F00040C10DC0F3160040F400007F2957
:1006E00001DA00207047962903DCC1F19601C84069
:1006F000704796398840704770B5C1F30A5201F0CF
:1007000000450024C1F3130140F2FF3341F480118E
:100710009A4201DA002070BD40F233439A42A2F2BD
:10072000334203DC524200F089F800E090402C4351
:10073000F1D0404270BD00F0004230F000400AD0DD
:10074000C10D01F56071C0F3160042EA0151C20803
:1007500040071143704700200146704701F00043F5
:1007600030B421F0004150EA010206D00A0DA2F592
:100770006072C1F31301002A02DC30BC0020704714
:10078000440F44EAC104C100E01830BC00EBC25081
:1007900000F076B8002801DBC0F10040002901DB41
:1007A000C1F1004181427047002801DBC0F10040E7
:1007B000002901DBC1F10041884270472DE9F05F5B
:1007C0000546002092469B468846064681464024C0
:1007D0001BE0284641464746224600F02FF8534684
:1007E0005A46C01A914110D311461846224600F0CD
:1007F00016F82D1A67EB01084F462246012000210A
:1008000000F00DF817EB00094E41201EA4F1010481
:10081000DFDC484631462A464346BDE8F09F202AA1
:1008200004DB203A00FA02F1002070479140C2F147
:10083000200320FA03F3194390407047202A04DB79
:10084000203A21FA02F00021704721FA02F3D04049
:10085000C2F120029140084319467047202A06DB66
:10086000CB17203A41FA02F043EAE07306E041FA7E
:1008700002F3D040C2F1200291400843194670476C
:100880000029A8BF7047401C490008BF20F00100A4
:10089000704710B4B0FA80FC00FA0CF050EA010482
:1008A00004BF10BC704749B1CCF1200421FA04F414
:1008B00011FA0CF118BF012121430843A3EB0C01ED
:1008C000CB1D4FEA00614FEA102042BF002010BC50
:1008D000704700EBC35010440029A4BF10BC704700
:1008E000401C490008BF20F0010010BC704710B543
:1008F000141E73F1000408DA401C41F10001921843
:100900005B411A4301D120F0010010BD2DE9F04DEB
:1009100092469B4611B1B1FA81F202E0B0FA80F240
:1009200020329046FFF77BFF04460F4640EA0A005C
:1009300041EA0B0153465A46084313D0114653EA85
:10094000010019D0C8F140025046FFF777FF054675
:100950000E46504659464246FFF761FF084305D010
:10096000012004E020463946BDE8F08D0020054313
:1009700046EAE0762C4337430A986305E40AA0EB85
:1009800008000022FD0A44EA47540A3002D500203C
:100990000146E9E7010510196941DDE9084500193B
:1009A0006941BDE8F04DA2E7064C074D06E0E0685E
:1009B00040F0010394E8070098471034AC42F6D3A6
:1009C000FFF798FBF88000081881000821B18268C1
:1009D00042F00102826003E0826822F0010282603C
:1009E000704721B1826842F48072826003E08268BD
:1009F00022F4807282607047014600208A6802F00B
:100A000004020AB1012000E00020704701460020E6
:100A10008A6802F008020AB1012000E00020704755
:100A200030B502460020002350680F4C20400D795D
:100A30000C6844EA05242043506090680B4C204029
:100A4000D1E902542C434D7944EA45042043906097
:100A5000D06A20F470000C7C641EE4B2234340EAA8
:100A60000350D06230BD0000FFFEF0FFFDF7F1FF44
:100A7000F0B504460D4600200021092D11DDE06887
:100A8000A5F10A0606EB4607072606FA07F1884392
:100A9000A5F10A0606EB460603FA06F10843E060F4
:100AA0000CE0206905EB4507072606FA07F18843A5
:100AB00005EB450603FA06F108432061072A0FDA21
:100AC000606B561E06EB86071F2606FA07F1884361
:100AD000561E06EB860605FA06F10843606322E01F
:100AE0000D2A0FDA206BD61F06EB86071F2606FAA3
:100AF00007F18843D61F06EB860605FA06F1084380
:100B0000206310E0E06AA2F10D0606EB86071F26BF
:100B100006FA07F18843A2F10D0606EB860605FAF0
:100B200006F10843E062F0BD816841F00801816090
:100B3000704721B1826842F4A002826003E08268BB
:100B400022F4A00282607047816841F00401816054
:100B50007047000000B591B00121480201F0ACFBE4
:100B60000121042001F0A8FB0121084601F084FBCB
:100B70004FF4004001F074FB00208DF84300E020AA
:100B8000ADF8400003208DF8420010A9344800F071
:100B900021FE0523012219463248FFF769FF05238C
:100BA000022206212F48FFF763FF052303220721B6
:100BB0002C48FFF75DFF00200B900E9001208DF870
:100BC00031004FF460200D9001208DF8300003209B
:100BD0008DF83C000BA92348FFF722FF21484C3039
:100BE000009080150690002004901F4801904FF45B
:100BF00080600790802005900020029003200390E1
:100C00002020089000200A904FF4805009906946F7
:100C1000164800F06FF80121144800F05FF8012138
:100C20001048FFF7DEFE01210E48FFF7CFFE0D480A
:100C3000FFF77AFF00BF0B48FFF7E8FE0128FAD064
:100C40000848FFF781FF00BF0648FFF7D5FE0128DF
:100C5000FAD001210348FFF76CFF11B000BD00007E
:100C60000008014000240140180000200800024054
:100C700000BFFEE708B50121042001F01DFB102094
:100C80008DF80300ADF8000003208DF802006946DE
:100C9000024800F09FFD00F003F808BD0008014085
:100CA00010B51021014800F034FE10BD00080140CD
:100CB00010B51021014800F02AFE10BD00080140C7
:100CC00010B51021044800F019FE10B9FFF7E8FF35
:100CD00001E0FFF7EDFF10BD0008014021B10268FF
:100CE00042F00102026004E002684FF6FE731A400F
:100CF0000260704710B50022026847F6F0739A430D
:100D00000C6A8B6823430C6923434C6923438C6929
:100D10002343CC6923434C6A23438C6A23431A43FD
:100D20000260CB6843600B6883604B68C36010BD92
:100D300010B50024002000F08BF804E0601CC4B261
:100D4000012001F023FC01210E4800F0CEFD08B186
:100D5000C82CF3DBC82C01DB012010BD002404E00B
:100D6000601CC4B2012001F011FC0121054800F013
:100D7000BCFD08B9F02CF3DBF02C01DB0120ECE723
:100D80000020EAE7000C01402DE9F84F00F0CAF816
:100D900000F0B2F8FFF7CCFFCC2000F0CFF8BE2077
:100DA00000F0CCF800F096F8834600F093F8044683
:100DB000072C08DDE043C4B26FEA0B0000F0FF0B24
:100DC0004FF0000A01E04FF0010AA1464FEA092066
:100DD0000FFA80F909EB0B000FFA80F94846FFF78C
:100DE00061FC0090FFF7A7FC07460022084BFFF7C5
:100DF00078FB0546FFF780FC0FFA80F9BAF1000F87
:100E000002D04846BDE8F88FC9F1000000B2F9E70A
:100E10000000E43F08B50121082001F04DFA102040
:100E20008DF803000120ADF8000003208DF80200CA
:100E30006946064800F0CEFC0121044800F069FD37
:100E400000F05AF8FFF774FF08BD0000000C0140E5
:100E500038B504460121082001F02EFA4CB11020CB
:100E60008DF803000120ADF8000003208DF802008A
:100E700005E004208DF803000120ADF8000069466C
:100E8000014800F0A7FC38BD000C014010B501205E
:100E9000FFF7DEFF01210E4800F039FD022001F0CE
:100EA00075FB01210A4800F034FD0020FFF7D0FF58
:100EB0000C2001F06BFB0121054800F016FD08B184
:100EC000012400E00024322001F060FB204610BD28
:100ED000000C014070B50026002508E0FFF7D6FFA2
:100EE0000446E00140EA6600C6B2681CC5B2082D9F
:100EF000F4DB304670BD000010B50120FFF7A8FFFD
:100F00000121074800F003FD40F2EE2001F03EFB16
:100F10000121034800F0FDFC0F2001F037FB10BD5C
:100F2000000C014010B5FFF7E7FFFFF701FFCC20F1
:100F300000F004F8442000F001F810BD70B504463C
:100F40000120FFF785FF002522E004F00106641070
:100F500076B10121104800F0DAFC022001F016FB06
:100F600001210D4800F0D5FC3C2001F00FFB0DE005
:100F70000121094800F0CBFC3C2001F007FB0121D6
:100F8000054800F0C6FC022001F000FB681CC5B259
:100F9000082DDADB70BD0000000C01407047000036
:100FA0006DE1B748007820B1012874D0022873D1D0
:100FB000F8E00020B3490870B3490870B3490870DD
:100FC000B3480078012825D1B2480088401CB149B7
:100FD0000880088800EBD0714910A0EB410101297D
:100FE00010D1AD480078012806D101F0F7F80020B3
:100FF000A9490870A949088001F028F90120A849E9
:10100000087004E001F018F90020A54908700020DC
:101010009F490870A3480078012825D19F4800887F
:10102000401C9E490880088800EBD0714910A0EB55
:101030004101012910D19A480078012806D101F018
:10104000FBF80020964908709249088001F0D0F81A
:1010500001209149087004E001F0C0F800208E4999
:10106000087000208F4908708F48007801281CD133
:101070008E480088401C8D490880088800EBD0719C
:101080004910A0EB4101012907D100F0D9FF01204F
:101090008749087006E02AE0DBE000F0C9FF002085
:1010A0008349087000208049087082480078012830
:1010B0001CD181480088401C7F490880088800EBCB
:1010C000D0714910A0EB4101012906D17B4801F004
:1010D00093F901207A49087005E0002001F08CF9AD
:1010E000002077490870002072490870B1E00020A4
:1010F000704908706C4908706A4908706449087042
:101100006049087060490870604908706D4800883F
:101110006D490978884211DA5F480078E0B9604883
:101120000078012804D101F087F800205C4908709C
:1011300001F05EF80120584908700DE06148008810
:1011400062490978884207DB5348007820B101F0F2
:1011500045F80020504908705D48B0F90000B0F52E
:10116000827F08DA5248007868B900F069FF0120F0
:101170004F49087007E04E48007820B100F058FF52
:1011800000204B49087053480088C0F1640046288D
:1011900005DA50490988C8B200F00DFD01E000F001
:1011A00005FD56E03C48007808B101F017F83C48CE
:1011B000007808B101F040F83D48007808B100F02F
:1011C00037FF3F48007810B1002001F015F900F01A
:1011D000EDFC00203A490870354908703049087024
:1011E0002D49087034490880304908802949088011
:1011F0002A4908802F4908702A4908702449087034
:10120000294908701F480078012808D1022004F0FD
:10121000B9F801203049087000201A4908701A48AE
:101220000078012807D104F0ADF802202A4908709F
:1012300000201549087015480078012808D10020C1
:1012400004F0A0F803202449087000200F4908701A
:1012500000BF00BF1B4800881C490978884205DA96
:101260001848008818490978884202DCFFF728FDF1
:1012700001E0FFF715FD4FF4FA7004F077FE90E6F9
:10128000820000207E0000207F00002080000020DF
:101290007C0000206E0000207800002070000020FC
:1012A000770000207B0000207D0000206C000020E3
:1012B000790000207A0000207200002000007042B7
:1012C00076000020660000207500002074000020D9
:1012D0006A000020680000208100002070B50546EB
:1012E000002D51D000F0B6FC10220721012000F0A3
:1012F000F3FD11220821012000F0EEFD272201213B
:10130000084600F0E9FD28220221012000F0E4FD5A
:101310003FA20521012000F037FE3EA20821012056
:1013200000F032FE25220121022000F0D5FD262208
:101330000221084600F0D0FD35A20521022000F070
:1013400023FE04220121032000F0C6FD0522022114
:10135000032000F0C1FD2EA20521032000F014FEA1
:101360002CA20821032000F00FFE1A2201210420E4
:1013700000F0B2FD1C220221042000F0ADFD24A2E9
:101380000521042000F000FE0223234802880621E4
:10139000012000F0D7FD0423204802880621022006
:1013A00000F0D0FD1E480088C0F16402022306212F
:1013B000032000F0C7FD1B48B0F90040002C07DAFD
:1013C0002D220621042000F04DFD604204B204E00D
:1013D0002B220621042000F045FD0A2094FBF0F6A4
:1013E000022332460721042000F0ACFD2E22092101
:1013F000042000F037FD0A2094FBF0F100FB1146B9
:10140000012332460146042000F09CFD70BD00001F
:101410003A00000025000000660000206400002063
:10142000680000206A00002010B50446002C47D058
:1014300000F010FC12220721012000F04DFD1322C4
:101440000821012000F048FD50220121084600F04B
:1014500043FD51220221012000F03EFD2FA2052173
:10146000012000F091FD52220121022000F034FD04
:1014700053220221084600F02FFD28A20521022058
:1014800000F082FD56220121032000F025FD5722A5
:101490000221032000F020FD20A20521032000F0FE
:1014A00073FD4E220121042000F016FD4F2202217F
:1014B000042000F011FD19A20521042000F064FDB4
:1014C0001748007808B117A000E017A002460621CF
:1014D000012000F059FD1548007808B111A000E086
:1014E00011A002460621022000F04EFD10480078AF
:1014F00008B10CA000E00CA002460621032000F079
:1015000043FD0C48007808B106A000E006A00246A2
:101510000621042000F038FD10BD00003A00000054
:10152000770000204F4E20004F46460078000020F4
:1015300079000020760000203EB505462DB300F06E
:1015400089FB08220121084600F0C6FC092202217D
:10155000012000F0C1FC19A20521012000F014FDBA
:10156000174AD2E900109268CDE9010200910024E7
:1015700008E05DF82420A11CC8B2032100F004FD9E
:10158000601C44B2032CF4DB00BF002412E00D48C1
:101590000078844206D1A11CC8B20BA2012100F040
:1015A000F3FC05E0A11CC8B208A2012100F0ECFC8C
:1015B000601C44B2032CEADB3EBD00003A00000090
:1015C000D4800008840000203E00000020000000BD
:1015D00070B50546002D2ED000F03CFB14220721EB
:1015E000012000F079FC15220821012000F074FC94
:1015F0003BA20121084600F0C7FC3BA201210320C9
:1016000000F0C2FC3AA20721032000F0BDFC39A281
:101610000A21032000F0B8FC37A20121042000F0C9
:10162000B3FC33A20721042000F0AEFC34A20A214F
:10163000042000F0A9FC022333480288052103207E
:1016400000F080FC0423314802880D21032000F0C3
:1016500079FC2F480088C0F1640202230521042090
:1016600000F070FC2B48B0F90040002C07DA2D2266
:101670000E21042000F0F6FB604204B204E02B22AD
:101680000E21042000F0EEFB0A2094FBF0F602236A
:1016900032460F21042000F055FC1F480078012835
:1016A00005D11EA20121022000F06EFC17E01A48AD
:1016B0000078022804D11CA2012100F065FC0EE094
:1016C00015480078032805D11AA20121022000F054
:1016D0005BFC04E01AA20121022000F055FC70BD61
:1016E0004D6F64653A0000006C65763A00000000BA
:1016F0002500000074733A0070686F3A0000000023
:1017000074656D3A0000000066000020640000204F
:10171000680000206A000020810000204169724CAE
:10172000696E6B2020000000536F667441502020CA
:1017300020000000526573657474696E67000000D4
:101740004E6F6E652020202020000000002437E02E
:101750001C4800781C490978884208D1194800784B
:1017600078B91A4800781A490978884209D00124C2
:101770001448007814490870144800781449087017
:1017800000E000240F480078A0B91048007820B18C
:10179000012806D002280CD107E02046FFF744FEBE
:1017A00007E02046FFF79AFD03E02046FFF710FF11
:1017B00000BF02E02046FFF7BFFE642004F0D6FB26
:1017C000C6E7000083000020850000208200002082
:1017D000860000202DE9F041024600250026002069
:1017E00000230024002791F803C00CF00F0591F8A6
:1017F00003C00CF0100CBCF1000F03D091F802C034
:101800004CEA050591F800C0BCF1000F31D0146816
:1018100000202BE04FF0010C0CFA00F3B1F800C0EF
:101820000CEA03069E4220D183004FF00F0C0CFA05
:1018300003F7BC4305FA03FC4CEA040491F803C027
:10184000BCF1280F06D14FF0010C0CFA00FCC2F8D5
:1018500014C00AE091F803C0BCF1480F05D14FF065
:10186000010C0CFA00FCC2F810C0401C0828D1D3AF
:101870001460B1F800C0BCF1FF0F34DD54680020E3
:101880002EE000F1080C4FF0010808FA0CF3B1F853
:1018900000C00CEA03069E4221D183004FF00F0CDA
:1018A0000CFA03F7BC4305FA03FC4CEA040491F874
:1018B00003C0BCF1280F05D100F1080C08FA0CF8A0
:1018C000C2F8148091F803C0BCF1480F07D100F1B1
:1018D000080C4FF0010808FA0CF8C2F81080401C00
:1018E0000828CED35460BDE8F081024600209368FA
:1018F0000B400BB1012000E00020704702460020A1
:10190000D3680B400BB1012000E00020704741611B
:101910007047016170470AB1016100E041617047A1
:1019200007E004F057FA034803F06AFBC82004F00C
:101930001DFBF6E70401002000BFFEE770B50024A0
:1019400008E0204600F020F805460DB1284670BD9D
:10195000601CC4B2042CF4DB0020F8E708B50121B8
:10196000082000F0A9FC48208DF803004FF47040D7
:10197000ADF8000003208DF8020069460148FFF72A
:1019800029FF08BD000C01402DE9F041044602F09A
:10199000B7F80646324830F814103248FFF7A5FF72
:1019A00005463148075D07F10A0000F0FF0804EB27
:1019B00044002E4911F82000A84232D08DB904EB22
:1019C000440001EB80004660002004EB4401274AFC
:1019D00002EB8101487204EB440102EB81010872C1
:1019E0001AE004EB4400214901EB8000407A98B9E9
:1019F00004EB44000A4602EB80004068311A1429C7
:101A000009D3B1F57A7F06D204EB440002F82050E6
:101A10003846BDE8F08100BF04EB4400134901F8EB
:101A20002050D5B904EB4400104901EB8000407A06
:101A300098B904EB44000A4602EB80004068311A72
:101A4000B1F57A7F08D3012004EB4402074B03EB86
:101A5000820250724046DCE700BF0020D9E7000058
:101A600058640008000C0140606400082000002059
:101A7000642004F07BFA83E0FFF760FF0446002C4B
:101A80007AD00B2C0BD13F480078002874D101206C
:101A90003C4908703C4800783C4908706CE0012CD7
:101AA00007D139480078002866D1012038490870EC
:101AB00062E0022C1BD13348007801280BD1334857
:101AC000007810B903203149087030480078401E72
:101AD0002E49087050E02C480078022803D10120DC
:101AE0002C49087048E001202B49087044E0032C81
:101AF0001BD12448007801280BD124480078401CD1
:101B00002249087008460078022835DD0020087058
:101B100032E01D480078022803D101201F490870D7
:101B20002AE001201E49087026E0042C1BD115482C
:101B30000078012807D11548007813490870002063
:101B40001049087018E010480078022807D10120D9
:101B50000C4908700C4800780C4908700CE0012012
:101B60001049087008E00E2C06D1074800780228BA
:101B700002D101200C490870142004F0F7F900BFCD
:101B80007AE700008300002082000020840000200B
:101B90007C0000207E0000207B0000207F000020D1
:101BA0007D0000207A0000208000002010B5002079
:101BB00000F0E6FA10BD10B50446642C00DD642484
:101BC000204600F0DDFA10BD00BFFEE770470000C0
:101BD00070B5002100230F22C47804B3154C24688B
:101BE00004F4E064C4F5E064210AC1F10403CA40CE
:101BF000447804FA03F184781440214309010E4C1F
:101C00000678A155047804F01F050124AC4005783E
:101C10006D11AD0005F1E025C5F8004109E004783B
:101C200004F01F050124AC40044D0678761145F8F8
:101C3000264070BD0CED00E000E400E080E100E033
:101C400002490143024A1160704700000000FA0592
:101C50000CED00E070B500240EE00021204600F0FD
:101C6000F0F8002504E0002000F0B6F9681CC5B2C9
:101C7000802DF8DB601CC4B2082CEEDB70BD0000C8
:101C800008B50121082000F017FB14208DF803008F
:101C900003208DF802004FF48070ADF80000694613
:101CA0000A48FFF797FD4FF40070ADF80000694651
:101CB0000648FFF78FFD012211020448FFF72BFEB3
:101CC000012251020148FFF726FE08BD000C014029
:101CD00070B50546002415E08020204100EA050289
:101CE0004FF400710E48FFF716FE012211020C4856
:101CF000FFF711FE00224FF480710948FFF70BFE39
:101D0000601CC4B2082CE7DB012211020448FFF773
:101D100002FE00224FF480710148FFF7FCFD70BD08
:101D2000000C014010B5012251020A48FFF7F3FDF3
:101D3000012211020748FFF7EEFD00224FF4007167
:101D40000448FFF7E8FD00224FF480710148FFF7D7
:101D5000E2FD10BD000C014010B500224FF40071EF
:101D60000648FFF7D8FD012211020448FFF7D3FD12
:101D7000012251020148FFF7CEFD10BD000C0140C9
:101D800070B5002406E0002500E06D1CB5F57A7FF3
:101D9000FBD3641CB4F57A7FF5D3FFF771FFAE2057
:101DA00000F006F9D52000F003F9802000F000F9DA
:101DB000A82000F0FDF83F2000F0FAF8D32000F052
:101DC000F7F8002000F0F4F8402000F0F1F8A1202E
:101DD00000F0EEF8C82000F0EBF8DA2000F0E8F8A8
:101DE000122000F0E5F8812000F0E2F8CF2000F0AA
:101DF000DFF8D92000F0DCF8F12000F0D9F8DB2082
:101E000000F0D6F8302000F0D3F8A42000F0D0F88D
:101E1000A62000F0CDF88D2000F0CAF8142000F0C4
:101E2000C7F8AF2000F0C4F8FFF714FF70BD10B57D
:101E30000246012000E050430B1EA1F10101FAD13E
:101E400010BD70B505460C4645F0B00000F0B0F886
:101E5000102141EA141000F0ABF804F00F0000F07C
:101E6000A7F870BD2DE9F04105460E461746721ED3
:101E7000D206110E6A1E5206100EFFF7E2FF002472
:101E800009E0A7F12001134A02EB0111085D00F0FF
:101E9000A3F8601CC4B2082CF3DB721ED206110E2C
:101EA0006A1E012303EB4202D0B2FFF7CAFF0024EF
:101EB0000BE0A7F12001074A02EB011204F108012F
:101EC000505C00F089F8601CC4B2082CF1DBBDE85E
:101ED000F0810000646400082DE9F04105460E46DB
:101EE0001746721E1207110E6A1E5206100EFFF7D9
:101EF000A8FF002407E0124A02EB8711085D00F0FA
:101F00006BF8601CC4B2102CF5DB721E1207110EA8
:101F10006A1E012303EB4202D0B2FFF792FF0024B6
:101F200009E07900491C064A02EB4111085D00F006
:101F300053F8601CC4B2102CF3DBBDE8F081000044
:101F4000546A00082DE9F04780460E4617461D46A4
:101F5000002415E0281B411E0A20FFF768FFB7FB8D
:101F6000F0F00A21B0FBF1F201FB120000F13009A0
:101F70003019C1B24A464046FFF774FF601CC4B234
:101F8000AC42E7DBBDE8F0872DE9F04107460E469D
:101F90001546002407E02A5D3019C1B23846FFF724
:101FA00061FF601CC4B2285D0028F4D1BDE8F08157
:101FB00010B5044603F086FFFFF7B4FE7820FFF764
:101FC00087FE0020FFF784FE2046FFF781FEFFF723
:101FD000C3FE03F089FF10BD10B5044603F072FF85
:101FE000FFF7A0FE7820FFF773FE4020FFF770FE9A
:101FF0002046FFF76DFEFFF7AFFE03F075FF10BD43
:1020000008B50121082000F057F910208DF80300D1
:102010000220ADF8000003208DF802006946034855
:10202000FFF7D8FB00F004F808BD0000000C0140E9
:1020300010B502210148FFF76AFC10BD000C0140F9
:1020400010B502210148FFF764FC10BD000C0140EF
:1020500000B589B00121084600F01EF901210420D5
:1020600000F02AF918208DF8230003208DF82200B3
:102070000120ADF8200008A93A48FFF7ABFB4FF06C
:10208000804000F0D9FA0020ADF81A00ADF8160033
:1020900044F61F60ADF818004720ADF8140000208A
:1020A0008DF81C0005A94FF0804000F077FB01A8D7
:1020B00000F066FB6020ADF804000020ADF80C00D5
:1020C0000120ADF806000020ADF80A0001A94FF08C
:1020D000804000F0B7FA0121880700F087FA01215B
:1020E000042000F0D9F80121082000F0E5F81820BC
:1020F0008DF8230003208DF822008020ADF8200009
:1021000008A91948FFF766FB184800F095FA002067
:10211000ADF81A00ADF816006320ADF8180047209E
:10212000ADF8140000208DF81C0005A90F4800F040
:1021300035FB01A800F024FB6020ADF8040000206E
:10214000ADF80C000120ADF806000020ADF80A0043
:1021500001A9064800F0C2FA0121044800F046FA3D
:1021600009B000BD00080140000C0140000800401B
:1021700010B5044621464FF0804000F00BFB10BD27
:1021800010B504462146024800F006FB10BD0000D1
:102190000008004030B50021002304E00C4CA48866
:1021A00021445C1CE3B20A2BF8DB0A23B1FBF3F3F6
:1021B0009AB2084B1B88D31A64246343064C2488C4
:1021C000044D2D88641B93FBF4F398B230BD0000DE
:1021D00018000020140000201600002010B54FF455
:1021E00080610248FFF793FB10BD0000000C014026
:1021F00010B54FF480610248FFF78BFB10BD000063
:10220000000C014008B50121082000F055F810200D
:102210008DF803004FF44060ADF8000003208DF806
:10222000020069460348FFF7D5FAFFF7D7FF00F031
:1022300003F808BD000C014010B54FF400610248DE
:10224000FFF765FB10BD0000000C014010B54FF416
:1022500000610248FFF75DFB10BD0000000C01406B
:1022600001460020034A506820F440400843506073
:10227000704700000010024029B1064A526902432B
:10228000044B5A6104E0034A52698243014B5A618C
:10229000704700000010024029B1064AD26902438B
:1022A000044BDA6104E0034AD2698243014BDA61EC
:1022B000704700000010024029B1064A92690243AB
:1022C000044B9A6104E0034A92698243014B9A618C
:1022D000704700000010024030B5002100220024A9
:1022E00000232D4D6D6805F00C0121B1042905D0A6
:1022F000082923D105E0294D056022E0274D05601E
:102300001FE0254D6D6805F47012234D6D6805F4CE
:102310008034022505EB92421CB9214D55430560DE
:102320000BE01D4D6D6805F400351DB11C4D554386
:10233000056002E0194D5543056002E0174D056048
:1023400000BF00BF144D6D6805F0F0010909154D7F
:102350006B5C0568DD4045600F4D6D6805F4E0611C
:10236000090A104D6B5C4568DD4085600A4D6D685B
:1023700005F46051C90A0B4D6B5C4568DD40C560D2
:10238000054D6D6805F44041890B074D6B5CC568D0
:10239000B5FBF3F5056130BD0010024000127A0074
:1023A00000093D0000000020100000201BE000F0AC
:1023B00047FA0D49088000F08DFC0C490880FFF7B2
:1023C000E9FE0B49088003F07DFDFEF795FDFEF761
:1023D000AFFC18B9FEF7D8FC0649088003F084FD6D
:1023E000C82003F0C3FDE2E764000020660000207F
:1023F000680000206A0000202DE9F04104460A49E7
:102400002046FDF789FF80460849FDF753FF074640
:102410000749FDF7F7FE0646FEF75AF985B228464A
:10242000FFF7A6FEBDE8F081000034430000FA4447
:102430000000FA4310B500F001F810BD0CB5002003
:10244000019000903348006840F4803031490860C2
:1024500000BF3048006800F4003000900198401C34
:102460000190009818B90198B0F5A06FF1D12948F2
:10247000006800F4003010B10120009001E000205D
:1024800000900098012843D12348006840F01000D4
:10249000214908600846006820F0030008600846EB
:1024A000006840F0020008601A4840681949486016
:1024B0000846406848600846406840F480604860CC
:1024C0000846406820F47C1048600846406840F4A4
:1024D000E81048600846006840F08070086000BF5F
:1024E0000C48006800F000700028F9D009484068E6
:1024F00020F00300074948600846406840F00200A9
:10250000486000BF0348406800F00C000828F9D17B
:102510000CBD0000001002400020024010B503F086
:1025200015FE012801D003F0C3FD10BD10B51348FE
:10253000006840F0010011490860084640681049F1
:1025400008400E494860084600680E4908400B499B
:1025500008600846006820F480200860084640684B
:1025600020F4FE0048604FF41F008860FFF762FF10
:102570004FF000600449086010BD000000100240E8
:102580000000FFF8FFFFF6FE08ED00E002460B4BEF
:102590001888831899B281420ADA00BF074B1B885A
:1025A0008342FBDA00BF054B1B888B42FBDB04E058
:1025B00000BF024B1B888B42FBDB7047242C014081
:1025C00010B50121054800F01DF828B1012103488C
:1025D00000F009F802F026FB10BD000000040040E6
:1025E000CA4302827047CA430282704721B10288FF
:1025F00042F00102028004E002884FF6FE731A40A6
:102600000280704730B50246002000230024158A5E
:1026100005EA0103958905EA010413B10CB1012013
:1026200000E0002030BD1AB183890B43838102E0B2
:1026300083898B438381704701894FF6F87211407B
:102640000181704770B5002400220023058C4FF6ED
:10265000FE7635400584028C8388048B4FF68F7597
:102660002C40B51E2C400D882C43751E2A400D8928
:102670002A434D882A43144DA8420BD0134DA8423B
:1026800008D0134DA84205D0124DA84202D0124DD9
:10269000A84213D14FF6F7752A404D892A434FF6C9
:1026A000FB752A408D882A434FF6FF652B404FF675
:1026B000FF552B408D892B43CD892B438380048389
:1026C000CD888586028470BD002C01400034014015
:1026D00000400140004401400048014070B5002422
:1026E00000220023058C4FF6EF7635400584028CDE
:1026F0008388048B48F6FF752C404FF6FF452C402D
:102700000D884FF6FF7606EA05252C434FF6DF7558
:102710002A400D8906EA05152A434D8806EA051563
:102720002A43154DA84202D0144DA8421DD14FF6A0
:102730007F752A404D894FF6FF7606EA05152A4334
:102740004FF6BF752A408D8806EA05152A434FF6D5
:10275000FF352B404FF2FF752B408D8906EA85052A
:102760002B43CD8906EA85052B4383800483CD88DE
:102770000587028470BD0000002C01400034014038
:102780000021018041808180C1800181418181815E
:10279000C181704781867047018770470022028897
:1027A0001D4B98420ED01D4B98420BD0B0F1804F7C
:1027B00008D01B4B984205D01A4B984202D01A4BB6
:1027C000984204D14FF68F731A404B881A43174B27
:1027D000984207D0164B984204D04FF6FF431A4058
:1027E000CB881A4302808B8883850B8803850A4B2C
:1027F00098420BD0094B984208D00E4B984205D016
:102800000D4B984202D00D4B984201D10B7A0386B2
:102810000123838270470000002C014000340140F6
:102820000004004000080040000C00400010004080
:1028300000140040004001400044014000480140B5
:102840002DE9F05F1F48B0F800A040F6FA7082450D
:1028500002DB0020BDE8F09F5046FDF72CFF8046CC
:102860000022194BFDF7AFFE06464FF06632174BBC
:10287000FDF737FE0446FDF771FF83465846FDF726
:102880005AFF0646124A134BFDF72BFE0446104A28
:10289000114BFDF77FFD8046FDF760FF8346002169
:1028A0005846FDF777FF01D24FF0000B0B49584611
:1028B000FDF77AFF01D2DFF824B05846FDF708FF94
:1028C00080B2C7E7180000200000B04066660A40EA
:1028D0003D0AD7A370C58AC07085694000803B451A
:1028E0000EB50121C802FFF7E7FC0020ADF8060095
:1028F000ADF802004FF6FF70ADF804004720ADF8C8
:10290000000000208DF8080069460448FFF746FFE4
:1029100001210248FFF76AFE0EBD0000002C0140B5
:102920007FB505460C464FF4A060FFF789F91D20DE
:102930008DF80C0001208DF80F0005208DF80D009A
:1029400003208DF80E0003A8FFF742F901210220B1
:10295000FFF7A2FC0020ADF80600ADF80200ADF8CC
:102960000450ADF800408DF8080069460848FFF7AC
:1029700015FF01210648FFF733FE012211460448E6
:10298000FFF751FE01210248FFF730FE7FBD000036
:102990000004004000B585B001218803FFF78CFCDE
:1029A00001210420FFF788FC18208DF813004FF454
:1029B0000070ADF8100003208DF8120004A915482E
:1029C000FEF708FF04208DF813000002ADF8100098
:1029D00003208DF8120004A90E48FEF7FBFE4FF409
:1029E000E13000900020ADF80C000C20ADF80A009A
:1029F0000020ADF80800ADF80600ADF80400694607
:102A0000054800F0EFF80121034800F082F805B016
:102A100000BD0000000801400038014000B587B04B
:102A200001210420FFF748FC18208DF81B0004202A
:102A3000ADF8180003208DF81A0006A91F48FEF70C
:102A4000C9FE04208DF81B000820ADF8180006A967
:102A50001A48FEF7BFFE26208DF8140001208DF8DD
:102A6000170005208DF8150002208DF8160005A826
:102A7000FFF7AEF801214804FFF70EFC4FF41650A3
:102A800001900020ADF810000C20ADF80E000020E1
:102A9000ADF80C00ADF80A00ADF8080001A908482F
:102AA00000F0A0F8012240F22551054800F074F82A
:102AB0000121034800F02DF807B000BD00080140D7
:102AC0000044004008B540F22551094800F03AF8AA
:102AD00068B140F22551064800F00CF8044800F0B7
:102AE000EDF8C0B200900121684601F0E7FF08BD93
:102AF0000044004010B50022002340F66A14A142B1
:102B000000D100BF0A1201249440A3B2DC43048028
:102B100010BD21B1828942F40052828104E0828991
:102B20004DF6FF731A408281704702460020B1F5CE
:102B3000007F00D100BF13880B400BB1012000E0E3
:102B40000020704770B502460024002300250020B5
:102B500040F66A16B14200D100BFC1F3421501F040
:102B60001F03012606FA03F3012D02D19689334093
:102B700006E0022D02D1168A334001E0968A3340E6
:102B80000C12012606FA04F41688344013B10CB175
:102B9000012000E0002070BDF0B5034600240026AF
:102BA0000025002040F66A17B94200D100BF184640
:102BB000C1F3421401F01F06012707FA06F5012CA4
:102BC00001D10C3004E0022C01D1103000E01430AF
:102BD0001AB107682F43076002E00768AF43076038
:102BE000F0BD00002DE9F04786B005460E460024F2
:102BF000A24600BFA1460027B08900B100BF2F4602
:102C00002C8A4CF6FF700440F08804432C82AC8977
:102C10004EF6F3100440B0883189084371890843A7
:102C20000443AC81AC8A4FF6FF400440B0890443B2
:102C3000AC8201A8FFF750FB1F48874202D1DDF8A4
:102C400010A001E0DDF80CA0A88900F4004040B11C
:102C50000AEBCA0000EB0A1031684900B0FBF1F83A
:102C600007E00AEBCA0000EB0A1031688900B0FBEC
:102C7000F1F86420B8FBF0F004012009642101FBA5
:102C80001089A88900F4004040B1322000EBC9004F
:102C9000B0FBF1F000F00700044308E0322000EB45
:102CA00009106421B0FBF1F000F00F0004432C8107
:102CB00006B0BDE8F0870000003801400146888872
:102CC000C0F308007047C1F308028280704700BF5C
:102CD000FEE7000030B50021002304E00C4C6488BE
:102CE00021445C1CE3B20A2BF8DB0A23B1FBF3F3AB
:102CF0009AB2084B1B88D31A64246343064C248879
:102D0000044D2D88641B93FBF4F398B230BD000092
:102D10001800002014000020160000200FB4054BFE
:102D200010B503A9044A029800F018F810BC5DF829
:102D300014FB000045320008FC00002002E008C837
:102D4000121F08C1002AFAD170477047002001E025
:102D500001C1121F002AFBD1704700002DE9FF4F6F
:102D60008DB00F460546002606E025280BD0DDE98C
:102D70000F1290476D1C761C28780028F5D111B0F1
:102D80003046BDE8F08F0024A246A1460122EC495E
:102D900000E0044315F8013F203B02FA03F008422B
:102DA000F7D128782A2810D06FF02F022878A0F1C8
:102DB0003001092914D80AEB8A0102EB410144F0E1
:102DC000020400EB010A6D1CF0E701CF5FEA000A84
:102DD00003D544F40054CAF1000A44F002046D1C07
:102DE00028782E2817D115F8010F44F004042A285A
:102DF0000ED06FF02F022878A0F1300109290AD8EF
:102E000009EB890102EB410100EB01096D1CF2E7BE
:102E100057F8049B6D1C28786C280FD006DC4C28D2
:102E200017D068280DD06A2814D104E0742810D077
:102E30007A280FD10DE044F400140AE044F4801421
:102E400001E044F440146978814202D104F5801411
:102E50006D1C6D1C2A786E2A1FD00CDC632A31D0C1
:102E600004DC002A8BD0582A11D1A3E0642A68D050
:102E7000692A0CD165E0732A2ED004DC6F2A73D046
:102E8000702A04D19BE0752A6FD0782A6ED0104644
:102E9000DDE90F129047761C50E1C4F3025002287E
:102EA00006D0032809D0042801CF09D0066045E1E7
:102EB00001CFF117C0E9006140E101CF06803DE19B
:102EC00006703BE117F8040B8DF8000000208DF828
:102ED0000100EB46012003E057F804BB4FF0FF3040
:102EE00061074FF0000102D40DE008F101018846AE
:102EF00049450FDA8045F8DB1BF808100029F4D1AA
:102F000008E008F1010188468142FADB1BF808104D
:102F10000029F6D1DDE90F23AAEB080081462146FE
:102F200000F036F9304400EB080604E0DDE90F124A
:102F30001BF8010B9047B8F10108F7D2214648462B
:102F4000F7E00A21C4F302534FF0000B0891022B63
:102F500004D001CFC117032B09D00AE0FF1D27F0D1
:102F60000707F7E8020108E032E01FE020E000B2C6
:102F7000C117042B01D140B2C117031E71F1000328
:102F800007DA4FF0000CD0EB0C006CEB01012D23A5
:102F900002E0230504D52B238DF82430012303E020
:102FA000E30701D02023F7E7984658E00A2110E014
:102FB00010210EE010204FF0000B08900CE01021C3
:102FC0004FF0000B44F004044FF00809089103E0AF
:102FD00008214FF0000B0891C4F30253022B04D0D8
:102FE00001CF0021032B06D006E0FF1D27F00707C5
:102FF000F7E8020103E080B2042B00D1C0B24FF029
:10300000000823072BD5702A07D0DDF820C08CF0EC
:10301000100C5CEA0B0C05D00EE040238DF8243038
:10302000012308E050EA010306D030238DF8243054
:103030008DF8252002239846DDF820C08CF0080C7E
:103040005CEA0B0C0BD150EA010301D1630706D5F2
:1030500030238DF824304FF00108A9F10109582AD6
:1030600004D038A20B9208AA0A920BE03AA2F9E720
:103070005B46089AFDF7A2FB0B9B9B5C0A9A521ECB
:103080000A92137050EA0102F2D10A98ADEB0000E7
:1030900000F1200B600702D524F4803401E04FF0EA
:1030A0000109D94502DDA9EB0B0000E0002000EB8F
:1030B0000B0141440890AAEB010AE00306D4DDE9C4
:1030C0000F232146504600F063F806444FF00009F4
:1030D00008E009A911F80900DDE90F12904709F18C
:1030E0000109761CC145F4DBE0030CD5DDE90F23B3
:1030F0002146504600F04CF8064404E0DDE90F128A
:1031000030209047761C0899481E08900029F5DC6D
:1031100008E00A980A990078491C0A91DDE90F1223
:103120009047761CBBF10001ABF1010BF1DC2146AD
:103130005046DDE90F2300F019F806446D1C1BE62C
:10314000092801003031323334353637383961627D
:103150006364656600000000303132333435363741
:103160003839414243444546000000002DE9F04112
:10317000044600251E461746880404D405E0394657
:103180002020B0476D1C641EF9D52846BDE8F081AB
:103190002DE9F041044600251E469046C80301D59E
:1031A000302700E02027880404D505E04146384652
:1031B000B0476D1C641EF9D52846BDE8F081024673
:1031C00000210020137803F0010303B1491C137898
:1031D000C3F3400303B1491C1378C3F3800303B165
:1031E000491C1378C3F3C00303B1491C1378C3F31C
:1031F000001303B1491C09B9002007E001F00703DF
:103200000BB9C80802E0012303EBD100704701B5F8
:1032100081B000200090694601AA507808701078AB
:103220004870BDF800000CBD0146080601F47F425D
:1032300040EA022001F47F0240EA122040EA1160D5
:103240007047000070B504460D46E1B20548FFF72F
:103250003AFD00BF0348008800F080000028F9D044
:10326000204670BD0038014010B5002821D0114B18
:103270000022001F196803E0814203D80A4649680A
:103280000029F9D152B11368841A9C4204D1006814
:1032900018441060104602E0506000E0186039B138
:1032A00002680B1A934203D10B681A440260496802
:1032B000416010BD000100201CB51B480421002303
:1032C0008A01CDE9001019A11C4802F00BFF1C482F
:1032D000022100238022CDE900101AA11C4802F02F
:1032E00001FF1C48032100234FF48072CDE9001038
:1032F00019A11C4802F0F6FE1B48022100230A0215
:10330000CDE9001019A11B4802F0ECFE1A4801217A
:1033100000230A02CDE9001018A11A4802F0E2FECB
:1033200002F03EFE1CBD00005000002053656E738D
:103330006F7244617461476574000000AD2300083A
:10334000540000204B65795F7461736B00000000CE
:10335000711A000858000020446576436F6E746F40
:1033600072616C00A10F00085C000020446973705A
:103370006C6179004D1700086000002047697A777A
:103380006974730021190008024612B102F00700A7
:1033900028B9082901D8002070470120FCE702F075
:1033A0000700C0F10800884201D30020F4E70120A3
:1033B000F2E730B502460B460021002400250AB989
:1033C000481E30BD002108E0545C581A401E155CB0
:1033D0005554581A401E1454491CB1EB530FF3D3E3
:1033E0000020EEE72DE9F04104460D4600270026B7
:1033F00004B135B964A0FFF791FC4FF0FF30BDE890
:10340000F08100F07DFB06462878217888420CD0B8
:1034100067A0FFF783FC6C4890F81D0120F00100C5
:10342000401C694981F81D0101276878617888424C
:103430000CD066A0FFF772FC634890F81D0120F0E5
:103440000200801C604981F81D010127A878A1783D
:1034500088420CD064A0FFF761FC5B4890F81D0126
:1034600020F00400001D584981F81D010127E8786B
:10347000E17888420CD063A0FFF750FC524890F8E6
:103480001D0120F0080008304F4981F81D01012777
:103490002879217988420CD061A0FFF73FFC4A4887
:1034A00090F81D0120F010001030474981F81D01EF
:1034B0000127D5F80500D4F80510884213D05D48DF
:1034C0000068301A41F2707188420CD35AA0FFF79D
:1034D00025FC3D4890F81D0120F0200020303A499D
:1034E00081F81D010127D5F80900D4F80910884298
:1034F00013D050480068301A41F2707188420CD3E2
:1035000054A0FFF70BFC304890F81D0120F040005C
:1035100040302D4981F81D010127D5F80D00D4F860
:103520000D10884213D043480068301A41F2707180
:1035300088420CD34EA0FFF7F1FB234890F81D0101
:1035400020F080008030204981F81D010127D5F846
:103550001100D4F8111088420ED036480068301A95
:1035600041F27071884207D346A0FFF7D7FB0121D3
:10357000154880F81E110127012F03D100F0C0FA71
:103580002C49086038463AE767697A436865636B97
:103590005265706F7274204572726F72202C2049D0
:1035A0006C6C6567616C20506172616D0A0000008F
:1035B00076616C7565486561746572204368616EFB
:1035C0006765640A000000001C01002076616C75CC
:1035D00065496E5F576174657250756D7020436800
:1035E000616E6765640A000076616C75654F75747D
:1035F0005F576174657250756D70204368616E67C6
:1036000065640A0076616C756546696C6C5F496E2D
:103610005F4C69676874204368616E6765640A007F
:1036200076616C7565536572766F204368616E676D
:1036300065640A008C00002076616C756554656DC8
:103640007065726174757265204368616E67656448
:103650000A00000076616C756557617465724C658F
:1036600076656C204368616E6765640A000000003F
:1036700076616C75654C69676874204368616E6734
:1036800065640A0076616C75655475726269646977
:103690007479204368616E6765640A002DE9FC4710
:1036A00005460C4616464FF000080027B946002094
:1036B000009001902888ADF800000DB104B136B932
:1036C0004AA0FFF72BFB4FF0FF30BDE8FC8702213B
:1036D0006846FFF76EFEB0F1FF3F05D14EA0FFF741
:1036E0001DFB4FF0FF30F0E76846FFF768FD8046AE
:1036F00008F1020081449DF8000000F0010090B143
:1037000011212278601C81542078401C207043468F
:10371000AA1C0121384601F0CBFA08B1012000E0D3
:10372000002030707F1C9DF80000C0F3400090B175
:1037300012212278601C81542078401C207043465E
:10374000AA1C0121384601F0B3FA08B1012000E0BB
:10375000002070707F1C9DF80000C0F3800090B1C5
:1037600013212278601C81542078401C207043462D
:10377000AA1C0121384601F09BFA08B1012000E0A3
:103780000020B0707F1C9DF80000C0F3C00090B115
:1037900014212278601C81542078401C20704346FC
:1037A000AA1C0121384601F083FA08B1012000E08B
:1037B0000020F0707F1C9DF80000C0F3001090B155
:1037C00015212278601C81542078401C20704346CB
:1037D000AA1C0121384601F06BFA08B1012000E073
:1037E000002030717F1C00206FE7000067697A4479
:1037F000617461506F696E74324576656E742045F0
:1038000072726F72202C20496C6C6567616C20505D
:103810006172616D0A00000067697A427974654FD0
:103820007264657245786368616E6765204572727F
:103830006F720A002DE9FF4705460F4690464FF08C
:103840000009002600240020009001906648B0F88E
:103850001D01ADF8000002216846FFF7AAFDA41C77
:1038600005B13FB961A0FFF759FA4FF0FF3004B03E
:10387000BDE8F0875C4890F81D0100F0010038B108
:103880002B780DEB04020121304601F0D3F9761CB0
:10389000554890F81D01C0F3400038B16B780DEB2E
:1038A00004020121304601F0C5F9761C4E4890F81B
:1038B0001D01C0F3800038B1AB780DEB040201218B
:1038C000304601F0B7F9761C474890F81D01C0F367
:1038D000C00038B1EB780DEB04020121304601F055
:1038E000A9F9761C404890F81D01C0F3001038B1CA
:1038F0002B790DEB04020121304601F09BF9761C77
:1039000016B94FF0000908E006F0070010B94FEAB9
:10391000D60902E0012000EBD609B9F1010F04D964
:103920000DEB04004946FFF744FD4C442E4890F847
:103930001D01C0F3401068B1D5F805200021012019
:1039400001F018FAC0B28DF809009DF809100DF8C1
:103950000410641C244890F81D01C0F3801068B165
:10396000D5F809200021012001F004FAC0B28DF839
:103970000A009DF80A100DF80410641C1A4890F80B
:103980001D01C00968B1D5F80D200021012001F00A
:10399000F1F9C0B28DF80B009DF80B100DF8041072
:1039A000641C114890F81E0100F0010068B1D5F8C0
:1039B00011200021012001F0DDF9C0B28DF80C00CA
:1039C0009DF80C100DF80410641C07480021A0F8A5
:1039D0001D11C8F8004069463846D8F80020FCF7A9
:1039E000EDFB002043E700001C01002067697A44DA
:1039F000617461506F696E7473325265706F727466
:103A000044617461204572726F72202C20496C6C85
:103A10006567616C20506172616D0A0070B5054682
:103A200000F06EF80446002625492846FFF7DAFC28
:103A3000012817D123A0FFF771F9214A193AA2F101
:103A400009012846FFF7F6FE38B9244800F21F1195
:103A5000D0F82821142001F06BF8152229461848C7
:103A6000FCF7ACFB1E48B4FBF0F100FB114018BBA7
:103A70001C480068A0421FD01BA0FFF74FF9FF228F
:103A800002210F482438FCF7ABFB0D4A193AA2F18A
:103A900009012846FFF7CEFE38B9104800F21F1181
:103AA000D0F82821142001F043F8152229460448B3
:103AB000FCF784FB0B4804603046FFF7D5FB70BD74
:103AC0005D0200206368616E6765642C207265701A
:103AD0006F727420646174610A0000001C01002090
:103AE000C027090090000020496E666F3A203630EA
:103AF0003053207265706F727420646174610A00C3
:103B000001480068704700008800002010B5174881
:103B100090F88100012827D1144890F880000228ED
:103B20001DDAFFF7EDFF1149D1F8BD10401AC82882
:103B30001AD9FFF7E5FF04460C4890F88030D0F81A
:103B4000BD2021460AA0FFF7E9F800F00FFF074863
:103B500090F88000401C054981F8800004E0412174
:103B600002488030FCF743FB10BD00001C01002020
:103B70005761726E696E673A67697A50726F746FD7
:103B8000636F6C526573656E644461746120256473
:103B90002025642025640A003EB50446002524B98A
:103BA00013A0FFF7BBF8681E3EBD20680090606858
:103BB00001909DF80400401CC0B28DF8040005205F
:103BC000FFF725FBADF802000921684600F00CFF65
:103BD0008DF808000921684602F0D0F80546002D4E
:103BE00003DA29460DA0FFF799F82846DCE7000024
:103BF0004552523A2067697A50726F746F636F6CE6
:103C0000436F6D6D6F6E41636B20646174612069F9
:103C10007320656D707479200A0000004552523A95
:103C20002075617274207772697465206572726F95
:103C300072202564200A0000FEB504460E460025C9
:103C400024B914A0FFF76AF8681EFEBD684600F0AC
:103C500001FA12208DF8040060798DF80500062025
:103C6000FFF7D5FAADF802008DF808600A21684622
:103C700000F0BAFE8DF809000A21684602F07EF8CD
:103C80000546002D03DA29460DA0FFF747F8284620
:103C9000DBE7000067697A50726F746F636F6C4581
:103CA00072726F72436D64204572726F72202C20A5
:103CB000496C6C6567616C20506172616D0A00002F
:103CC0004552523A2075617274207772697465208A
:103CD0006572726F72202564200A000030B59DB0B5
:103CE000044600252CB92BA0FFF718F8681E1DB05C
:103CF00030BD684600F0AEF902208DF8040060790E
:103D00008DF805002FA103C9CDE9020130A103C937
:103D1000CDE9040131A103C9CDE9080132A103C9EC
:103D2000CDE90601202233A10AA8FCF747FA202298
:103D300039A10DF15200FCF741FA0020CDF84A00FC
:103D4000CDF84E009DF851008DF851009DF85100BE
:103D500040F002018DF851100020FFF758FAADF83D
:103D600048006F20FFF753FAADF802007321684650
:103D700000F03AFE8DF872007321684601F0FEFFF4
:103D80000546002D03DA29462CA0FEF7C7FF28467A
:103D9000ADE7000067697A50726F746F636F6C47AC
:103DA0006574446576696365496E666F2045727215
:103DB0006F72202C20496C6C6567616C20506172B9
:103DC000616D0A0030303030303030340000000097
:103DD000303030303030303200000000303330339B
:103DE000303030300000000030333031303130308E
:103DF0000000000031333134666432613462616541
:103E00003461643062613433336434313563313367
:103E10006466313700000000633836386563313539
:103E2000363737613465393761366366653839331B
:103E30003331313939373662000000004552523A89
:103E40002075617274207772697465206572726F73
:103E500072202564200A00002DE9FE4F80460E46A0
:103E600017464FF0000B0020029081468246002545
:103E700034460090B8F1000F01D006B137B955A013
:103E8000FEF74CFF4FF0FF30BDE8FE8F404601F0DB
:103E900099FE1FFA80FABAF1000F02D14FF0FF30FD
:103EA000F2E74FF0000969E0012201A9404601F064
:103EB000C6FE8346BBF1000F5ED052480078FF2853
:103EC0001FD19DF80400FF281BD14F48007848B946
:103ED000FF202070607002204C49088001204A4970
:103EE000087040E04948008804283CDD47480088C5
:103EF000A84238D0FF20207060700220434908801B
:103F000031E040480078FF2803D19DF8040055288F
:103F100029D03D480078012825D19DF804003B496F
:103F20000988605439480088401C38490880084690
:103F30000088042817DD0094009C6088FFF767F96B
:103F4000001D85B2392D01D2042D07DC00202E4939
:103F500008702E4908802EA0FEF7E0FE2B4800884E
:103F6000A84200D10CE09DF80400264908703848AA
:103F70000078401C3649087009F10109D14593DBEE
:103F800000BF22480088042822DD20480088A8427B
:103F90001ED11E480188204600F026FD02901B48D5
:103FA0000088401E215C029881420AD13D80002099
:103FB000154908701549088025490870114908708D
:103FC00062E700201049087010490880801E5BE7F6
:103FD000012059E767697A50726F746F636F6C479D
:103FE00065744F6E655061636B6574204572726FC6
:103FF00072202C20496C6C6567616C205061726185
:104000006D0A000098000020940000209600002017
:104010004552523A7468652064617461206C656E23
:1040200067746820697320746F6F206C6F6E6720EF
:104030006F7220746F6F20736D616C6C2C207769C8
:104040006C6C206162616E646F6E200A000000007B
:104050009900002010B504462CB907A0FEF75EFEBB
:104060004FF0FF3010BD002020606060FF20207006
:1040700060700020F6E700004552523A2067697AE6
:1040800050726F746F636F6C48656164496E6974D8
:10409000206865616420697320656D707479200AF9
:1040A000000000002DE9F04F9FB006468B461746F2
:1040B000994600201E9082468046002501ACBBF147
:1040C000000F06D131A0FEF729FE681E1FB0BDE823
:1040D000F08FB9F1010F06D196F8088008F10600BB
:1040E000384485B201E0781D85B22B4642463946F8
:1040F0002CA0FEF713FEFF2004F8010B04F8010BBF
:10410000281204F8010B04F8015B3079401C04F814
:10411000010B707904F8010B002004F8010B04F87E
:10412000019B4FF0080AB9F1010F0DD104F8018B82
:104130000AF1010A01A901EB0A00424606F1090150
:10414000FCF73CF8C244444437B101A901EB0A0032
:104150003A465946FCF732F8291D01A800F044FC04
:104160000146E81C01AA1154291D01A801F006FE10
:104170001E901E98002806DA14A01E99FEF7CEFDA8
:104180006FF00100A2E70020A0E700005B4552525B
:104190005D202064617461204973204E756C6C2031
:1041A0000A0000006C656E203D202564202C2073E1
:1041B0004469644C656E203D202564202C64617444
:1041C000615F6C656E203D2025640A007561727424
:1041D000207772697465206572726F722025642081
:1041E0000A0000002DE9F04780460C4617461D46A0
:1041F000089E94F800900CB105B136B93AA0FEF7CC
:104200008DFD4FF0FF30BDE8F087B8F1000F68D1A9
:1042100017214148FBF7EBFFB9F1050F40D0B9F189
:10422000110F03D0B9F1120F59D110E03BA0FEF7E6
:1042300075FD394A6B323849601CFFF72FFA0120AF
:104240003549C139087000250020306048E03CA0A5
:10425000FEF764FD3048C138B4F80110A0F81D1114
:10426000022100F21D10FFF7A4F82B4A6732A2F1D9
:10427000090101F12200FFF7DDFA68B92648C138CB
:1042800000F21F11D0F82821681CFBF797FF1320BC
:1042900028700820306002E04FF0FF30B3E71FE0E5
:1042A0007A1E611C1C488738FBF788FF781E1A4964
:1042B000C139486710211848C13890F8C120C23070
:1042C0008154C23890F8C100401C1349C13981F8AB
:1042D000C1000320087000250020306000E000BF0E
:1042E00000BF00208FE7000067697A50726F746F1B
:1042F000636F6C49737375656450726F6365737334
:10430000204572726F72202C20496C6C6567616C5D
:1043100020506172616D0A00DD0100204143544963
:104320004F4E5F454C4F4E474154455F434F4E54AF
:10433000524F4C5F444556494345200A0000000057
:10434000414354494F4E5F454C4F4E474154455FA2
:10435000524541445F4445565F53544154555320A0
:104360000A00000070B5044625462CB90EA0FEF7E1
:10437000D5FC4FF0FF3070BD412205F108010E4819
:10438000FBF71CFF0F210D4890F8062100F20710E3
:1043900081540A4890F80601401C084981F806013A
:1043A000052008700020E6E74E5450206973206510
:1043B0006D707479200A0000800200201C0100202A
:1043C00010B504462CB9CAA0FEF7A8FC4FF0FF3088
:1043D00010BD2089FEF71BFF2081D1480078C0F373
:1043E0008000217AC1F38001884256D0207AC0F340
:1043F0008000002829D0207A00F0010078B1002147
:10440000C84890F8D820D9308154D93890F8D800CD
:10441000401CC44981F8D800C3A0FEF77FFC207A75
:10442000C0F34000002838D00121BE4890F8D820C1
:10443000D9308154D93890F8D800401CB94981F856
:10444000D800C1A0FEF76AFC27E0207A00F0010046
:1044500078B10021B34890F8D820D9308154D938A8
:1044600090F8D800401CAF4981F8D800AEA0FEF704
:1044700055FC207AC0F3400078B10221A94890F899
:10448000D820D9308154D93890F8D800401CA5499B
:1044900081F8D800B3A0FEF741FCA1480078C0F332
:1044A000C000217AC1F3C00188422CD0207AC10813
:1044B0009B48007861F3C30099490870207AC0F3E3
:1044C000C00080B10321974890F8D820D93081549A
:1044D000D93890F8D800401C924981F8D800A8A09B
:1044E000FEF71CFC0FE004218E4890F8D820D9304C
:1044F0008154D93890F8D800401C8A4981F8D800F6
:10450000A7A0FEF70BFC86480078C0F30010217AC4
:10451000C1F3001188422CD0207A0109804800782C
:1045200061F304107E490870207AC0F3001080B156
:1045300005217C4890F8D820D9308154D93890F89A
:10454000D800401C774981F8D8009DA0FEF7E6FB13
:104550000FE00621734890F8D820D9308154D9381B
:1045600090F8D800401C6F4981F8D8009CA0FEF755
:10457000D5FB6B480078C0F34010217AC1F340119D
:1045800088422CD0207A41096548007861F34510B3
:1045900063490870207AC0F3401080B10721614858
:1045A00090F8D820D9308154D93890F8D800401CE0
:1045B0005C4981F8D80093A0FEF7B0FB0FE008211A
:1045C000584890F8D820D9308154D93890F8D8007C
:1045D000401C544981F8D80091A0FEF79FFB504839
:1045E0004078C0F3C001607AC0F3C00081422CD093
:1045F000607AC1084A48407861F3C300484948706E
:10460000607AC0F3C00080B10B21464890F8D820F2
:10461000D9308154D93890F8D800401C414981F8EC
:10462000D80087A0FEF77AFB0FE00C213D4890F8F8
:10463000D820D9308154D93890F8D800401C394955
:1046400081F8D80085A0FEF769FB35484078C0F3B3
:104650000011607AC0F3001081422CD0607A010909
:104660002F48407861F304102D494870607AC0F3F8
:10467000001080B109212B4890F8D820D9308154FE
:10468000D93890F8D800401C264981F8D8007BA082
:10469000FEF744FB0FE00A21224890F8D820D930D9
:1046A0008154D93890F8D800401C1E4981F8D800B0
:1046B00079A0FEF733FB0D211A4890F8D820D930A5
:1046C0008154D93890F8D800401C164981F8D80098
:1046D000607A00F0070081F85601084690F85611FC
:1046E00074A0FEF71BFB02200E49087000206FE645
:1046F00067697A50726F746F636F6C4D6F64756C1D
:1047000065537461747573204572726F72202C202A
:10471000496C6C6567616C20506172616D0A0000C4
:104720009A0000201C0100204F6E426F6172646984
:104730006E673A20536F66744150206F7220576540
:1047400062206D6F64650A004F6E426F617264692A
:104750006E673A204169724C696E6B206D6F6465BB
:104760000A0000004F6E426F617264696E673A2002
:1047700053746174696F6E206D6F64650A00000088
:1047800057694669207374617475733A20696E20A5
:1047900062696E64696E67206D6F64650A0000006F
:1047A00057694669207374617475733A206F757424
:1047B0002062696E64696E67206D6F64650A00002F
:1047C00057694669207374617475733A20636F6E1C
:1047D0006E656374656420726F757465720A00009B
:1047E00057694669207374617475733A20646973FC
:1047F000636F6E6E656374656420726F7574657245
:104800000A00000057694669207374617475733A31
:1048100020636F6E6E6563746564206D326D0A008F
:1048200057694669207374617475733A20646973BB
:10483000636F6E6E6563746564206D326D0A00008F
:1048400057694669207374617475733A206170709A
:1048500020636F6E6E6563740A00000057694669D5
:10486000207374617475733A206E6F2061707020CC
:10487000636F6E6E6563740A0000000057694669D5
:10488000207374617475733A20696E207465737453
:10489000206D6F64650A0000576946692073746172
:1048A0007475733A206F75742074657374206D6F1E
:1048B00064650A0052535349206973202564200A15
:1048C0000000000070B5044625462CB919A0FEF77B
:1048D00025FA4FF0FF3070BD1B48A9680160A98917
:1048E0008180A97B8171A0F5AC70D5F80F10C0F85C
:1048F00060110146B1F85801FEF789FC1349A1F88F
:104900005801D1F86001FEF78FFC1049C1F8600131
:104910000E210E4890F8EF20F0308154F03890F8D6
:10492000EF00401C094981F8EF00042008700020C6
:10493000D1E700004552523A204E5450206973206E
:10494000656D707479200A00740200201C0100203B
:1049500010B5FFF7D5F8044600BFFFF7D1F8001BEC
:10496000B0F5167FF9D900F07BFE10BD10B500241C
:104970000E4890F8810000B910BD0DA0FEF7CEF9E9
:104980000A48B0F8BB10823001F0F8F90446074835
:10499000B0F8BB00A04202D00DA0FEF7BFF9FFF7B0
:1049A000AFF80249C1F8BD0000BFE5E71C010020D7
:1049B0005761726E696E673A2074696D656F7574C0
:1049C0002C20726573656E642064617461200A0036
:1049D0004552523A20726573656E64206461746159
:1049E000206572726F720A0010B50246002400231F
:1049F00002B109B9002010BD022303E0D05C2044BD
:104A0000C4B25B1C481E9842F8D82046F3E7000069
:104A100070B504460D462CB90FA0FEF77FF94FF094
:104A2000FF3070BD41211248FBF7E1FB2A462146C9
:104A30000F48801CFBF7C2FB0D488038A0F8BB5024
:104A4000012180F88110FFF75BF809498039C1F82E
:104A5000BD000020E5E700004552523A2064617431
:104A60006120697320656D707479200A0000000070
:104A70009C01002070B50446094D2CB909A0FEF731
:104A80004DF94FF0FF3070BD2879401C21798842E4
:104A900004D141210248801EFBF7A9FB0020F2E768
:104AA0009E0100204552523A20646174612069736E
:104AB00020656D707479200A0000000070B504460E
:104AC0000D46002624B90AA0FEF728F9701E70BD15
:104AD0002A4621460E4801F003F90646AE4205D0AB
:104AE0000CA0FEF71BF94FF0FF30F0E73046EEE781
:104AF0004552523A2067697A507574446174612056
:104B000062756620697320656D707479200A0000F3
:104B1000C40200204552523A204661696C65642007
:104B2000746F2072625772697465200A0000000079
:104B30002DE9F0438FB006460F4690464FF000092E
:104B40006C4608F1060085B23FB924A0FEF7E6F8EE
:104B50004FF0FF300FB0BDE8F083FF2004F8010BE9
:104B600004F8010B281204F8010B04F8015B05207E
:104B700004F8010B234890F87810806F401C214AFC
:104B8000906704F8011B002004F8010B04F8010BE6
:104B900004F8016B424639460DF10900FBF70EFBA4
:104BA000291D6846FFF720FF0146E81C0DF800109C
:104BB000291D684601F0E2F88146B9F1000F06DAD6
:104BC000494611A0FEF7AAF86FF00100C2E7291DBF
:104BD0006846FFF71DFF0020BCE7000067697A52B6
:104BE00065706F727444617461204572726F7220D7
:104BF0002C20496C6C6567616C20506172616D0A94
:104C0000000000001C0100204552523A20756172DC
:104C100074207772697465206572726F72202564E2
:104C2000200A000002480068401C014908607047E3
:104C3000880000202DE9F0470546884614461E46A8
:104C40004FF00009CA460027002314B9581EBDE8DA
:104C5000F087EB0841462846FEF796FB07463FB92A
:104C6000E05C05F0070106FA01F10843E0541DE09D
:104C7000012F1BD1F0B205F00701C1F1080140FA84
:104C800001F905F00700C0F10801FF20084100EA22
:104C9000060A581C205C40EA0900591C6054E05C7C
:104CA00005F007010AFA01F10843E0540020CEE7BD
:104CB0002DE9F04F8FB004460F4690461D46002662
:104CC000B246B146B34600200E90B8F1000F00D0B6
:104CD00025B94FF0FF300FB0BDE8F08F4FEAD4098F
:104CE0002A46414601A8FBF769FA012D09D9294650
:104CF00001A8FEF75EFBB0F1FF3F02D14FF0FF309D
:104D0000E9E739462046FEF73FFB8246BAF1000F3D
:104D10000CD101A810F8090004F007010841C7F1FF
:104D20000802FF2111410840064321E0BAF1010FBA
:104D30001ED101A909F10100085C04F00701C1F1CD
:104D40000801791AC1F10802FF21114100EA010BA3
:104D500001A810F8090004F0070108410E9004F0C2
:104D60000700C0F108010BFA01F006430E98064354
:104D70003046B0E710B503460020541AB4FBF3F0F8
:104D800010BD00002DE9FF5F07460E4693464FF029
:104D900000083446B1463546B24607B126B94FF051
:104DA000FF3004B0BDE8F09F4FF0000892E0781C9F
:104DB00010F80800162876D2DFE800F058595A8615
:104DC000865B5C5D5E868686865F697A650B1D26DE
:104DD0002F442078424908700846017841A0FDF729
:104DE0009DFF3F480078012802D1FDF729F901E035
:104DF000FDF71EF969E06078394948700846417846
:104E00003EA0FDF78BFF60E0A0783549887008462A
:104E1000817842A0FDF782FF57E0E0783049C87002
:104E20000846C17845A0FDF779FF2D48C0780128D4
:104E300005D14A490988C8B2FCF7BDFE01E0FCF77C
:104E4000B5FE42E02079264908710846017944A060
:104E5000FDF764FF22480079012803D14648FDF799
:104E6000CBFA02E00020FDF7C7FA2EE02DE02CE09F
:104E70002BE02AE029E028E027E099F800103FA085
:104E8000FDF74CFF21E040A0FDF748FF1DE0A979A8
:104E90006A792B79A868CDE90032CDE90210EB7868
:104EA000AA78298800E00FE03CA0FDF737FF0CE06E
:104EB00045A0FDF733FF49A0FDF730FF9AF8001039
:104EC0004AA0FDF72BFF00E000BF00BF08F1010082
:104ED00000F0FF08387840453FF769AF002060E7F1
:104EE000040100204576743A204556454E545F48EB
:104EF0006561746572202564200A00004576743A65
:104F0000204556454E545F496E5F57617465725037
:104F1000756D70202564200A000000004576743A03
:104F2000204556454E545F4F75745F5761746572E6
:104F300050756D70202564200A0000004576743A93
:104F4000204556454E545F46696C6C5F496E5F4C18
:104F500069676874202564200A000000680000204A
:104F60004576743A204556454E545F536572766FC8
:104F7000202564200A00000000007042525353496B
:104F80002025640A000000005452414E5350415203
:104F9000454E545F44415441200A00005749464958
:104FA0005F4E5450203A205B25642D25642D2564E6
:104FB00020253032643A253032643A253032645D3F
:104FC0005B25645D200A00004D4F44554C45204947
:104FD0004E464F202E2E2E0A000000005749462034
:104FE0004D4F44554C45202E2E2E0A006D6F647592
:104FF0006C6554797065203A205B25645D200A0059
:105000002DE9F041A0B00546002600200290019055
:1050100000248046002735B982A0FDF77FFE601E80
:1050200020B0BDE8F081FEF771FD02AA87498848EB
:10503000FEF712FF0646002E71D186A0FDF76EFE28
:10504000824C20790F284FD00ADC0E2873D2DFE87B
:1050500000F07216721A7272433872724472453CD2
:10506000182852D006DC112847D0142846D016281C
:1050700061D134E0222854D02A285CD130E0204687
:10508000FEF72CFE5FE0E279A17977A0FDF746FEFE
:1050900001A8009007F10900BDF808301A1A6B4802
:1050A0000830C11903AB4046FFF79CF840B9E379DB
:1050B00003A92046019AFEF7F5FF6FA0FDF72EFE2B
:1050C00041E02046FEF768FD3DE02046FEF764FD26
:1050D0002046FFF775F936E000BF00BF00BF00BFF4
:1050E0002046FFF7C7FC2EE02046FEF755FD65A0E1
:1050F000FDF714FEFFF72CFC25E024E02046FFF727
:10510000B9FC65A0FDF70AFE1DE02046FFF7B2FCE2
:105110002046FFF7D7FB68A0FDF700FE13E013E081
:1051200009E02046FFF7A6FC2046FFF71BF968A020
:10513000FDF7F4FD07E002212046FEF77DFD6BA0A0
:10514000FDF7ECFD00BF0DE016F1020F0AD13F4C58
:1051500001212046FEF770FD6AA0FDF7DFFD6FF02C
:1051600001005DE73948401E0078062852D2DFE88A
:1051700000F051031425304100203449491E0870C5
:10518000152201F59671A1F16B00FFF7FBFD1721C8
:105190002E48C030FBF72BF83DE000202B49491E7C
:1051A0000870012201F5AB71A1F17E00FFF7EAFD65
:1051B00017212648D730FBF71AF82CE000202349A6
:1051C000491E087008463A31426FC130FFF7DAFDD8
:1051D00021E000201D49491E08700C2201F5AC7128
:1051E000A1F16900FFF7CEFD17211848EE30FAF75C
:1051F000FEFF10E000201549491E0870412201F50C
:10520000B271A1F15E00FFF7BDFD41214348FAF7FD
:10521000EEFF00E000BF00BF2846FEF7FFFB0020C6
:10522000FEE6000047697A7769747348616E646CC2
:1052300065204572726F72202C20496C6C65676125
:105240006C20506172616D0A000000001D01002099
:10525000C4020020476574204F6E65205061636B67
:105260006574210A00000000666C616720257820C3
:105270002578200A0000000041636B4461746120BE
:105280003A200A007265706F72743A4D435520726D
:1052900065626F6F74210A0041636B2050524F4466
:1052A000554354494F4E5F4D4F44452073756363DA
:1052B000657373200A00000041636B204745545F0B
:1052C0005554542073756363657373200A0000009E
:1052D00041636B204745545F4D6F64756C65207367
:1052E000756363657373200A000000004552523AEB
:1052F00020636D6420636F6465206572726F722134
:105300000A0000004552523A20636865636B2073BF
:10531000756D206572726F72210A000022020020F2
:1053200010B572200A4908600A48C860084600F0B3
:105330007BFC18B908A0FDF7F1FC02E00BA0FDF71B
:10534000EDFC4FF4D4710E48FAF751FF10BD000088
:10535000C4020020D4020020726243726561746549
:105360002053756363657373200A00007262437291
:1053700065617465204661696C64200A0000000064
:105380001C01002030B587B005460024062D7CD2D4
:10539000DFE805F0032E5B8AB5E001A8FEF75AFEB0
:1053A0000B208DF80800854890F87810806F401C1D
:1053B000824A9067C8B28DF809000520FDF727FFE3
:1053C000ADF80600092101A8FFF70EFB8DF80C00CF
:1053D000092101A800F0D2FC0446002C03DA214682
:1053E00077A0FDF79BFC092101A8FFF711FBE0E086
:1053F00004A8FEF72FFE09208DF814006F4890F8DE
:105400007810806F401C6D4A9067C8B28DF8150007
:105410008DF818500620FDF7FAFEADF812000A21AB
:1054200004A8FFF7E1FA8DF819000A2104A800F09A
:10543000A5FC0446002C03DA214661A0FDF76EFCB2
:105440000A2104A8FFF7E4FAB3E004A8FEF702FE7D
:1054500009208DF81400594890F87810806F401C8E
:10546000564A9067C8B28DF815008DF8185006207E
:10547000FDF7CDFEADF812000A2104A8FFF7B4FA3B
:105480008DF819000A2104A800E08EE000F076FCF7
:105490000446002C03DA214649A0FDF73FFC0A210F
:1054A00004A8FFF7B5FA84E001A8FEF7D3FD1320A6
:1054B0008DF80800414890F87810806F401C3F4AF2
:1054C0009067C8B28DF809000520FDF7A0FEADF881
:1054D0000600092101A8FFF787FA8DF80C000921C1
:1054E00001A800F04BFC0446002C03DA214634A04E
:1054F000FDF714FC092101A8FFF78AFA59E001A879
:10550000FEF7A8FD15208DF808002C4890F87810BB
:10551000806F401C294A9067C8B28DF809000520A9
:10552000FDF775FEADF80600092101A8FFF75CFA4A
:105530008DF80C00092101A800F020FC0446002C85
:1055400003DA21461EA0FDF7E9FB092101A8FFF7B8
:105550005FFA2EE001A8FEF77DFD29208DF80800F6
:10556000164890F87810806F401C144A9067C8B2B3
:105570008DF809000520FDF74AFEADF80600092167
:1055800001A8FFF731FA8DF80C00092101A800F0FD
:10559000F5FB0446002C03DA214609A0FDF7BEFB0B
:1055A000092101A8FFF734FA03E00CA0FDF7B6FBD0
:1055B00000BF00BF204607B030BD00001C01002026
:1055C0004552523A20756172742077726974652071
:1055D0006572726F72202564200A00004552523AAB
:1055E000204366674D6F6465206572726F72210A91
:1055F0000000000010B5FCF7C3FBFCF729FDFBF72A
:10560000A9FAFCF7ABF9FBF735FBFCF7FBFDFCF760
:10561000F7FCFDF7BFF9FDF701FA472140F2E7304B
:10562000FDF77EF9FDF75CF9FBF7F4FB05A0FDF74C
:1056300075FB00F0EFFBFFF773FEFDF73DFE00206A
:1056400010BD00003D3D3D2073797374656D206988
:105650006E6974206F6B203D3D3D200D0A000000F7
:10566000012080F3138800BF00BF0748006800F4E2
:10567000E06006490843001D03490860BFF34F8FEF
:1056800000BF00BFFEE700000CED00E00000FA05DF
:105690002DE9F04105460E46264807682648006871
:1056A000001D00F0D1FB50B92348006890F82C1081
:1056B0000120884021490968814320480160681C15
:1056C000D8B9D6B11E4948681B49096888601A498B
:1056D00082680968CA6018490968091D82685160B2
:1056E00015490968091D8160154A134909684A610D
:1056F00011460968491C11601AE07C190E480068BF
:105700004460BC4207D20C480168091D0D4800687E
:1057100000F0BEFB0CE008480168091D0A4800685B
:1057200000F0B6FB09480068844201D207480460D3
:10573000BDE8F081B00000209C000020B4000020F3
:10574000FC030020A4000020A0000020CC000020CA
:1057500010B5044600F0B6FB2F480068401C2E49E7
:1057600008602E48006840B92C480460084600686C
:1057700001280DD100F016F90AE02948006838B96F
:1057800026480068C06AE16A884201D8234804605C
:1057900024480068401C2349086094F82C1001201C
:1057A00088402149096808431F490860E16A01EB04
:1057B00081011E4A02EB81014868A0608268E260B4
:1057C000211D826851608160E16A01EB8101174A05
:1057D00002EB81026261E16A01EB8101134A52F836
:1057E0002110491CE26A02EB8202104B43F822109E
:1057F00000F07AFB0A48006868B108480068C06A8F
:10580000E16A884207D24FF0805009490860BFF32F
:105810004F8FBFF36F8F10BDAC0000209C000020A5
:10582000B8000020C8000020B40000204803002079
:1058300004ED00E010B516E000F044FB0C48C06831
:10584000C468201D00F000FB0A480068401E09499A
:10585000086009480068401E0749086000F044FBE2
:10586000204600F00BF8044800680028E4D110BD81
:10587000E8030020AC000020A800002010B504467A
:10588000206B00F041FB204600F03EFB10BD000005
:1058900030B54FF48843154800F007042CB1C01D03
:1058A00020F00700114C041B1B1B0246104C226009
:1058B00000240F4D6C60D018083820F007000D4C04
:1058C000206000240B4D2D686C600A4D2D682C6003
:1058D0001146441A4C60074C24680C60064D4C6815
:1058E0002C60064D4C682C6030BD00001004002078
:1058F000DC000020E4000020EC000020E800002094
:1059000000BFFFF797FF064800680128F9D94FF05C
:10591000805004490860BFF34F8FBFF36F8FF0E7EB
:105920004803002004ED00E02DE9FF5F80460E46AD
:105930009146DDE90E7A109CA9F10100216B01EB83
:10594000800B2BF0070B7EB1002507E0715D04F1A1
:1059500034004155705D00B902E06D1C102DF5D387
:1059600000BF002143200155052F00D30427E76223
:10597000201D00F08AFA04F1180000F086FA246174
:10598000C7F10500A061646241465846039A00F0E1
:1059900007F92060BAF1000F01D0CAF80040BDE855
:1059A000FF9F000010B5002407E004EB84010F4ABC
:1059B00002EB810000F05CFA641C052CF5D30C4866
:1059C00000F056FA0B4800F053FA0B4800F050FA7A
:1059D0000A4800F04DFA0A4800F04AFA044809491A
:1059E000086004480849086010BD00004803002012
:1059F000AC030020C0030020D4030020E8030020F3
:105A0000FC030020A0000020A400002010B50146E7
:105A1000164800E0006803688B42FBD302464368E7
:105A200013448B4204D143684C68234443600146CD
:105A30000A464B6813440468A34211D10C4C036816
:105A40002468A34208D04B680468646823444B6010
:105A500003681B680B6005E0054B1B680B6001E0E9
:105A600003680B60884200D0016010BDDC0000209C
:105A7000E400002009480068006808B9012000E03F
:105A8000002020B14FF0FF300549086005E00348D1
:105A90000068C0680068024908607047A0000020E4
:105AA000CC00002000BFBF2080F31188BFF34F8FD0
:105AB000BFF36F8F00BF00BFFEE700002DE9F04786
:105AC00005464FF0000900F0A1FA3048006808B917
:105AD000FFF7DEFE75B105F00700C0F11008C8F150
